:020000040000FA
:100000000C949C010C94CD010C94CD010C94CD0169
:100010000C94CD010C94CD010C94CD010C94CD0128
:100020000C94CD010C94EC0D0C94EC0D0C94EC0D97
:100030000C94CD010C94CD010C94CD010C94CD0108
:100040000C94CD010C94CD010C94CD010C94CD01F8
:100050000C94CD010C94CD010C94CD010C94A20D07
:100060000C94CD010C946C0D0C94420D0C94CD01AC
:100070000C94CD010C94CD010C94CD010C94CD01C8
:100080000C94CD010C94CD010C94CD010C94CD01B8
:100090000C94CD010C94CD010C94CD010C94CD01A8
:1000A0000C94CD010C94CD010C94CD010C94CD0198
:1000B0000C94CD010C94CD010C94CD010C94CD0188
:1000C0000C94CD010C94CD010C94CD010C94CD0178
:1000D0000C94CD010C94CD010C940C0D0C94E20CFD
:1000E0000C94CD010C940D070C9474060C94170716
:1000F0000C94CD050C9425070C9481030C94F40109
:100100000C94AA030C94AE030C946B020C94880319
:100110000C94A5170C9473030C94F1170C94A6037C
:100120000C9498030C9419070C94B3030C947E065A
:100130000C9437060C9457020C9448020C94F50664
:100140000C9475050C94B4160C948E030C947F06D5
:100150000C94E6050C94AF060C94B4030C94311780
:100160000C9485030C9421060C94B8030C945D1731
:100170000C94D4040C94DA170C9492030C9491060A
:100180000C94BA170C949C030C944E050C943206F4
:100190000C942C060C94BF150C947A180C947902CC
:1001A0000C9400170C94FF060C9485170C94EB0626
:1001B0000C9414020C94E2160C9435060C94490627
:1001C0000C94BC060C9482160C94E1060C94510518
:1001D0000C942A160C9408030C940B070C94BB0285
:1001E0000C9479030C94CF010C942F060C940D18E9
:1001F0000C9467060C947F0F0C941C150C94A003B0
:100200000C947D030C94C6060C941B070C944817A1
:100210000C94B40500002100240027002A002D00C2
:100220003000330001010000040107010A01000051
:100230002200250028002B002E003100340002018E
:100240000000050108010B0100002000230026002A
:1002500029002C002F0032000001000003010601DC
:10026000090105050505070508080808020202023C
:100270000A0A080804040404010101010101010142
:100280000303030303030303040707070C0C0C0C0D
:100290000C0C0C0C020202020606060606060606F6
:1002A0000B0B0B0B0B0B0B0B010210202008081083
:1002B00020401020408002010201080402010102D6
:1002C00004081020408080402010080402018004AF
:1002D000020180402010080402010804020101020A
:1002E0000408102040800102040810204080000013
:1002F0000A0B02090C0D0E080703040100000000A0
:1003000000000000000000000000000000000000ED
:1003100000000000000000000000121110000000AA
:1003200000000000000000000000000000000000CD
:10033000000000007F0F7A1811241FBECFEFD1E21A
:10034000DEBFCDBF00E00CBF14E0A0E0B2E0ECEAFD
:10035000F7E300E00BBF02C007900D92AA31B1078E
:10036000D9F726E0AAE1B4E001C01D92A332B2079A
:10037000E1F711E0CBE9D1E000E006C021970109E7
:10038000802FFE010E949D1ACA39D10780E008071C
:10039000A9F70E946A110C94C41B0C9400001F93CF
:1003A000CF93DF93182FC091EF04D091F0048A30DF
:1003B00041F4E881F9810190F081E02D6DE0CE01FA
:1003C0001995E881F9810190F081E02D612FCE012E
:1003D000199521E030E0019711F430E020E0C901E7
:1003E000DF91CF911F910895CF93DF93C091EF04D8
:1003F000D091F004E881F9810084F185E02DCE01EF
:100400001995892BB9F3E881F9810284F385E02DF0
:10041000CE01DF91CF9119940895DC01ED91FC910B
:100420000190F081E02D1994AF92BF92CF92DF92AC
:10043000EF92FF920F931F93CF93DF936C017B0199
:100440008B01040F151FEB015E01AE18BF08C0172A
:10045000D10759F06991D601ED91FC910190F0819D
:10046000E02DC6011995892B79F7C501DF91CF9150
:100470001F910F91FF90EF90DF90CF90BF90AF90C2
:100480000895FB0144815581608171810C941402AF
:10049000FC01538D448D252F30E0842F90E0821B8A
:1004A000930B541710F0CF96089501970895FC010F
:1004B000918D828D981761F0A28DAE0FBF2FB11D67
:1004C0005D968C91928D9F5F9F73928F90E00895BF
:1004D0008FEF9FEF0895FC01918D828D981731F079
:1004E000828DE80FF11D858D90E008958FEF9FEFCD
:1004F0000895FC01918D228D892F90E0805C9F4FA3
:10050000821B91098F739927089582E594E00E94D8
:10051000790221E0892B09F420E0822F089583EFEE
:1005200094E00E94790221E0892B09F420E0822FD7
:100530000895FC01A48DA80FB92FB11DA35ABF4F78
:100540002C91848D90E001968F739927848FA689D2
:10055000B7892C93A089B1898C91837080648C9326
:10056000938D848D981306C00288F389E02D8081D5
:100570008F7D80830895EF92FF920F931F93CF9307
:10058000DF93EC0181E0888F9B8D8C8D98131AC0CE
:10059000E889F989808185FF15C09FB7F894EE89B5
:1005A000FF896083E889F989808183708064808312
:1005B0009FBF81E090E0DF91CF911F910F91FF905D
:1005C000EF900895F62E0B8D10E00F5F1F4F0F7305
:1005D0001127E02E8C8D8E110CC00FB607FCFACFC0
:1005E000E889F989808185FFF5CFCE010E949902C3
:1005F000F1CFEB8DEC0FFD2FF11DE35AFF4FF08291
:100600009FB7F8940B8FEA89FB8980818062CFCFF6
:10061000CF93DF93EC01888D8823B9F0AA89BB8939
:10062000E889F9898C9185FD03C0808186FD0DC024
:100630000FB607FCF7CF8C9185FFF2CF808185FF45
:10064000EDCFCE010E949902E9CFDF91CF910895BD
:1006500080E090E0892B29F00E948F0281110E9496
:10066000000080E090E0892B49F080E090E0892B49
:1006700029F00E94000081110E94000080E090E0BB
:10068000892B49F080E090E0892B29F00E9400003E
:1006900081110E94000080E090E0892B29F00E94E7
:1006A000850281110C94000008958150823108F078
:1006B0005AC0E82FF0E08827EF59FC4F8F4F0C9479
:1006C0009D1A81038503730379037D03B3038803B4
:1006D0008E03920398039C03A003A603AA03B3030B
:1006E000AE03B403B803809180008F7780938000BD
:1006F0000895809180008F7DF9CF80918000877F61
:10070000F5CF84B58F7784BD089584B58F7DFBCFF9
:100710008091B0008F778093B00008958091B000F1
:100720008F7DF9CF809190008F778093900008950E
:10073000809190008F7DF9CF80919000877FF5CFD9
:100740008091A0008F778093A00008958091A000F1
:100750008F7DF9CF8091A000877FF5CF8091200118
:100760008F77809320010895809120018F7DF9CFAC
:1007700080912001877FF5CFCF93DF93E8E0F3E00E
:100780008491E2ECF2E0D491ECE7F2E0C491CC2366
:10079000A1F081110E945503EC2FF0E0EE0FFF1F36
:1007A000E85BFD4FA591B491EC91ED2381E090E0E1
:1007B00009F480E0DF91CF91089580E090E0FACFD6
:1007C0001F93CF93DF93282F30E0F901E251FD4FC3
:1007D0008491F901E855FD4FD491F901EE59FD4F8F
:1007E000C491CC23A9F0162F81110E945503EC2F40
:1007F000F0E0EE0FFF1FE25DFD4FA591B4918FB7C2
:10080000F894EC91111108C0D095DE23DC938FBFD2
:10081000DF91CF911F910895DE2BF8CFCF93DF9317
:1008200090E0FC01E855FD4F24918E599D4FFC014D
:1008300084918823D1F090E0880F991FFC01EC5E31
:10084000FD4FA591B491FC01E25DFD4FC591D4919E
:10085000623071F49FB7F8943C91822F8095832386
:100860008C93E8812E2B28839FBFDF91CF91089531
:100870008FB7F894EC912E2B2C938FBFF6CF3FB708
:10088000F8948091300490913104A0913204B09199
:10089000330426B5A89B05C02F3F19F00196A11D72
:1008A000B11D3FBFBA2FA92F982F8827BC01CD01BA
:1008B000620F711D811D911D42E0660F771F881F19
:1008C000991F4A95D1F708958F929F92AF92BF9248
:1008D000CF92DF92EF92FF924B015C010E943F04A6
:1008E0006B017C010E943F046C197D098E099F09F0
:1008F000683E734081059105A8F321E0821A9108B2
:10090000A108B10888EEC80E83E0D81EE11CF11CD6
:1009100081149104A104B10429F7FF90EF90DF90B6
:10092000CF90BF90AF909F908F9008952FB7F8947D
:1009300060912C0470912D0480912E0490912F04CD
:100940002FBF08950F931F930E94960460935A043B
:1009500070935B0480935C0490935D0482E594E063
:100960000E94570297FF1DC00E94960400915A04EE
:1009700010915B0420915C0430915D04601B710B4D
:10098000820B930B00915604109157042091580448
:10099000309159046017710782079307F8F28FEFBF
:1009A0009FEF1F910F910895CB0108954F925F9291
:1009B0006F927F92BF92CF92DF92EF92FF920F934E
:1009C0001F93CF93DF93EC0129013A018B01C12CD6
:1009D000D12C7601C414D504E604F7040CF03FC012
:1009E000F801B1908F018F8580FF0BC0E881F981FC
:1009F0000084F185E02D20E144E070E060E0CE016C
:100A00001995EB85FC858D859E85E817F90760F4BF
:100A1000B0828B859C8501969C878B872FEFC21AAD
:100A2000D20AE20AF20AD6CF6B2D70E0E881F98192
:100A3000028CF38DE02DCE011995019679F7C7014F
:100A4000B601DF91CF911F910F91FF90EF90DF9052
:100A5000CF90BF907F906F905F904F9008957301FB
:100A60006201EDCFCF93DF93EC01E881F981028839
:100A7000F389E02D19958F3F980731F02D813E8144
:100A80002F5F3F4F3E832D83DF91CF9108958FEFEE
:100A90009FEF089560E070E0CB01089590E080E062
:100AA0000895FF920F931F93CF93DF938C01EB0177
:100AB0006F3F7607B9F0F62EEAE06E1306C06DE0E0
:100AC000F801808991890E940D026F2DF8018089BB
:100AD00091890E940D02CE01DF91CF911F910F915C
:100AE000FF900895D0E0C0E0F6CF7F928F929F9262
:100AF000AF92BF92CF92DF92EF92FF920F931F932C
:100B0000CF93DF938C0149015A01EB01C12CD12C09
:100B10007601C814D904EA04FB04B4F479908AE09D
:100B2000781206C06DE0F801808991890E940D025B
:100B3000672DF801808991890E940D02FFEFCF1A7D
:100B4000DF0AEF0AFF0AE5CFC501B401DF91CF91BB
:100B50001F910F91FF90EF90DF90CF90BF90AF90DB
:100B60009F908F907F900895CF93DF93EC018889B9
:100B70009989DC01ED91FC910084F185E02D1995B6
:100B8000892BA9F388899989DC01ED91FC91028474
:100B9000F385E02DDF91CF911994CF93DF93EC0192
:100BA00088899989DC01ED91FC910084F185E02D23
:100BB0001995892BA9F388899989DC01ED91FC911C
:100BC0000484F585E02DDF91CF9119948F929F9247
:100BD000AF92BF92CF92DF92EF92FF920F931F934B
:100BE000CF93DF938C0149015A01EB01C12CD12C29
:100BF0007601D80150968D919C91DC01ED91FC918C
:100C00000284F385E02D19958F3F61F0C814D90453
:100C1000EA04FB043CF48993BFEFCB1ADB0AEB0A2E
:100C2000FB0AE7CFC701B601DF91CF911F910F916A
:100C3000FF90EF90DF90CF90BF90AF909F908F90FC
:100C40000895DC0150968D919C91DC01ED91FC9111
:100C50000084F185E02D199490E080E0089590E003
:100C600080E0089590E080E0089508950895DC0103
:100C7000ED91FC9136970190F081E02DE80FF91F7E
:100C800080E792E0918380838AE792E0978386836E
:100C9000089520E732E0FC01318320832AE732E027
:100CA000378326830895FB0120813181FC01318344
:100CB0002083FB014281538126503109F9012081B3
:100CC0003181820F931FFC015183408308952CE8EA
:100CD00032E0FC013183208326E932E0318F208F1E
:100CE00060E872E00C945306DC01ED91FC913697BC
:100CF00020813181820F931F0C9467060895DC01D7
:100D0000ED91FC9136970190F081E02DE80FF91FED
:100D10008CE592E09183808386E692E093838283E0
:100D200008952CE532E0FC013183208326E632E091
:100D3000338322830895FB0120813181FC013183BB
:100D40002083FB014281538126503109F901208122
:100D50003181820F931FFC0151834083089528EA5B
:100D600032E0FC013183208322EB32E0358B248B8F
:100D70006CE972E00C949B06DC01ED91FC913697D6
:100D800020813181820F931F0C94AF060895CF9379
:100D9000DF93EC0188819981009711F00E94DB19A3
:100DA000198218821D821C821B821A82DF91CF91C8
:100DB0000895FC0180819181009711F00C94DB195A
:100DC0000895CF93DF93EC010E94AF06CE01DF912F
:100DD000CF910C94DB19DC01ED91FC9136972081C9
:100DE0003181820F931F0C94E106CF93DF93EC01C6
:100DF0000E946706CE01DF91CF910C94DB19DC01D4
:100E0000ED91FC91369720813181820F931F0C94D4
:100E1000F5060C94DB190C94DB19DC01ED91FC91C7
:100E2000369720813181820F931F0C940B070C940D
:100E3000DB190C94DB19DC01ED91FC9136972081D4
:100E40003181820F931F0C9419070C94DB19FC015C
:100E500001900020E9F73197AF01481B590BBC0105
:100E600083EF94E00C9414028F929F92AF92BF9202
:100E70000F931F93CF93DF93CDB7DEB7A1970FB634
:100E8000F894DEBF0FBECDBF19A2423008F44AE08D
:100E90008E010F5D1F4F842E912CB12CA12CA5012A
:100EA00094010E947B1AE62FB901CA01EA30F4F4DA
:100EB000E05DD801EE938D01232B242B252B79F7B0
:100EC00090E080E0109719F0CD010E942707A196CD
:100ED0000FB6F894DEBF0FBECDBFDF91CF911F914B
:100EE0000F91BF90AF909F908F900895E95CE1CFF4
:100EF000CF92DF92EF92FF92CF93DF936C01990F25
:100F0000EE08FF08F7FE19C06DE283EF94E00E943F
:100F10000D02EC0166277727CB016C197D098E093C
:100F20009F094AE00E9434078C0F9D1FDF91CF91EB
:100F3000FF90EF90DF90CF9008954AE0C701B6018F
:100F4000DF91CF91FF90EF90DF90CF900C9434071A
:100F5000CF93DF930E942707EC0189EC92E00E9477
:100F600027078C0F9D1FDF91CF910895CF93DF93BB
:100F700020919A0530919B05232B89F0FC01C091AB
:100F80009605D091970560817181CE010E94AA1BC0
:100F9000009729F08C1B9D0BDF91CF9108958FEF67
:100FA0009FEFFACFCF93DF93FC0124813581232B70
:100FB00079F0C081D181062E000C770BCE010E9402
:100FC0008F1B009729F08C1B9D0BDF91CF9108950B
:100FD0008FEF9FEFFACFFC0124813581FB01448123
:100FE000558124173507E1F4FC0180819181FB01D3
:100FF000608171810097D1F061157105A1F4232BF7
:10100000C1F0FC01808190E008C0232B91F0FB012E
:10101000808190E091958195910921E0892B09F0DB
:1010200020E0822F08950E949A1BF7CF6115710569
:1010300061F721E0F6CFCF92DF92EF92FF920F930C
:101040001F93CF93DF936C018B01FB01E480F5804C
:10105000C0E0D6E0CE151F0470F4F8016081718104
:10106000CD9F600D711D1124C6010E94EB078111F7
:101070000CC0CF5FEFCF80E0DF91CF911F910F9138
:10108000FF90EF90DF90CF90089581E0F5CF0F9320
:101090001F93CF93DF938C01EB01FC018081918141
:1010A0000097E1F06881798161157105A9F04281AD
:1010B00053812C813D814217530770F00E94A31B7E
:1010C0008C819D81F801958384831D821C82DF9130
:1010D000CF911F910F9108950E94DB19888199810A
:1010E000F801918380838A819B81938382838C81A1
:1010F0009D8195838483198218821B821A82E5CF91
:101100000F931F93CF93DF93EC0188819981009710
:1011100059F02A813B812617370730F081E0DF91B3
:10112000CF911F910F9108958B016F5F7F4F0E94A8
:10113000A51A009759F0998388831B830A832C8111
:101140003D81232B59F7FC011082E8CF80E0E7CFE7
:10115000EF92FF920F931F93CF93DF936115710569
:1011600041F480E0DF91CF911F910F91FF90EF90BC
:10117000089541155105B1F07B01EC010C811D81F1
:10118000040F151FB8010E948008882351F328819D
:1011900039818C819D81B701820F931F0E94A31B0F
:1011A0001D830C8381E0DECFCF93DF93EC01FB0145
:1011B00001900020E9F73197AF01461B570B0E94C1
:1011C000A808811103C0CE010E94C706CE01DF919D
:1011D000CF910895CF93DF93EC01FB0144815581BA
:1011E000608171810E94A808811103C0CE010E9414
:1011F000C706CE01DF91CF910895CF93DF931F9261
:101200001F92CDB7DEB769831A8241E050E0BE017C
:101210006F5F7F4F0E94A8080F900F90DF91CF91D2
:101220000895EF92FF920F931F93CF93DF93EC01FA
:101230007B018A01BA010E94800881110BC0CE0196
:101240000E94C706CE01DF91CF911F910F91FF90B1
:10125000EF9008951D830C83B701888199810E94C6
:10126000A31BF0CFFB0101900020E9F73197AF01FC
:10127000461B570B0C941109CF93DF93EC01FB0134
:101280008617970749F0608171816115710541F0FA
:10129000448155810E941109CE01DF91CF910895BB
:1012A0000E94C706F9CFFC011182108213821282BC
:1012B000158214820C943C09EF92FF920F931F93B6
:1012C000CF93DF93CDB7DEB72C970FB6F894DEBF80
:1012D0000FBECDBF7C01BC01CE0101960E94530917
:1012E0006AEB75E0CE0101960E941B081091B602D0
:1012F000212F257001E009F000E00823CE010196BE
:101300000E94D90684E090E00111B0C01770B701C7
:10131000CE0107960E9453096AEB75E0CE0107964D
:101320000E941B08082FB701CE0101960E945309A5
:1013300063EB75E0CE0101960E941B08082B81E04B
:10134000113009F080E00823CE0101960E94D906F1
:10135000CE0107960E94D90686E090E0011186C072
:10136000B701CE0101960E94530963EB75E0CE01EF
:1013700001960E941B0801E0133011F0111100E0EA
:101380000823CE0101960E94D90687E090E0011162
:101390006DC0B701CE0107960E94530963EB75E05B
:1013A000CE0107960E941B08082FB701CE010196B7
:1013B0000E9453096CEA75E0CE0101960E941B0859
:1013C00091E0123009F090E0082B0923CE0101963C
:1013D0000E94D906CE0107960E94D90689E090E0C6
:1013E000011144C0B701CE0101960E9453096CEA75
:1013F00075E0CE0101960E941B0801E0123008F052
:1014000000E00823CE0101960E94D9068AE090E010
:1014100001112CC0B701CE0107960E9453096AEB57
:1014200075E0CE0107960E941B08082FB701CE0178
:1014300001960E9453096CEA75E0CE0101960E9464
:101440001B08802B91E0133009F090E0182F19232E
:10145000CE0101960E94D906CE0107960E94D906B8
:101460008CE090E0111102C081E090E09093500474
:1014700080934F040E949604609343047093440445
:1014800080934504909346042C960FB6F894DEBFE3
:101490000FBECDBFDF91CF911F910F91FF90EF90C5
:1014A0000895FC0111821082138212821582148227
:1014B000FB0101900020E9F73197AF01461B570B64
:1014C0000C941109EF92FF920F931F93CF93DF9328
:1014D00000D000D0CDB7DEB78C018091AA059091E5
:1014E000AB05892B39F0E090A205F090A305E1143B
:1014F000F10499F46BEC72E0C8010E94510AC80132
:1015000026960FB6F894DEBF0FBECDBFDF91CF9108
:101510001F910F91FF90EF900895F70186819781B9
:101520009093A3058093A205B701CE0101960E9476
:101530005309F70117821682C7010E94D906C70115
:101540000E94DB198091A2059091A305892B21F4BB
:101550001092A5051092A4058091AA059091AB0563
:1015600001979093AB058093AA05F8011182108230
:101570001382128215821482BE016F5F7F4FC801F1
:101580000E944708CE0101960E94D906B8CFAF92BB
:10159000BF92CF92DF92EF92FF920F931F93CF9360
:1015A000DF936C015B017A0189012417350720F470
:1015B0008F2D7901042F182F6BEC72E0C6010E9469
:1015C000510AD5011496CD91DC91EC16FD06E0F49C
:1015D0000C171D0708F4E801D501ED91FC91119756
:1015E000EC0FFD1F108110826D917C916E0D7F1D9F
:1015F000C60161157105A1F00E943209F5018081D3
:101600009181C80FD91F1883C601DF91CF911F9117
:101610000F91FF90EF90DF90CF90BF90AF90089523
:101620000E94C706EBCFCF93DF93CDB7DEB72C97E1
:101630000FB6F894DEBF0FBECDBF6091A2057091CA
:10164000A30561157105B1F18091AA059091AB05D3
:10165000892BD1F46BEC72E0CE0107960E94510AFF
:10166000BE01695F7F4F80E995E00E944708CE0187
:1016700007960E94D9062C960FB6F894DEBF0FBECF
:10168000CDBFDF91CF910895CE0101960E945309FD
:1016900018861F821A8619861C861B86BE016F5FFC
:1016A0007F4FCE0107960E944708CE0101960E9407
:1016B000D906D6CF6BEC72E080E995E00E94320942
:1016C000DACF0F931F93CF93DF93CDB7DEB76E972B
:1016D0000FB6F894DEBF0FBECDBF68ED72E0CE014D
:1016E00001960E94510A66E975E0CE0101960E94BA
:1016F000EA088C016FE30E94FD08811103C0C80154
:101700000E94C706B801CE0149960E945309CE0136
:1017100001960E94D906BE01675E7F4F82E594E084
:101720000E944102BE01675E7F4F83EF94E00E94FA
:10173000410289EC92E00E94270768EC70E080E0AB
:1017400090E00E9464046BEC72E0CE0143960E942C
:10175000510A80912104811109C06BEC72E08BE188
:1017600094E00E94510A81E08093210411E082E517
:1017700094E00E94790218161906CCF582E594E0EF
:101780000E9457028D3211F410931A0480911A04AA
:10179000882369F36BEC72E0CE0101960E94510A36
:1017A0000E94A20497FD09C08B33910531F0682F88
:1017B000CE0101960E94FD08F3CFBE016F5F7F4FFF
:1017C0008BE194E00E944708CE0101960E94D90661
:1017D0006BE174E0CE0143960E943C096BEC72E031
:1017E0008BE194E00E94320910921A04C0CFBE012E
:1017F0006D5E7F4F83EF94E00E94410289EC92E09E
:101800000E9427076DE786E995E00E94D2078C01C8
:101810006BED72E0CE0107960E94510ACE01079649
:101820000E94B60798012F5F3F4FAC0166E975E053
:10183000CE0101960E94C70A61E2CE0143960E9442
:10184000D2078C016DE2CE0143960E94D207AC0113
:101850004F5F5F4F9801BE016D5E7F4FCE010D96C9
:101860000E94C70ABE016F5F7F4FCE010D960E9496
:10187000EB07882339F011E08091AA059091AB0520
:10188000029708F010E0CE010D960E94D906CE0115
:1018900001960E94D906CE0107960E94D906CE0174
:1018A00043960E94D906CE0149960E94D90611118D
:1018B00068C00E94960428EE33E040E050E00E94A9
:1018C0007B1ACA01B9014AE00E9434078EED92E00A
:1018D0000E94270760E975E083EF94E00E944102CF
:1018E00085EE92E00E9427078091A2059091A305C2
:1018F000892B51F1CE0101960E94620ACE01019618
:101900000E94D9068DEE92E00E94A8078091AA0558
:101910009091AB05892B39F06091A2057091A305D8
:1019200061157105C9F56BEC72E0CE0107960E9456
:10193000510ABE01695F7F4F83EF94E00E9441022C
:10194000CE0107960E94D90689EF92E00E94A8076F
:101950006091AA057091AB0590E080E04AE00E949A
:1019600034078AE093E00E94A80780914F04909189
:1019700050040E94780788E093E00E94A8070E9424
:10198000130B6E960FB6F894DEBF0FBECDBFDF917E
:10199000CF911F910F910895CE0101960E94530996
:1019A00018861F821A8619861C861B86BE016F5FE9
:1019B0007F4FCE0107960E944708CE0101960E94F4
:1019C000D906B7CF1F920F920FB60F9211240BB604
:1019D0000F922F933F934F935F936F937F938F93C8
:1019E0009F93AF93BF93EF93FF9382E594E00E94A0
:1019F0009902FF91EF91BF91AF919F918F917F914C
:101A00006F915F914F913F912F910F900BBE0F906F
:101A10000FBE0F901F9018951F920F920FB60F9246
:101A200011240BB60F922F938F939F93EF93FF93F5
:101A3000E0916204F09163048081E0916804F09188
:101A4000690482FD1DC0908180916B048F5F8F734C
:101A500020916C04821741F0E0916B04F0E0EE5AA3
:101A6000FB4F958F80936B04FF91EF919F918F9126
:101A70002F910F900BBE0F900FBE0F901F901895D7
:101A80008081F2CF1F920F920FB60F9211240BB6E6
:101A90000F922F933F934F935F936F937F938F9307
:101AA0009F93AF93BF93EF93FF9383EF94E00E94D4
:101AB0009902FF91EF91BF91AF919F918F917F918B
:101AC0006F915F914F913F912F910F900BBE0F90AF
:101AD0000FBE0F901F9018951F920F920FB60F9286
:101AE00011240BB60F922F938F939F93EF93FF9335
:101AF000E0910305F09104058081E0910905F091E2
:101B00000A0582FD1DC0908180910C058F5F8F7347
:101B100020910D05821741F0E0910C05F0E0ED50A9
:101B2000FB4F958F80930C05FF91EF919F918F91C3
:101B30002F910F900BBE0F900FBE0F901F90189516
:101B40008081F2CF1F920F920FB60F9211242F9324
:101B50003F938F939F93AF93BF9380912C04909169
:101B60002D04A0912E04B0912F0430912B0423E07A
:101B7000230F2D3758F50196A11DB11D20932B047D
:101B800080932C0490932D04A0932E04B0932F04E3
:101B90008091300490913104A0913204B0913304CB
:101BA0000196A11DB11D8093300490933104A09340
:101BB0003204B0933304BF91AF919F918F913F91C5
:101BC0002F910F900FBE0F901F90189526E8230FAE
:101BD0000296A11DB11DD2CF1F920F920FB60F9288
:101BE00011240F900FBE0F901F901895CF93DF9385
:101BF000EB0188819981ABEEB5E011969C938E93B1
:101C00002A813B810697EC01E881F981E551FA4F81
:101C10003183208312961D921D921D921C9215975E
:101C200081E290E09483838381EF95E0948B838BB2
:101C30001582158ADF91CF910895CF93DF93CBEE74
:101C4000D5E081E290E09C8F8B8F1D8E1E8E1F8EC3
:101C500086E090E0A0E0B0E088A399A3AAA3BBA38C
:101C60001CA21DA21EA21FA282E392E0998F888F60
:101C700080E288A71AA619A681EF95E09CA78BA7FA
:101C80001DA6AC0160E872E0CE010E94F60D8CE862
:101C900092E09983888386E992E0998F888F1A86EB
:101CA00019861C861B861E861D86188A1F861A8A20
:101CB000198A1C8A1B8A8AE392E09F838E8383EFB2
:101CC00094E09F8B8E8B88E08D8BDF91CF91089570
:101CD000DB018D919C9111979093C2058093C10572
:101CE00012962D913C910697DC01ED91FC91EF53FA
:101CF000FA4F3183208381E290E09483838383ECE5
:101D000095E0948B838B1582158A0895CF93DF938A
:101D1000C1ECD5E081E290E0988F8F8B198E1A8EFE
:101D20001B8E86E090E0A0E0B0E08C8F9D8FAE8FA0
:101D3000BF8F18A219A21AA21BA282E392E09D8B68
:101D40008C8B80E28CA31EA21DA283EC95E098A749
:101D50008FA319A6AC016CE972E0CE010E94680E57
:101D600088EA92E09983888382EB92E09D8B8C8B4A
:101D70001E821D8218861F821A8619861C861B8663
:101D80001E861D86188A1F868AE392E09B838A83BB
:101D900083EF94E09B8B8A8B80E1898BDF91CF91DD
:101DA00008950F931F93CF93DF93CDB7DEB761975D
:101DB0000FB6F894DEBF0FBECDBF8C01CB01F8018A
:101DC00011821082138212821582148250E0BE01A9
:101DD0006F5F7F4F0E94B318BE016F5F7F4FC801D6
:101DE0000E94320961960FB6F894DEBF0FBECDBFD8
:101DF000DF91CF911F910F910895CF92DF92EF92D3
:101E0000FF920F931F93CF93DF93CDB7DEB76E97FB
:101E10000FB6F894DEBF0FBECDBF8C017B016A0107
:101E200040E1B901CE0101960E94D10E40E1B60118
:101E3000CE0107960E94D10E4AE0B701CE0143962B
:101E40000E94D10EBE016D5E7F4FCE010D960E94A5
:101E500053096CEC72E0CE010D960E94D408BE01CD
:101E6000695F7F4F0E94EA086FEC72E00E94D4081D
:101E7000BE016F5F7F4F0E94EA0862ED72E00E9430
:101E8000D408BC01CE0149960E945309CE010D969B
:101E90000E94D906CE0143960E94D906CE0107962C
:101EA0000E94D906CE0101960E94D906BE01675E46
:101EB0007F4FCE0101960E94530965ED72E0CE017D
:101EC00001960E94D408BC01C8010E945309CE01AA
:101ED00001960E94D906CE0149960E94D906C801F2
:101EE0006E960FB6F894DEBF0FBECDBFDF91CF91D7
:101EF0001F910F91FF90EF90DF90CF900895CF92B8
:101F0000DF92EF92FF920F931F93CF93DF93CDB7A2
:101F1000DEB768970FB6F894DEBF0FBECDBF109244
:101F200055041092540448EE53E060E070E0409392
:101F300056045093570460935804709359048BEBE4
:101F400092E0909353048093520425E331E0309360
:101F50005F0420935E0424E331E030936104209316
:101F6000600420E331E0309363042093620421E3B2
:101F700031E0309365042093640422E331E0309330
:101F800067042093660426E331E0309369042093CC
:101F9000680410926B0410926C0410926D041092FD
:101FA0006E041092F6041092F5044093F7045093D7
:101FB000F8046093F9047093FA049093F404809306
:101FC000F30485EC90E0909300058093FF0484EC8B
:101FD00090E0909302058093010580EC90E090934F
:101FE00004058093030581EC90E0909306058093AF
:101FF000050582EC90E0909308058093070586EC38
:1020000090E090930A058093090510920C051092B8
:102010000D0510920E0510920F0563EF74E081EC30
:1020200095E00E94860E63EF74E08BEE95E00E94CF
:102030001D0E1092F2041092F10483EF94E090933D
:10204000F0048093EF0464EF71E08FEC91E00E9464
:10205000D8189093F2048093F10488E090E0909374
:10206000BD058093BC051092BF051092BE0580E3AC
:1020700090E00E943F199093BB058093BA0549EC0C
:10208000E42E42E0F42E10E000E02AE030E048E0E8
:1020900050E067E170E0CE0101966C010E94FD0EF8
:1020A00059ECE52E52E0F52E10E000E02AE030E099
:1020B00049E250E06AE170E0CE0107960E94FD0E11
:1020C00069ECE62E62E0F62E10E000E025E030E05C
:1020D00049E250E068E070E0CE010D960E94FD0EEE
:1020E0008BE090E09093B6058093B50583E090E097
:1020F0009093B8058093B70582E490E00E943F1961
:102100009093B4058093B3058601F12CE12C809166
:10211000B7059091B805E816F90608F4B3C0CE01EA
:102120000D960E94D906CE0107960E94D906CE01CF
:1021300001966C010E94D90689ECE82E82E0F82E07
:1021400010E000E028E030E048E050E060E170E0BE
:10215000C6010E94FD0E99ECE92E92E0F92E10E0E6
:1021600000E028E030E048E050E06CE370E0CE01B1
:1021700007960E94FD0E29ECE22E22E0F22E10E0DE
:1021800000E027E030E049E250E06AE170E0CE0193
:102190000D960E94FD0E39ECE32E32E0F32E10E096
:1021A00000E023E030E048E050E06BE170E0CE0179
:1021B00043960E94FD0E8CE090E09093AF058093D3
:1021C000AE0584E090E09093B1058093B00588E47B
:1021D00090E00E943F199093AD058093AC05860175
:1021E000F12CE12C8091B0059091B105E816F9062B
:1021F00008F45CC0CE0143960E94D906CE010D962C
:102200000E94D906CE0107960E94D906C6010E94F7
:10221000D9061092A3051092A2051092A50510925E
:10222000A4051092AB051092AA058FEF9FEF909333
:10223000A9058093A80583E090E09093A70580937B
:10224000A6056BEC72E08CE995E00E94510A6BECFC
:1022500072E086E995E00E94510A6BEC72E080E939
:1022600095E00E94510A68960FB6F894DEBF0FBE43
:10227000CDBFDF91CF911F910F91FF90EF90DF9035
:10228000CF9008958091B3059091B40598012C19D1
:102290003D09820F931F009719F0B8010E9453095E
:1022A0009FEFE91AF90A0A5F1F4F31CF8091AC0501
:1022B0009091AD0598012C193D09820F931F00974D
:1022C00019F0B8010E9453098FEFE81AF80A0A5F63
:1022D0001F4F88CFCF93DF93CDB7DEB7E0970FB610
:1022E000F894DEBF0FBECDBF789484B5826084BD04
:1022F00084B5816084BD85B5826085BD85B581600A
:1023000085BD80916E00816080936E001092810087
:102310008091810082608093810080918100816042
:102320008093810080918000816080938000809103
:10233000B10084608093B1008091B000816080938F
:10234000B000809191008260809391008091910013
:1023500081608093910080919000816080939000D3
:102360008091A10082608093A1008091A100816092
:102370008093A1008091A00081608093A000809153
:1023800021018260809321018091210181608093ED
:1023900021018091200181608093200180917A0049
:1023A000846080937A0080917A00826080937A00C2
:1023B00080917A00816080937A0080917A008068B1
:1023C00080937A001092C10061E088E10E940E04BF
:1023D00061E087E10E940E0461E086E10E940E0444
:1023E00061E089E10E940E0461E08BE10E940E042D
:1023F00062E08AE10E940E0462E08FE00E940E0417
:1024000061E08EE00E940E04E0910305F091040566
:1024100002E00083E091FF04F09100051082E0915A
:102420000105F09102058FEC808310920B05E0917D
:102430000705F091080516E01083E0910505F0917D
:102440000605808180618083E0910505F091060595
:10245000808188608083E0910505F0910605808188
:1024600080688083E0910505F091060580818F7D6D
:1024700080838EE193E00E94A807E0916204F091CE
:1024800063040083E0915E04F0915F041082E091A8
:102490006004F091610483E3808310926A04E09108
:1024A0006604F09167041083E0916404F091650480
:1024B000808180618083E0916404F0916504808173
:1024C00088608083E0916404F09165048081806875
:1024D0008083E0916404F091650480818F7D808326
:1024E0008AE393E00E94A8070E9496046093430445
:1024F000709344048093450490934604BB24B394A2
:1025000088EEC82E83E0D82EE12CF12C0E94BC036B
:10251000892B09F050C26AE070E080E090E00E94F0
:1025200064040E94BC03892B11F4B09251046AE048
:1025300070E080E090E00E94640480913B0481118F
:1025400008C06BEC72E085E394E00E94510AB092FF
:102550003B0482E594E00E947902181619060CF0FB
:1025600034C282E594E00E945702182F8B3731F471
:1025700084E593E00E94A807B0923404809134046B
:102580008823A9F0612F85E394E00E94FD081D37A0
:1025900071F41092340465E374E086E995E00E94DA
:1025A0003C096BEC72E085E394E00E9432096BEC2D
:1025B00072E0CE018B960E94510A6BEC72E0CE0164
:1025C00085960E94510A6BEC72E0CE014F960E94F4
:1025D000510A6BEC72E0CE0149960E94510A6BECF5
:1025E00072E0CE0143960E94510A6CE975E086E9DB
:1025F00095E00E94EB078111C9C16CEC72E0CE013D
:1026000001960E94510ACE0101960E94B6078C01E4
:102610006BED72E0CE0107960E94510ACE0107963B
:102620000E94B607081B190BCE0107960E94D90617
:10263000CE0101960E94D906101611060CF0A6C113
:102640006CEC72E0CE0107960E94510ACE0107960B
:102650000E94B6078C016BED72E0CE010D960E94D0
:10266000510ACE010D960E94B607AC014E5F5F4F36
:10267000980166E975E0CE0101960E94C70ABE0185
:102680006F5F7F4FCE0185960E944708CE0101966D
:102690000E94D906CE010D960E94D906CE0107965A
:1026A0000E94D9066FEC72E0CE0107960E94510A93
:1026B000CE0107960E94B6078C016CEC72E0CE0149
:1026C0000D960E94510ACE010D960E94B607AC01EC
:1026D0004E5F5F4F980166E975E0CE0101960E945A
:1026E000C70ABE016F5F7F4FCE014F960E94470819
:1026F000CE0101960E94D906CE010D960E94D90600
:10270000CE0107960E94D90662ED72E0CE010796CF
:102710000E94510ACE0107960E94B6078C016FEC09
:1027200072E0CE010D960E94510ACE010D960E94D4
:10273000B607AC014E5F5F4F980166E975E0CE01C8
:1027400001960E94C70ABE016F5F7F4FCE01499676
:102750000E944708CE0101960E94D906CE010D962F
:102760000E94D906CE0107960E94D90663E286E947
:1027700095E00E94D2078C0162ED72E0CE010796CF
:102780000E94510ACE0107960E94B607AC014E5F27
:102790005F4F980166E975E0CE0101960E94C70A75
:1027A000BE016F5F7F4FCE0143960E944708CE0166
:1027B00001960E94D906CE0107960E94D906BE0155
:1027C0006B5D7F4FCE0101960E9453096CEC72E065
:1027D000CE0101960E94D408BE01615E7F4F0E9427
:1027E000EA086FEC72E00E94D408BE01675E7F4F7A
:1027F0000E94EA0862ED72E00E94D408BC01CE019A
:102800008B960E943C09CE0101960E94D90642E0B7
:1028100050E065ED72E0CE018B960E94A808BE01E3
:10282000655D7F4FCE0101960E9453096AEB75E00A
:10283000CE0101960E941B08182FBE01655D7F4FD7
:10284000CE0107960E94530963EB75E0CE0107960F
:102850000E941B08182BBE01655D7F4FCE010D96AF
:102860000E9453096CEA75E0CE010D960E941B0888
:10287000182BCE010D960E94D906CE0107960E9414
:10288000D906CE0101960E94D906112309F47EC013
:10289000BE01655D7F4FCE0101960E9453092091D4
:1028A000AA053091AB058091A6059091A705281740
:1028B000390769F188E090E00E943F198C016BECC8
:1028C00072E00E94510AF801178216820115110563
:1028D000F1F0BE016F5F7F4FC8010E943C0920915B
:1028E000A2053091A3058091AA059091AB05232BF9
:1028F00009F064C01093A3050093A2051093A505E9
:102900000093A40501969093AB058093AA05CE0190
:1029100001960E94D9060E949604A70196010E9482
:102920007B1ACA01B9014AE00E9434078EED92E099
:102930000E942707BE01655D7F4F83EF94E00E94F0
:10294000410283E693E00E94270789EF92E00E940C
:10295000A8076091AA057091AB0590E080E04AE07D
:102960000E9434078AE093E00E94A80780914F04F8
:10297000909150040E94780788E093E00E94A80795
:1029800066E975E08CE995E00E943C09CE0143962A
:102990000E94D906CE0149960E94D906CE014F96D3
:1029A0000E94D906CE0185960E94D906CE018B964B
:1029B0000E94D906CECD10925104B9CDE091A40564
:1029C000F091A5051783068399CF6AE070E080E057
:1029D00090E00E9464040E94130B6AE070E080E0C3
:1029E00090E00E9464046AE070E080E090E00E9461
:1029F000640460E975E0CE0143960E945309E091BA
:102A00004F04F0915004E031F10548F58827E45F68
:102A1000FA4E8F4F0C949D1A1C15BF152A1682165C
:102A2000B416E2160017311748175D178517A5175A
:102A3000BA17DA17F1170D188091A2059091A30526
:102A4000892B49F0CE0101960E94620ACE010196BF
:102A50000E94D906F1CF80915104811105C01092D6
:102A6000500410924F0424C08091B60287708430C5
:102A700009F07CC08EE090E09093500480934F0466
:102A80008BE693E00E94A80787E893E00E94A807DE
:102A900083EA93E00E94A80782EC93E00E94A807D3
:102AA0008FED93E00E94A80788E093E00E94A807BA
:102AB000CE0143960E94D9066AE070E080E090E083
:102AC0000E94640400914F04109150044801F1E009
:102AD0008F1A910861E026E08216910428F0C8015F
:102AE0000C97049708F060E088E10E94E00361E041
:102AF00043E08416910450F0C801069761E08430E9
:102B0000910520F00797039708F060E087E10E94A5
:102B1000E00361E083E08816910428F0C80109977A
:102B2000079708F060E086E10E94E00361E0023070
:102B3000110549F0C801049761E0099720F00F30B2
:102B4000110509F060E089E10E94E00361E0012BDA
:102B500009F060E08BE10E94E0036AE070E080E051
:102B600090E00E9464040E942803D0CC81E090E0B1
:102B70009093500480934F048AEF93E083CF809129
:102B80005104811105C01092500410924F0457C097
:102B9000BE016D5E7F4FCE0101960E9453096AEB24
:102BA00075E0CE0101960E941B08182FBE016D5ED4
:102BB0007F4FCE0107960E94530963EB75E0CE016B
:102BC00007960E941B08182BBE016D5E7F4FCE0139
:102BD0000D960E9453096CEA75E0CE010D960E9495
:102BE0001B08182BCE010D960E94D906CE01079620
:102BF0000E94D906CE0101960E94D906112309F43C
:102C0000EDC182E090E09093500480934F040E94C5
:102C100096046056704F8F4F9F4F60934B04709394
:102C20004C0480934D0490934E040E94960460934C
:102C30004704709348048093490490934A040E9487
:102C400096046093430470934404809345049093E6
:102C500046042ECF0E94960400914B0410914C0420
:102C600020914D0430914E0460177107820793073D
:102C700028F50E9496040091470410914804209181
:102C8000490430914A043B014C01601A710A820ADE
:102C9000930A94018301043F11402105310570F02E
:102CA00060934704709348048093490490934A04C6
:102CB00083E090E09093500480934F040E94960428
:102CC000009143041091440420914504309146043E
:102CD000601B710B820B930B603A7F40810591055D
:102CE00008F4E6CEBE016D5E7F4FCE0101960E94D4
:102CF0005309CE0101960E945C09CE0101960E9403
:102D0000D906D6CE0E94960400914B0410914C0433
:102D100020914D0430914E0460177107820793078C
:102D200068F60E949604009147041091480420918F
:102D3000490430914A043B014C01601A710A820A2D
:102D4000930A94018301043F11402105310508F4E1
:102D5000B5CF6093470470934804809349049093DF
:102D60004A0482E090E0A6CF0E94960400914304BA
:102D7000109144042091450430914604601B710B6E
:102D8000820B930B603576448105910508F490CE53
:102D90000E94610BBE016D5E7F4FCE0101960E94C5
:102DA00053096AEB75E0CE0101960E941B08CE0123
:102DB00001960E94D9068DE090E090935004809394
:102DC0004F043DCF0E9496040091430410914404A7
:102DD0002091450430914604601B710B820B930BCC
:102DE000683273428105910508F462CE0E94610B3E
:102DF0008091B60287708430F1F68EE090E0DDCFEE
:102E00000E949604009143041091440420914504CB
:102E100030914604601B710B820B930B6035764436
:102E20008105910508F444CE0E94610BBE016D5EE0
:102E30007F4FCE0101960E9453096AEB75E0CE01E7
:102E400001960E941B08CE0101960E94D906BE0180
:102E50006D5E7F4FCE0101960E94530963EB75E0D2
:102E6000A2CF0E9496040091430410914404209143
:102E7000450430914604601B710B820B930B603E3E
:102E80007E428105910508F413CE0E94610BDFCFCD
:102E90000E9496040091430410914404209145043B
:102EA00030914604601B710B820B930B68357B419C
:102EB0008105910508F4FCCD99CF0E9496040091FC
:102EC0004304109144042091450430914604601B52
:102ED000710B820B930B603576448105910508F4E4
:102EE000E7CD0E94610BBE016D5E7F4FCE01019662
:102EF0000E94530963EB75E0CE0101960E941B0806
:102F0000CE0101960E94D90616C00E949604009137
:102F10004304109144042091450430914604601B01
:102F2000710B820B930B603576448105910508F493
:102F3000BFCD0E94610BBE016D5E7F4FCE01019639
:102F40000E9453096CEA75E02ECF0E94960400910E
:102F50004304109144042091450430914604601BC1
:102F6000710B820B930B683273428105910508F453
:102F70009FCD3CCF0E9496040091430410914404DD
:102F80002091450430914604601B710B820B930B1A
:102F9000603576448105910508F48ACD0E94610B65
:102FA000BE016D5E7F4FCE0101960E9453096AEB10
:102FB00075E0A2CF0E94960400914304109144044E
:102FC0002091450430914604601B710B820B930BDA
:102FD000603375478105910508F46ACD81E090E082
:102FE000ECCE0E9496040091430410914404209179
:102FF000450430914604601B710B820B930B683BB8
:1030000078488105910508F453CD809151048823B7
:1030100009F4B9CD8FE090E0D0CE0E9496040091E3
:103020004304109144042091450430914604601BF0
:10303000710B820B930B683A71468105910508F478
:1030400037CD0E94610BBE016D5E7F4FCE010196B0
:103050000E9453096AEB75E0CE0101960E941B089D
:10306000CE0101960E94D906BE016D5E7F4FCE0152
:1030700001960E94530963EB75E0CE0101960E9410
:103080001B08CE0101960E94D906BE016D5E7F4FDE
:10309000CE0101960E9453096CEA75E0CE010196BB
:1030A0000E941B08CE0101960E94D906A6CEEF927F
:1030B000FF920F931F93CF93DF937C01D0E0C0E08A
:1030C00010E000E0F70180819181248135810217B1
:1030D000130740F48C0F9D1F0E94D9060F5F1F4FEE
:1030E0002696F0CFDF91CF911F910F91FF90EF9037
:1030F0000C94DB19CF93DF9380E995E00E94D90609
:1031000086E995E00E94D9068CE995E00E94D906EF
:10311000C091A205D091A305209779F08E819F815F
:103120009093A3058093A2051F821E82CE010E9468
:10313000D906CE010E94DB19EBCF8CEA95E00E9404
:10314000571883EB95E00E9457188AEB95E00E9490
:1031500057188BEE95E00E94670681EC95E0DF91B1
:10316000CF910C94AF064532510520F4423010F057
:103170000C94BE18FB011082CB010895BB27FB0104
:103180005527AA27880F991FAA1FA41710F0A41B60
:1031900083955051B9F7A05DAA3308F0A95DA193BA
:1031A000009779F7B111B1931192CB010C946B1A7E
:1031B0000F931F93CF93DF93009759F46115710517
:1031C00041F4F0E0E0E0CF01DF91CF911F910F914A
:1031D00008958B01EC016EE070E081E090E00E94C8
:1031E0002319FC01892B69F380E8838301151105FC
:1031F00071F01387028781E883838091190690918B
:103200001A06892B21F4F0931A06E09319062097E9
:10321000D1F2D187C08783818260838380911B062E
:1032200090911C06892B79F6F0931C06E0931B06FF
:1032300080911D0690911E06892B29F6F0931E069B
:10324000E0931D06C0CF0F931F93CF93DF93869F0C
:103250008001879F100D969F100D1124C8010E94B8
:103260003F19EC01009729F0A80170E060E00E948E
:10327000641ACE01DF91CF911F910F9108950F93A2
:103280001F93CF93DF938230910510F482E090E09A
:10329000E0912106F091220630E020E0B0E0A0E0CD
:1032A000309799F42115310509F44AC0281B390BD0
:1032B00024303105D8F58A819B816115710589F12A
:1032C000FB0193838283FE0111C040815181028101
:1032D000138148175907E0F04817590799F41097D8
:1032E00061F012960C93129713961C933296CF01AD
:1032F000DF91CF911F910F910895009321061093B4
:103300002206F4CF2115310551F04217530738F04A
:10331000A901DB019A01BD01DF01F801C1CFEF0175
:10332000F9CF9093220680932106CDCFFE01E20FC4
:10333000F31F819391932250310939832883D7CF8A
:1033400020911F0630912006232B41F42091020288
:10335000309103023093200620931F062091000233
:10336000309101022115310541F42DB73EB740914E
:10337000040250910502241B350BE0911F06F091C9
:103380002006E217F307A0F42E1B3F0B281739077E
:1033900078F0AC014E5F5F4F2417350748F04E0FB1
:1033A0005F1F5093200640931F06819391939FCFF8
:1033B000F0E0E0E09CCFCF93DF930097E9F0FC01D1
:1033C000329713821282A0912106B0912206ED015C
:1033D00030E020E01097A1F420813181820F931F0B
:1033E00020911F06309120062817390709F061C087
:1033F000F0932006E0931F06DF91CF910895EA0134
:10340000CE17DF07E8F54A815B819E014115510522
:10341000B1F7E901FB83EA8349915991C40FD51FA4
:10342000EC17FD0761F4808191810296840F951F4E
:10343000E90199838883828193819B838A83F0E069
:10344000E0E012968D919C9113970097B9F52D911C
:103450003C911197CD010296820F931F20911F0678
:10346000309120062817390739F6309751F5109218
:10347000220610922106B0932006A0931F06BCCF0F
:10348000D383C28340815181840F951FC817D90708
:1034900061F44E5F5F4F88819981480F591F5183B6
:1034A00040838A819B81938382832115310509F0B2
:1034B000B0CFF0932206E09321069ECFFD01DC0100
:1034C000C0CF13821282D7CFDC0101C06D9341506F
:1034D0005040E0F70895DC01FC01672F71917723DC
:1034E000E1F7329704C07C916D9370836291AE17BF
:1034F000BF07C8F30895A1E21A2EAA1BBB1BFD014A
:103500000DC0AA1FBB1FEE1FFF1FA217B307E407C2
:10351000F50720F0A21BB30BE40BF50B661F771F1A
:10352000881F991F1A9469F76095709580959095FA
:103530009B01AC01BD01CF010895EE0FFF1F881F55
:103540008BBF0790F691E02D19944F925F926F9286
:103550007F928F929F92AF92BF92CF92DF92EF9223
:10356000FF920F931F93CF93DF938C01009799F4F1
:10357000CB01DF91CF911F910F91FF90EF90DF90E2
:10358000CF90BF90AF909F908F907F906F905F9003
:103590004F900C943F19FC01E60FF71F9C0122503D
:1035A0003109E217F30708F4AEC0D901CD91DC91DF
:1035B0001197C617D70720F1C530D10578F0CE0195
:1035C00004978617970750F0C61BD70B2297C19315
:1035D000D1936D937C93CF010E94DB19C801DF91D9
:1035E000CF911F910F91FF90EF90DF90CF90BF9000
:1035F000AF909F908F907F906F905F904F900895C5
:103600005B01AC1ABD0A4C018C0E9D1EA0912106D7
:10361000B0912206512C412CF12CE12C109731F560
:1036200080911F06909120068815990509F05CC0CD
:103630004616570608F058C080910002909101028A
:10364000009741F48DB79EB7409104025091050256
:10365000841B950BE817F90708F055C0F093200676
:10366000E0931F06F90171836083B8CF8D919C911F
:10367000119712966C90129713967C901397A81539
:10368000B90559F56C0142E0C40ED11CCA14DB0423
:1036900020F1AC014A195B09DA011296159780F006
:1036A0006282738251834083D9016D937C93E114CC
:1036B000F10471F0D7011396FC93EE9312978ECF1D
:1036C00022968C0F9D1FF90191838083F301EFCF28
:1036D000F0932206E093210681CF4816590608F49C
:1036E0002C017D01D3019ACFCB010E943F197C01AF
:1036F000009749F0AE01B8010E94861BC8010E94E4
:10370000DB1987016BCF10E000E068CFFB01DC0123
:1037100002C001900D9241505040D8F70895FC012D
:103720008191861721F08823D9F799270895319739
:10373000CF010895FB01DC018D91019080190110EA
:10374000D9F3990B0895FB01DC0101900D92002043
:10375000E1F70895FB0151915523A9F0BF01DC0168
:103760004D9145174111E1F759F4CD010190002029
:1037700049F04D9140154111C9F3FB014111EFCFC3
:1037800081E090E00197089511E0CBE9D1E000E0FD
:1037900006C0802FFE010E949D1A2196011DCC3982
:1037A000D10780E00807A9F7F894FFCF00002306AF
:1037B000800018000000000000000000E8FFE8FFA3
:1037C00000000000000014000000000000000000E5
:1037D000ECFFECFF00000000000000000000C60647
:1037E0002507000000007E061707350632062F0663
:1037F0002C064E052106E605CD05B405D404750555
:10380000510502000000000091061907FEFFFEFFAF
:1038100000007F061B0706000000000049060B079A
:10382000FAFFFAFF000037060D078C020C021602A1
:1038300096021800000000006706F506E8FFE8FFA2
:1038400000007406FF06A80220022A02B202140039
:1038500000000000AF06E106ECFFECFF0000BC0634
:10386000EB060200000000BB0214024802080379C4
:103870000257026B020D0A003C3C003E3E005E5EB9
:1038800000230A002B2B007B7B002073202D3E2081
:1038900000205345525645440057616974696E676C
:1038A00020697320004C696E657320696E20717504
:1038B0006575653A200043757272656E7420737485
:1038C0006174652069733A20530041726475696EB2
:1038D0006F20776974682048432D30362069732043
:1038E000726561647900425473657269616C20731A
:1038F0007461727465642061742033383430300030
:103900005374617274206F66206672616D65002069
:103910005055534845440043757272656E74206D6E
:103920006F6465206973207B203C2C205E2C203E38
:10393000207D004C65667420706861736520657831
:1039400074656E73696F6E206973206F66660046DA
:103950006F72776172642070686173652065787436
:10396000656E73696F6E206973206F6666005269B9
:1039700067687420706861736520657874656E731C
:10398000696F6E206973206F6666004465766961B1
:1039900074696F6E7320617265206E6F7420686148
:1039A0006E646C65640043757272656E74206D6F31
:1039B0006465206973207B205E2C203E207D207B67
:0639C000203C207D000008
:10E000000D9489F10D94B2F10D94B2F10D94B2F129
:10E010000D94B2F10D94B2F10D94B2F10D94B2F1F0
:10E020000D94B2F10D94B2F10D94B2F10D94B2F1E0
:10E030000D94B2F10D94B2F10D94B2F10D94B2F1D0
:10E040000D94B2F10D94B2F10D94B2F10D94B2F1C0
:10E050000D94B2F10D94B2F10D94B2F10D94B2F1B0
:10E060000D94B2F10D94B2F10D94B2F10D94B2F1A0
:10E070000D94B2F10D94B2F10D94B2F10D94B2F190
:10E080000D94B2F10D94B2F10D94B2F10D94B2F180
:10E090000D94B2F10D94B2F10D94B2F10D94B2F170
:10E0A0000D94B2F10D94B2F10D94B2F10D94B2F160
:10E0B0000D94B2F10D94B2F10D94B2F10D94B2F150
:10E0C0000D94B2F10D94B2F10D94B2F10D94B2F140
:10E0D0000D94B2F10D94B2F10D94B2F10D94B2F130
:10E0E0000D94B2F141546D656761323536300041AF
:10E0F000726475696E6F206578706C6F72657220DE
:10E1000073746B3530305632206279204D4C530099
:10E11000426F6F746C6F616465723E004875683F52
:10E1200000436F6D70696C6564206F6E203D200048
:10E130004350552054797065202020203D20005FF9
:10E140005F4156525F415243485F5F3D2000415658
:10E1500052204C696243205665723D20004743437C
:10E160002056657273696F6E203D20004350552024
:10E1700049442020202020203D20004C6F7720663D
:10E18000757365202020203D20004869676820665F
:10E190007573652020203D200045787420667573D6
:10E1A00065202020203D20004C6F636B2066757336
:10E1B000652020203D20004D617220203720323024
:10E1C000313300312E362E3800342E332E350056A2
:10E1D00023202020414444522020206F7020636F70
:10E1E00064652020202020696E73747275637469E1
:10E1F0006F6E2061646472202020496E74657272B3
:10E20000757074006E6F20766563746F7200726A49
:10E210006D702020006A6D70200057686174207056
:10E220006F72743A00506F7274206E6F7420737541
:10E2300070706F72746564004D7573742062652030
:10E2400061206C6574746572002000577269747483
:10E25000696E672045450052656164696E672045B7
:10E26000450045452065727220636E743D00504F35
:10E27000525400303D5A65726F2061646472003FF1
:10E280003D43505520737461747300403D454550C3
:10E29000524F4D207465737400423D426C696E6B41
:10E2A000204C454400453D44756D70204545505215
:10E2B0004F4D00463D44756D7020464C415348001B
:10E2C000483D48656C70004C3D4C69737420492F83
:10E2D0004F20506F72747300513D51756974005234
:10E2E0003D44756D702052414D00563D73686F7707
:10E2F00020696E7465727275707420566563746FF0
:10E30000727300593D506F727420626C696E6B00BD
:10E310002A0011241FBECFEFD1E2DEBFCDBF01E046
:10E320000CBF12E0A0E0B2E0EEE1FDEF03E00BBFB6
:10E3300002C007900D92A030B107D9F712E0A0E01B
:10E34000B2E001C01D92AE30B107E1F70F9460F367
:10E350000D948DFE01E20EBF0FEF0DBF11241FBE05
:10E360000D9460F30D9400F020E030E040ED57E0B4
:10E3700005C0FA013197F1F72F5F3F4F2817390792
:10E38000C0F308959C01260F311DC901A0E0B0E043
:10E390002F5F3F4FABBFFC018791882361F08093D3
:10E3A000C6008091C00086FFFCCF8091C0008064D1
:10E3B0008093C000EACF08958DE08093C6008091DD
:10E3C000C00086FFFCCF8091C00080648093C000B5
:10E3D0008AE08093C6008091C00086FFFCCF8091C8
:10E3E000C00080648093C00008950F94C2F10F9420
:10E3F000DCF10895FC019081992359F09093C600B7
:10E400008091C00086FFFCCF8091C0008064809323
:10E41000C0003196992379F70895282F982F929567
:10E420009F70892F805D8A3308F0895F8093C600D2
:10E430008091C00086FFFCCF8091C00080648093F3
:10E44000C000822F8F70982F905D9A3308F0995FEB
:10E450009093C6008091C00086FFFCCF8091C000E1
:10E4600080648093C00008959C01FB01853691056E
:10E470001CF46330710594F0C90164E670E00F94F8
:10E480002EFE605D7F4F6093C6008091C00086FFC6
:10E49000FCCF8091C00080648093C0002B30310598
:10E4A00014F43297B4F0C90164E670E00F942EFEC4
:10E4B0006AE070E00F942EFE605D7F4F6093C600AF
:10E4C0008091C00086FFFCCF8091C0008064809363
:10E4D000C000C9016AE070E00F942EFEC0968093E0
:10E4E000C6008091C00086FFFCCF8091C000806490
:10E4F0008093C00008951F93182F8EE692EE60E07F
:10E500000F94C2F11093C6008091C00086FFFCCF2B
:10E510008091C00080648093C0000F94DCF11F9153
:10E5200008952F923F924F925F926F927F928F92B7
:10E530009F92AF92BF92CF92DF92EF92FF920F9392
:10E540001F93DF93CF93CDB7DEB762970FB6F894E2
:10E55000DEBF0FBECDBF382E622ECA01DB015C01CB
:10E560006D01772420E2222E2E010894411C511CBB
:10E570008BC081E0A81680E0B80681E0C80680E084
:10E58000D80628F0C601AA27BB270F940DF2BB2797
:10E59000AD2D9C2D8B2D0F940DF28A2D0F940DF225
:10E5A0002092C6008091C00086FFFCCF8091C00001
:10E5B00080648093C0009DE29093C6008091C0006B
:10E5C00086FFFCCF8091C00080648093C0002092C1
:10E5D000C6008091C00086FFFCCF8091C00080649F
:10E5E0008093C00019828601750188249924A1E0D6
:10E5F0003A1651F03A1620F0B2E03B1661F409C029
:10E600000BBFF701779007C0C7010F9477FE782EF4
:10E6100002C0F7017080872D0F940DF22092C60082
:10E620008091C00086FFFCCF8091C0008064809301
:10E63000C000872D8052F401EF70F0708F3520F408
:10E64000E40DF51D708204C0E40DF51D8EE280839B
:10E650000894E11CF11C011D111D0894811C911CE2
:10E6600090E18916910409F0C2CF80E190E0A0E02A
:10E67000B0E0A80EB91ECA1EDB1E198AC2010F9493
:10E68000FAF10F94DCF16A94662009F072CF629679
:10E690000FB6F894DEBF0FBECDBFCF91DF911F91B3
:10E6A0000F91FF90EF90DF90CF90BF90AF909F9031
:10E6B0008F907F906F905F904F903F902F90089534
:10E6C0002F923F924F925F926F927F928F929F9282
:10E6D000AF92BF92CF92DF92EF92FF920F931F9370
:10E6E000DF93CF93CDB7DEB7CD53D1400FB6F894BB
:10E6F000DEBF0FBECDBF01E20EBF0FEF0DBF94B75F
:10E70000F894A89514BE80916000886180936000A1
:10E7100010926000789493FF05C0E0910002F091A0
:10E7200001021995279A2F9A8091C00082608093E8
:10E73000C00080E18093C40088E18093C1000000A4
:10E74000EE24FF24870144E0A42EB12CCC24DD2448
:10E7500024C0C5010197F1F70894E11CF11C011DCB
:10E76000111D21E2E2162EE4F20620E0020720E06D
:10E77000120718F031E0C32ED12CC801B70127ECE5
:10E780003BE140E050E00F9441FE611571058105C9
:10E79000910519F485B1805885B98091C00087FD35
:10E7A00003C0C114D104A9F2A6014F5F5F4FC25E3E
:10E7B000DE4F59834883CE51D140C25EDE4F8881FF
:10E7C0009981CE51D140019711F00D9410FEC05D9A
:10E7D000DE4F19821882C053D14060E0C15DDE4F28
:10E7E0001882CF52D14088249924C35DDE4F19820C
:10E7F0001882CD52D140C05EDE4F188219821A8233
:10E800001B82C052D140CE5CDE4F188219821A8220
:10E810001B82C253D140EE24FF2487010BBFF701B6
:10E8200007911691C45CDE4F19830883CC53D14005
:10E830000D940BFEC25EDE4F28813981CE51D1404E
:10E840002130310509F52091C600C25EDE4F1982E4
:10E850001882CE51D14022C02F5F3F4F4F4F5F4FA4
:10E86000213082E138078AE7480780E0580780F0C6
:10E87000C45CDE4FE881F981CC53D140EF5FFF4F9C
:10E8800019F0EE27FF27099420E030E040E050E047
:10E890008091C00087FFE0CF2091C600C35DDE4FAE
:10E8A00048815981CD52D1404F5F5F4FC35DDE4FEC
:10E8B00059834883CD52D140213209F063C64A3092
:10E8C000510508F05FC60894811C911C53E0851621
:10E8D000910409F059C600E010E018C081E280936D
:10E8E000C6008091C00086FFFCCF8091C00080648C
:10E8F0008093C0002F5F3F4F2931310579F70F9486
:10E90000DCF10F5F1F4F0530110519F020E030E0FA
:10E91000E5CF10920A0210920B0210920C02109294
:10E920000D02109206021092070210920802109235
:10E930000902109202021092030210920402109235
:10E9400005028FEE90EE60E00F94F5F180E191EE1C
:10E9500060E00F94C2F18091C00087FFFCCF9091DE
:10E96000C600903608F09F759032B8F09093C600BC
:10E970008091C00086FFFCCF8091C00080648093AE
:10E98000C000A0E2A093C6008091C00086FFFCCF2B
:10E990008091C00080648093C000983409F4D7C18E
:10E9A0009934B8F4923409F459C1933458F490333B
:10E9B00019F1903308F4E3C59F33A1F1903409F0C5
:10E9C000DEC5BDC0953409F470C1963409F0D7C5D1
:10E9D00098C1923509F42BC2933538F49C3409F46C
:10E9E000F5C1913509F0CBC518C2963509F445C279
:10E9F000993509F0C4C567C483E792EE62E00F94CD
:10EA0000F5F110920602109207021092080210927D
:10EA1000090210920A0210920B0210920C0210923C
:10EA20000D0213C18FE792EE62E00F94F5F18FEEC5
:10EA300090EE60E00F94F5F181E291EE60E00F94CA
:10EA4000C2F187EB91EE60E00F94F5F180E391EE77
:10EA500060E00F94C2F184EE90EE60E00F94F5F167
:10EA60008FE391EE60E00F94C2F186E090E061E008
:10EA700070E00F9434F20F94DCF18DE591EE60E0DC
:10EA80000F94C2F189EC91EE60E00F94F5F18EE401
:10EA900091EE60E00F94C2F183EC91EE60E00F9490
:10EAA000F5F18CE691EE60E00F94C2F18EE10F94E7
:10EAB0000DF288E90F940DF281E00F940DF20F949E
:10EAC000DCF18BE791EE60E00F94C2F119E0E0E039
:10EAD000F0E010935700E4918E2F0F940DF20F94F5
:10EAE000DCF18AE891EE60E00F94C2F1E3E0F0E03F
:10EAF00010935700E4918E2F0F940DF20F94DCF1D8
:10EB000089E991EE60E00F94C2F1E2E0F0E0109349
:10EB10005700E4918E2F0F940DF20F94DCF188EAE8
:10EB200091EE60E00F94C2F1E1E0F0E01093570045
:10EB30001491812F0F940DF20F94DCF107CF8BE825
:10EB400092EE62E00F94F5F18BE492EE60E00F94A8
:10EB5000F5F10F94DCF100E010E019C0C8016F2D51
:10EB60000F947FFEFF2031F489E492EE60E00F9471
:10EB7000C2F10BC0F092C6008091C00086FFFCCFAE
:10EB80008091C00080648093C0000F5F1F4FC80158
:10EB900081519F41A0E0B0E0ABBFFC01F790BAE229
:10EBA000FB1621F0E2E000301E07C1F60F94DCF105
:10EBB0000F94DCF187E592EE60E00F94F5F10F948D
:10EBC000DCF1CC24DD2400E010E01EC0C8010F946D
:10EBD00077FEF82E882331F489E492EE60E00F94FA
:10EBE000C2F10BC08093C6008091C00086FFFCCFAD
:10EBF0008091C00080648093C000FE1419F00894D6
:10EC0000C11CD11C0F5F1F4FC80181519F41A0E063
:10EC1000B0E0ABBFFC01E790FAE2EF1621F022E092
:10EC20000030120799F60F94DCF10F94DCF182E6C4
:10EC300092EE60E00F94C2F1C60161E070E00F94C3
:10EC400034F20F94DCF10F94DCF110920202109276
:10EC50000302109204021092050278CE89E992EE26
:10EC600062E00F94F5F1279A2F9A16C02F9880E052
:10EC700090E0E0EDF7E03197F1F7019684369105E9
:10EC8000C1F72F9A80E090E0E0EDF7E03197F1F7DF
:10EC9000019684369105C1F78091C00087FFE6CFC9
:10ECA0008091C00087FFFCCF64C485EA92EE62E0E9
:10ECB0000F94F5F140910202509103026091040219
:10ECC0007091050281E020E10F9491F2809102029F
:10ECD00090910302A0910402B091050280509F4FD1
:10ECE000AF4FBF4F8093020290930302A0930402A0
:10ECF000B093050280509041A040B04008F426CE69
:10ED0000A4CF83EB92EE62E00F94F5F140910602FE
:10ED100050910702609108027091090280E020E1A1
:10ED20000F9491F28091060290910702A09108023F
:10ED3000B091090280509F4FAF4FBF4F80930602A2
:10ED400090930702A0930802B0930902FFCD80ECD4
:10ED500092EE62E00F94F5F183E792EE60E00F949B
:10ED6000F5F18FE792EE60E00F94F5F18BE892EE0B
:10ED700060E00F94F5F189E992EE60E00F94F5F10F
:10ED800085EA92EE60E00F94F5F183EB92EE60E09D
:10ED90000F94F5F180EC92EE60E00F94F5F187ECC2
:10EDA00092EE60E00F94F5F188ED92EE60E00F9442
:10EDB000F5F18FED92EE60E00F94F5F18AEE92EEB0
:10EDC00060E00F94F5F183E093EEBDCD87EC92EE19
:10EDD00062E00F94F5F181E40F947BF282E40F94EA
:10EDE0007BF283E40F947BF284E40F947BF285E45E
:10EDF0000F947BF286E40F947BF287E40F947BF20E
:10EE000088E40F947BF28AE40F947BF28BE40F94F6
:10EE10007BF28CE40F947BF299CD88ED92EE62E068
:10EE20000F94F5F1772473948824992409C48FED05
:10EE300092EE62E00F94F5F140910A0250910B02BC
:10EE400060910C0270910D0282E020E10F9491F22A
:10EE500080910A0290910B02A0910C02B0910D02D8
:10EE600080509F4FAF4FBF4F80930A0290930B0289
:10EE7000A0930C02B0930D0269CD8AEE92EE62E08F
:10EE80000F94F5F184EE90EE60E00F94F5F18FECC5
:10EE900091EE60E00F94F5F1662477244301CC5D98
:10EEA000DE4F19821882C452D140D401C301B695F5
:10EEB000A79597958795CA5DDE4F88839983AA8326
:10EEC000BB83C652D140CC5DDE4FA881B981C4520C
:10EED000D1401196CC5DDE4FB983A883C452D14096
:10EEE000CD0162E070E00F9434F2B0E2B093C6005E
:10EEF0008091C00086FFFCCF8091C0008064809329
:10EF0000C000EDE2E093C6008091C00086FFFCCF18
:10EF10008091C00080648093C000F0E2F093C6004E
:10EF20008091C00086FFFCCF8091C00080648093F8
:10EF3000C000CA5DDE4FE880F9800A811B81C6529D
:10EF4000D140BB27A12F902F8F2D0F940DF2CA5DBA
:10EF5000DE4F8881C652D1400F940DF2B0E2FB2EF5
:10EF6000F092C6008091C00086FFFCCF8091C00067
:10EF700080648093C0000DE30093C6008091C000C0
:10EF800086FFFCCF8091C00080648093C00010E2B7
:10EF90001093C6008091C00086FFFCCF8091C00016
:10EFA00080648093C0008BBEF3012791C65DDE4F65
:10EFB0002883CA52D140A22EBB24CC24DD2408943D
:10EFC000611C711C811C911C8BBEF3018791282E42
:10EFD0003324442455240894611C711C811C911C09
:10EFE0008BBEF3013791C55DDE4F3883CB52D140E4
:10EFF0000894611C711C811C911C8BBEF30147910C
:10F00000C45DDE4F4883CC52D140ADEFEA2EAFEF66
:10F01000FA2EAFEF0A2FAFEF1A2F6E0C7F1C801E57
:10F02000911E142D032DF22CEE24EA0CFB1C0C1D5A
:10F030001D1D0F940DF220E22093C6008091C000A8
:10F0400086FFFCCF8091C00080648093C000C65DC5
:10F05000DE4F8881CA52D1400F940DF230E23093D6
:10F06000C6008091C00086FFFCCF8091C000806404
:10F070008093C000C45DDE4F8881CC52D1400F9494
:10F080000DF240E24093C6008091C00086FFFCCFA5
:10F090008091C00080648093C000C55DDE4F888190
:10F0A000CB52D1400F940DF250E25093C6008091A4
:10F0B000C00086FFFCCF8091C00080648093C000B8
:10F0C0008FEFE8168FEFF80680E0080780E018075A
:10F0D00031F484E092EE60E00F94C2F1DFC0D80119
:10F0E000C7018070907CA070B0708050904CA040A0
:10F0F000B040D1F52FEF3FE340E050E0E222F322B1
:10F1000004231523CA5DDE4FA880B980CA80DB8046
:10F11000C652D140AE0CBF1CC01ED11EAA0CBB1CD7
:10F12000CC1CDD1C8EE092EE60E00F94C2F1BB2798
:10F13000A12F902F8F2D0F940DF28E2D0F940DF285
:10F1400030E23093C6008091C00086FFFCCF8091F2
:10F15000C00080648093C0004EE34093C60080915D
:10F16000C00086FFFCCF87C08EE09EEFA0E0B0E03D
:10F17000E822F9220A231B239CE0E91694E9F90608
:10F1800090E0090790E0190709F088C0C45DDE4FE0
:10F19000A881CC52D140EA2EFF2400E010E0102FCD
:10F1A0000F2DFE2CEE24C55DDE4FB881CB52D14031
:10F1B000EB0EF11C011D111DD601C501817090706F
:10F1C000A070B070DC0199278827E80EF91E0A1F8D
:10F1D0001B1F20EF30E040E050E0A222B322C42207
:10F1E000D52241E1AA0CBB1CCC1CDD1C4A95D1F7F1
:10F1F000EA0CFB1C0C1D1D1D81E090E0A0E0B0E0BE
:10F20000282239224A225B2235E1220C331C441C7D
:10F21000551C3A95D1F7E20CF31C041D151D57013E
:10F220006801AA0CBB1CCC1CDD1C85E192EE60E0E1
:10F230000F94C2F1C801AA27BB270F940DF2BB2778
:10F24000A12F902F8F2D0F940DF28E2D0F940DF274
:10F2500090E29093C6008091C00086FFFCCF809121
:10F26000C00080648093C000AEE3A093C60080918C
:10F27000C00086FFFCCF8091C00080648093C000F6
:10F28000C601AA27BB270F940DF2BB27AD2D9C2DDD
:10F290008B2D0F940DF28A2D0F940DF20F94DCF14B
:10F2A000CC5DDE4FE881F981C452D140F99709F471
:10F2B0004DCBF4E0EF2EF12C012D112D6E0C7F1CA7
:10F2C000801E911EF2CD83E093EE62E00F94F5F183
:10F2D0008AE192EE60E00F94C2F18091C00087FF56
:10F2E000FCCF1091C6001F751093C6008091C0001E
:10F2F00086FFFCCF8091C00080648093C0000F9493
:10F30000DCF1812F81548A3108F036C1163409F4BA
:10F3100095C0173490F4133409F44EC0143430F40B
:10F320001134F1F0123409F01DC130C0143409F465
:10F3300059C0153409F016C16BC01A3409F4C4C0A1
:10F340001B3438F4173409F48FC0183409F00AC19B
:10F35000A1C01B3409F4D2C01C3409F003C1E8C0B9
:10F360008FEF81B90DC082B1809582B980E090E0C5
:10F37000E0EDF7E03197F1F70196883C9105C1F790
:10F380008091C00087FFEFCF12B8EFC08FEF84B934
:10F390000DC085B1809585B980E090E0E0EDF7E0A3
:10F3A0003197F1F70196883C9105C1F78091C00033
:10F3B00087FFEFCF15B8D9C08FEF87B90DC088B1DF
:10F3C000809588B980E090E0E0EDF7E03197F1F7C3
:10F3D0000196883C9105C1F78091C00087FFEFCF6F
:10F3E00018B8C3C08FEF8AB90DC08BB180958BB9A7
:10F3F00080E090E0E0EDF7E03197F1F70196883C8E
:10F400009105C1F78091C00087FFEFCF1BB8ADC059
:10F410008FEF8DB90DC08EB180958EB980E090E0F0
:10F42000E0EDF7E03197F1F70196883C9105C1F7DF
:10F430008091C00087FFEFCF1EB897C08FEF80BBD1
:10F440000DC081B3809581BB80E090E0E0EDF7E0F6
:10F450003197F1F70196883C9105C1F78091C00082
:10F4600087FFEFCF11BA81C08FEF83BB0DC084B38C
:10F47000809584BB80E090E0E0EDF7E03197F1F714
:10F480000196883C9105C1F78091C00087FFEFCFBE
:10F4900014BA6BC08FEF809301010FC080910201FD
:10F4A00080958093020180E090E0E0EDF7E03197F5
:10F4B000F1F70196883C9105C1F78091C00087FF64
:10F4C000EDCF1092020151C08FEF809304010FC065
:10F4D0008091050180958093050180E090E0E0ED4A
:10F4E000F7E03197F1F70196883C9105C1F78091DB
:10F4F000C00087FFEDCF1092050137C08FEF8093DA
:10F5000007010FC08091080180958093080180E079
:10F5100090E0E0EDF7E03197F1F70196883C910536
:10F52000C1F78091C00087FFEDCF109208011DC088
:10F530008FEF80930A010FC080910B01809580931B
:10F540000B0180E090E0E0EDF7E03197F1F70196F4
:10F55000883C9105C1F78091C00087FFEDCF1092E4
:10F560000B0103C085E292EEEEC98091C00087FFD7
:10F57000FCCF8091C600EAC988E392EEE4C98CE131
:10F5800091EEE1C988249924933011F1943028F444
:10F59000913089F09230B8F408C0953061F195301F
:10F5A000F0F0963009F048C043C02B3109F042C951
:10F5B00091E06BE13FC96227C15DDE4F2883CF52E6
:10F5C000D14092E037C9B22FA0E0622793E032C960
:10F5D000822F90E0A82BB92B622794E02BC92E3004
:10F5E00009F039C3622795E0C05DDE4F19821882A9
:10F5F000C053D1401FC9E1E0F0E0EC0FFD1FC05D3A
:10F60000DE4F08811981C053D140E00FF11F2083E4
:10F610000F5F1F4FC05DDE4F19830883C053D14079
:10F6200062270A171B0709F005C9D80196E002C92D
:10F63000261709F010C303C0973009F0FBC87724E0
:10F640009981933109F412C19431C8F4963009F4C8
:10F65000D8C0973050F4923009F406C1933009F4C1
:10F660006DC0913009F059C253C0913109F477C08F
:10F67000923108F0BBC0903109F04FC2F5C098310B
:10F6800009F487C0993150F4953109F4EFC09531F0
:10F6900008F4C6C1963109F040C2C2C19A3109F4DA
:10F6A0006CC09A3108F491C09B3109F45BC09D3164
:10F6B00009F033C29D81903359F48F81882311F46E
:10F6C0009EE11CC0813011F091E018C098E916C08D
:10F6D000892F807591F0903539F4E0E0F0E089E011
:10F6E0008093570094910AC0983539F4E3E0F0E034
:10F6F00089E080935700949101C090E01A821B82A8
:10F700008D818C831D829E831F8227E030E009C299
:10F710001A8288E08B8381E48C8386E58D8382E581
:10F720008E8389E48F8383E5888780E589878FE5E9
:10F730008A8782E38B872BE030E0F3C18A818139AD
:10F7400041F0823941F0803911F48FE005C080E04A
:10F7500003C082E001C08AE01A828B8344C0772410
:10F76000739482C08D81882311F48EE12CC0813086
:10F7700011F081E028C088E926C01A82E1E0F0E0BB
:10F7800089E08093570084918B831C8224E030E0D1
:10F79000C8C18B81803589F48C81883039F4E2E0EE
:10F7A000F0E089E08093570084910DC0E0E0F0E044
:10F7B00089E080935700849106C0E3E0F0E089E09F
:10F7C0008093570084911A82DFCF8D81836C99E0FA
:10F7D000E1E0F0E0082E90935700E89507B600FCB2
:10F7E000FDCF1A821B8223E030E09BC180EC8A832C
:10F7F000CE5CDE4F188219821A821B82C253D1401E
:10F800008EC18A8190E0A0E0B0E0582F44273327D2
:10F8100022278B8190E0A0E0B0E0DC0199278827C7
:10F82000282B392B4A2B5B2B8D8190E0A0E0B0E098
:10F83000282B392B4A2B5B2B8C8190E0A0E0B0E089
:10F84000BA2FA92F982F8827282B392B4A2B5B2BCF
:10F85000220F331F441F551FC05EDE4F288339839C
:10F860004A835B83C052D1401A8259C13A81C95C34
:10F87000DE4F3883C753D140CA5CDE4F1882C6536F
:10F88000D1408B81C82EDD24CA5CDE4F488159816E
:10F89000C653D140C42AD52A933109F082C0CE5C28
:10F8A000DE4F88819981AA81BB81C253D1408050AB
:10F8B000904CA340B04030F583E0CE5CDE4FE88052
:10F8C000F9800A811B81C253D140F70100935B008C
:10F8D00080935700E89507B600FCFDCFCE5CDE4F65
:10F8E000088119812A813B81C253D14000501F4FAA
:10F8F0002F4F3F4FCE5CDE4F088319832A833B8313
:10F90000C253D140C05EDE4F488159816A817B81FC
:10F91000C052D140DE011B9631E08C9111962C91A2
:10F9200011971296C75CDE4F2883C953D140C85C3B
:10F93000DE4F1882C853D14090E0C85CDE4FE881AA
:10F94000F981C853D1408E2B9F2B0C01FA01609393
:10F950005B0030935700E89511244E5F5F4F6F4F67
:10F960007F4F0EEFE02E0FEFF02ECE0CDF1CC114F8
:10F97000D10499F685E0C05EDE4F088119812A81A5
:10F980003B81C052D140F80120935B008093570027
:10F99000E89507B600FCFDCF81E180935700E8951C
:10F9A00035C0C05EDE4F88819981AA81BB81C0527B
:10F9B000D140B695A795979587957C018601ABE0D8
:10F9C000AA2EB12CAC0EBD1E0BC0D5016D915D01F0
:10F9D000C7010F947FFE0894E11CF11C01501040F8
:10F9E0000115110591F7A60160E070E0440F551F65
:10F9F000661F771FC05EDE4FE880F9800A811B8199
:10FA0000C052D1404E0D5F1D601F711F1A82C05E33
:10FA1000DE4F488359836A837B83C052D1407FC0C5
:10FA2000FA80C55CDE4FF882CB53D140C65CDE4F16
:10FA30001882CA53D1408B81C82EDD24C65CDE4FAC
:10FA400008811981CA53D140C02AD12A1A828981DA
:10FA5000BE016D5F7F4F843121F59601C05EDE4FA0
:10FA6000E880F9800A811B81C052D1400BBFF701A9
:10FA700087919691DB018C9311969C936E5F7F4FDB
:10FA8000D801C7010296A11DB11DC05EDE4F88835B
:10FA90009983AA83BB83C052D14022503040F1F6F3
:10FAA00036C0C05EDE4F288139814A815B81C052F9
:10FAB000D1400894C108D108760100E010E0089414
:10FAC000C11CD11C0894E11CF11C011D111DE20E8A
:10FAD000F31E041F151F21BDBB27A52F942F832FB5
:10FAE00082BD2F5F3F4F4F4F5F4FF89A80B5DB01CC
:10FAF0008D93BD012E153F054007510761F7C05E8C
:10FB0000DE4F288339834A835B83C052D1409601FC
:10FB10002D5F3F4FFB01108204C080EC8A8322E0FE
:10FB200030E08BE18093C6008091C00086FFFCCF5F
:10FB30008091C00080648093C000C15DDE4FF88179
:10FB4000CF52D140F093C6008091C00086FFFCCF19
:10FB50008091C00080648093C000432F3093C60022
:10FB60008091C00086FFFCCF8091C00080648093AC
:10FB7000C000922F2093C6008091C00086FFFCCF6A
:10FB80008091C00080648093C0008EE08093C600A6
:10FB90008091C00086FFFCCF8091C000806480937C
:10FBA000C00065E1C15DDE4FE880CF52D1406E25D7
:10FBB00069276427FE01319610C090819093C6009A
:10FBC0008091C00086FFFCCF31968091C000806498
:10FBD0008093C0006927215030402115310569F715
:10FBE0006093C6008091C00086FFFCCF8091C0006A
:10FBF00080648093C00085B1805885B9772081F4F6
:10FC0000C15DDE4F0881CF52D1400F5FC15DDE4F35
:10FC10000883CF52D14090E0A0E0B0E00D941AF4F8
:10FC200027982F9880E090E020ED37E0F901319798
:10FC3000F1F7019684369105C9F700008091C00064
:10FC40008D7F8093C00081E180935700E895EE2777
:10FC5000FF270994FFCF90E00D941AF497FB092E2B
:10FC600007260AD077FD04D02ED006D000201AF443
:10FC7000709561957F4F0895F6F7909581959F4F08
:10FC80000895A1E21A2EAA1BBB1BFD010DC0AA1FDD
:10FC9000BB1FEE1FFF1FA217B307E407F50720F0F5
:10FCA000A21BB30BE40BF50B661F771F881F991F70
:10FCB0001A9469F760957095809590959B01AC01B9
:10FCC000BD01CF010895AA1BBB1B51E107C0AA1FAC
:10FCD000BB1FA617B70710F0A61BB70B881F991FED
:10FCE0005A95A9F780959095BC01CD010895F99991
:10FCF000FECF92BD81BDF89A992780B50895262F31
:10FD0000F999FECF1FBA92BD81BD20BD0FB6F89400
:0EFD1000FA9AF99A0FBE01960895F894FFCF63
:00000001FF
