:100000000C9463000C948B000C948B000C949B0C50
:100010000C949B0C0C949B0C0C948B000C948B00FC
:100020000C948B000C948B000C948B000C948B0024
:100030000C948B000C948B000C948B000C948B0014
:100040000C94510C0C948B000C941F0C0C94F90B19
:100050000C948B000C948B000C948B000C948B00F4
:100060000C948B000C948B000000000024002700EF
:100070002A0000000008000201000003040700003D
:1000800000000000000000000000230026002900FE
:1000900000000000250028002B00040404040404D0
:1000A0000404020202020202030303030303010227
:1000B00004081020408001020408102001020408F6
:1000C00010209C0E071811241FBECFEFD8E0DEBF12
:1000D000CDBF13E0A0E0B1E0E4E6F7E302C0059095
:1000E0000D92AC32B107D9F724E0ACE2B3E001C025
:1000F0001D92A93FB207E1F710E0C2E6D0E004C0CC
:100100002197FE010E94901AC136D107C9F70E94BB
:10011000B5100C94A51B0C9400001F93CF93DF9394
:10012000182FC091A403D091A5038A3041F4E8812F
:10013000F9810190F081E02D6DE0CE010995E88113
:10014000F9810190F081E02D612FCE01099521E028
:1001500030E0019711F430E020E0C901DF91CF9148
:100160001F910895CF93DF93C091A403D091A5036D
:10017000E881F9810084F185E02DCE010995892B74
:10018000B9F3E881F9810284F385E02DCE01DF9196
:10019000CF9109940895DC01ED91FC910190F081DB
:1001A000E02D0994DB0114964D915C9115976D91AA
:1001B0007C91DC01ED91FC910280F381E02D0994AA
:1001C000AF92BF92CF92DF92EF92FF920F931F9365
:1001D000CF93DF936C017B018B01040F151FEB01A3
:1001E0005E01AE18BF08C017D10759F06991D6015A
:1001F000ED91FC910190F081E02DC6010995892BCC
:1002000079F7C501DF91CF911F910F91FF90EF908A
:10021000DF90CF90BF90AF900895FC01538D448D37
:10022000252F30E0842F90E0821B930B541710F0A1
:10023000CF96089501970895FC01918D828D9817AE
:1002400061F0A28DAE0FBF2FB11D5D968C91928D86
:100250009F5F9F73928F90E008958FEF9FEF0895B7
:10026000FC01918D828D981731F0828DE80FF11D80
:10027000858D90E008958FEF9FEF0895FC01918D9B
:10028000228D892F90E0805C9F4F821B91098F7394
:100290009927089588EA93E00E943E0121E0892B86
:1002A00009F420E0822F089580E090E0892B29F066
:1002B0000E944A0181110C9400000895FC01A48D54
:1002C000A80FB92FB11DA35ABF4F2C91848D90E078
:1002D00001968F739927848FA689B7892C93A0895B
:1002E000B1898C91837080648C93938D848D9813E5
:1002F00006C00288F389E02D80818F7D8083089578
:10030000EF92FF920F931F93CF93DF93EC0181E065
:10031000888F9B8D8C8D98131AC0E889F98980810C
:1003200085FF15C09FB7F894EE89FF896083E8893F
:10033000F98980818370806480839FBF81E090E031
:10034000DF91CF911F910F91FF90EF900895F62EBE
:100350000B8D10E00F5F1F4F0F731127E02E8C8D58
:100360008E110CC00FB607FCFACFE889F98980819D
:1003700085FFF5CFCE010E945E01F1CFEB8DEC0F32
:10038000FD2FF11DE35AFF4FF0829FB7F8940B8FBA
:10039000EA89FB8980818062CFCFCF93DF93EC0124
:1003A000888D8823B9F0AA89BB89E889F9898C915D
:1003B00085FD03C0808186FD0DC00FB607FCF7CF19
:1003C0008C9185FFF2CF808185FFEDCFCE010E9419
:1003D0005E01E9CFDF91CF910895833081F028F459
:1003E000813099F08230A9F008958730A9F08830E3
:1003F000C9F08430B1F4809180008F7D03C080917A
:1004000080008F7780938000089584B58F7784BDB6
:10041000089584B58F7DFBCF8091B0008F77809356
:10042000B00008958091B0008F7DF9CFCF93DF9316
:10043000EEE7F0E08491EAEBF0E0D491E6EAF0E058
:10044000C491CC23A1F081110E94ED01EC2FF0E0CA
:10045000EE0FFF1FEA57FF4FA591B491EC91ED23EA
:1004600081E090E009F480E0DF91CF91089580E091
:1004700090E0FACF1F93CF93DF93282F30E0F9015C
:10048000EE58FF4F8491F901E255FF4FD491F901E5
:10049000E656FF4FC491CC23A9F0162F81110E947C
:1004A000ED01EC2FF0E0EE0FFF1FE057FF4FA5919D
:1004B000B4918FB7F894EC91111108C0D095DE2358
:1004C000DC938FBFDF91CF911F910895DE2BF8CF82
:1004D000CF93DF9390E0FC01E255FF4F24918656C5
:1004E0009F4FFC0184918823C9F090E0880F991FE9
:1004F000FC01E859FF4FA591B491FC01E057FF4F73
:10050000C591D49161110DC09FB7F8948C9120953D
:1005100082238C938881282328839FBFDF91CF91EA
:100520000895623051F49FB7F8943C91822F8095E2
:1005300083238C93E8812E2BEFCF8FB7F894EC9127
:100540002E2B2C938FBFEACF3FB7F8948091800376
:1005500090918103A0918203B091830326B5A89B5B
:1005600005C02F3F19F00196A11DB11D3FBFBA2F45
:10057000A92F982F8827BC01CD01620F711D811D05
:10058000911D42E0660F771F881F991F4A95D1F78A
:1005900008958F929F92AF92BF92CF92DF92EF9287
:1005A000FF924B015C010E94A4026B017C010E943E
:1005B000A4026C197D098E099F09683E734081056C
:1005C0009105A8F321E0821A9108A108B10888EEEC
:1005D000C80E83E0D81EE11CF11C81149104A10413
:1005E000B10429F7FF90EF90DF90CF90BF90AF90CC
:1005F0009F908F9008952FB7F89460917C0370912D
:100600007D0380917E0390917F032FBF08952091F9
:100610004504309146042817390771F490918403FA
:1006200080918503981741F0E0918403F0E0E55C48
:10063000FC4F808190E008958FEF9FEF089508951B
:10064000EF92FF920F931F93CF93DF93DC015C96A1
:10065000ED90FC905D97E114F10479F481E090E075
:1006600013969C938E93129790E080E0DF91CF9148
:100670001F910F91FF90EF9008955196ED91FC918D
:10068000529750968C915097982F90950FB75E96F1
:100690002C915E97122F127021FD6095F8942081A5
:1006A000112319F1282B2083E7012197F1F728E086
:1006B000462F50E0308160FF1AC0382B3083E701AD
:1006C0002197F1F7BA0175956795215089F71123A4
:1006D00081F08081892380830FBF5C968D919C91EE
:1006E0000197F1F781E090E0C1CF2923DCCF3923D6
:1006F000E5CF9081892BEFCF2091450430914604BE
:100700002817390771F4809185032091840390E0C4
:10071000805C9F4F821B910960E470E00E945A1A2E
:10072000089590E080E008952091450430914604BA
:1007300028173907B9F4909184038091850398179D
:1007400089F0E0918403F0E0E55CFC4F808120912A
:10075000840330E02F5F3F4F2F73332720938403B0
:1007600090E008958FEF9FEF08950F931F930E94DD
:10077000FB026093800470938104809382049093C1
:10078000830488E794E00E94940397FF1DC00E94B1
:10079000FB02009180041091810420918204309129
:1007A0008304601B710B820B930B00917C041091EE
:1007B0007D0420917E0430917F04601771078207C9
:1007C0009307F8F28FEF9FEF1F910F91089590E03C
:1007D00080E00895CB0108954F925F926F927F92CF
:1007E000BF92CF92DF92EF92FF920F931F93CF931E
:1007F000DF93EC0129013A018B01C12CD12C760148
:10080000C414D504E604F7040CF03FC0F801B1901D
:100810008F018F8580FF0BC0E881F9810084F1850D
:10082000E02D20E144E070E060E0CE010995EB8529
:10083000FC858D859E85E817F90760F4B0828B856D
:100840009C8501969C878B872FEFC21AD20AE20AF9
:10085000F20AD6CF6B2D70E0E881F981028CF38D1E
:10086000E02DCE010995019679F7C701B601DF9118
:10087000CF911F910F91FF90EF90DF90CF90BF909D
:100880007F906F905F904F90089573016201EDCF5C
:10089000CF93DF93EC01E881F9810288F389E02DA1
:1008A00009958F3F980731F02D813E812F5F3F4F93
:1008B0003E832D83DF91CF9108958FEF9FEF0895B1
:1008C00060E070E0CB010895FF920F931F93CF93E8
:1008D000DF938C01EB016F3F7607B9F0F62EEAE06B
:1008E0006E1306C06DE0F801808991890E94CB00EB
:1008F0006F2DF801808991890E94CB00CE01DF9194
:10090000CF911F910F91FF900895D0E0C0E0F6CFF6
:100910007F928F929F92AF92BF92CF92DF92EF928F
:10092000FF920F931F93CF93DF938C0149015A01DC
:10093000EB01C12CD12C7601C814D904EA04FB04C4
:10094000B4F479908AE0781206C06DE0F8018089ED
:1009500091890E94CB00672DF801808991890E94BE
:10096000CB00FFEFCF1ADF0AEF0AFF0AE5CFC50180
:10097000B401DF91CF911F910F91FF90EF90DF9025
:10098000CF90BF90AF909F908F907F900895CF931E
:10099000DF93EC0188899989DC01ED91FC91008459
:1009A000F185E02D0995892BA9F388899989DC01C6
:1009B000ED91FC910284F385E02DDF91CF910994B4
:1009C000CF93DF93EC0188899989DC01ED91FC914B
:1009D0000084F185E02D0995892BA9F388899989EF
:1009E000DC01ED91FC910484F585E02DDF91CF9140
:1009F00009948F929F92AF92BF92CF92DF92EF9223
:100A0000FF920F931F93CF93DF938C0149015A01FB
:100A1000EB01C12CD12C7601D80150968D919C917F
:100A2000DC01ED91FC910284F385E02D09958F3F67
:100A300061F0C814D904EA04FB043CF48993BFEFC5
:100A4000CB1ADB0AEB0AFB0AE7CFC701B601DF913D
:100A5000CF911F910F91FF90EF90DF90CF90BF90BB
:100A6000AF909F908F900895DC0150968D919C914E
:100A7000DC01ED91FC910084F185E02D099490E07A
:100A800080E0089590E080E0089590E080E008958F
:100A900008950895DC01ED91FC9136970190F08165
:100AA000E02DE80FF91F80E791E0918380838AE7CA
:100AB00091E097838683089520E731E0FC0131833C
:100AC00020832AE731E0378326830895FB012081C4
:100AD0003181FC0131832083FB0142815381265007
:100AE0003109F90120813181820F931FFC0151836B
:100AF000408308952CE831E0FC013183208326E90E
:100B000031E0318F208F60E871E00C946605DC01E4
:100B1000ED91FC91369720813181820F931F0C94C7
:100B20007A050895DC01ED91FC9136970190F081F2
:100B3000E02DE80FF91F8CE591E09183808386E634
:100B400091E09383828308952CE531E0FC013183A9
:100B5000208326E631E0338322830895FB01208140
:100B60003181FC0131832083FB0142815381265076
:100B70003109F90120813181820F931FFC015183DA
:100B80004083089528EA31E0FC013183208322EB81
:100B900031E0358B248B6CE971E00C94AE05DC01FF
:100BA000ED91FC91369720813181820F931F0C9437
:100BB000C2050895CF93DF93EC0188819981009756
:100BC00011F00E948319198218821D821C821B82D7
:100BD0001A82DF91CF910895FC0180819181009765
:100BE00011F00C9483190895CF93DF93EC010E94C8
:100BF000C205CE01DF91CF910C948319DC01ED91F8
:100C0000FC91369720813181820F931F0C94F4055B
:100C1000CF93DF93EC010E947A05CE01DF91CF9153
:100C20000C948319DC01ED91FC9136972081318180
:100C3000820F931F0C9408060C9483190C9483194B
:100C4000DC01ED91FC91369720813181820F931F59
:100C50000C941E060C9483190C948319DC01ED91FD
:100C6000FC91369720813181820F931F0C942C06C2
:100C70000C948319FC0101900020E9F73197AF0132
:100C8000481B590BBC0188EA93E00C94E0008F925A
:100C90009F92AF92BF920F931F93CF93DF93CDB7E5
:100CA000DEB7A1970FB6F894DEBF0FBECDBF19A275
:100CB000423008F44AE08E010F5D1F4F842E912CC4
:100CC000B12CA12CA50194010E946E1AE62FB90146
:100CD000CA01EA30F4F4E05DD801EE938D01232BD4
:100CE000242B252B79F790E080E0109719F0CD01A7
:100CF0000E943A06A1960FB6F894DEBF0FBECDBF94
:100D0000DF91CF911F910F91BF90AF909F908F90E7
:100D10000895E95CE1CFCF92DF92EF92FF92CF93FB
:100D2000DF936C01990FEE08FF08F7FE19C06DE222
:100D300088EA93E00E94CB00EC0166277727CB017D
:100D40006C197D098E099F094AE00E9447068C0FA5
:100D50009D1FDF91CF91FF90EF90DF90CF9008958E
:100D60004AE0C701B601DF91CF91FF90EF90DF908D
:100D7000CF900C944706CF93DF930E943A06EC0184
:100D80008BED91E00E943A068C0F9D1FDF91CF9171
:100D90000895CF93DF932091510430915204232B77
:100DA00089F0FC01C0914D04D0914E0460817181A5
:100DB000CE010E948B1B009729F08C1B9D0BDF91AD
:100DC000CF9108958FEF9FEFFACFCF93DF93FC0180
:100DD00024813581232B79F0C081D181062E000C2E
:100DE000770BCE010E94701B009729F08C1B9D0B86
:100DF000DF91CF9108958FEF9FEFFACFFC0124810F
:100E00003581FB014481558124173507E1F4FC014C
:100E100080819181FB01608171810097D1F0611522
:100E20007105A1F4232BC1F0FC01808190E008C082
:100E3000232B91F0FB01808190E0919581959109A0
:100E400021E0892B09F020E0822F08950E947B1B6E
:100E5000F7CF6115710561F721E0F6CFCF92DF92F0
:100E6000EF92FF920F931F93CF93DF936C018B014F
:100E7000FB01E480F580C0E0D6E0CE151F0470F4DD
:100E8000F80160817181CD9F600D711D1124C60133
:100E90000E94FE0681110CC0CF5FEFCF80E0DF9192
:100EA000CF911F910F91FF90EF90DF90CF90089519
:100EB00081E0F5CF0F931F93CF93DF938C01EB016C
:100EC000FC01808191810097E1F068817981611551
:100ED0007105A9F0428153812C813D81421753074E
:100EE00070F00E94841B8C819D81F801958384831E
:100EF0001D821C82DF91CF911F910F9108950E9456
:100F0000831988819981F801918380838A819B81EB
:100F1000938382838C819D81958384831982188237
:100F20001B821A82E5CF0F931F93CF93DF93EC01BF
:100F300088819981009759F02A813B8126173707CC
:100F400030F081E0DF91CF911F910F9108958B01D7
:100F50006F5F7F4F0E94AA1A009759F09983888388
:100F60001B830A832C813D81232B59F7FC011082BE
:100F7000E8CF80E0E7CFEF92FF920F931F93CF93DC
:100F8000DF936115710541F480E0DF91CF911F91EE
:100F90000F91FF90EF90089541155105B1F07B013D
:100FA000EC010C811D81040F151FB8010E949307ED
:100FB000882351F3288139818C819D81B701820F6B
:100FC000931F0E94841B1D830C8381E0DECFCF938F
:100FD000DF93EC01FB0101900020E9F73197AF01AD
:100FE000461B570B0E94BB07811103C0CE010E9414
:100FF000DA05CE01DF91CF910895CF93DF93EC0115
:10100000FB0144815581608171810E94BB07811180
:1010100003C0CE010E94DA05CE01DF91CF91089581
:10102000CF93DF9300D0CDB7DEB769831A8241E05A
:1010300050E0BE016F5F7F4F0E94BB070F900F9083
:10104000DF91CF910895EF92FF920F931F93CF936B
:10105000DF93EC017B018A01BA010E9493078111A1
:101060000BC0CE010E94DA05CE01DF91CF911F9116
:101070000F91FF90EF9008951D830C83B701888135
:1010800099810E94841BF0CFFB0101900020E9F7B9
:101090003197AF01461B570B0C942308CF93DF9376
:1010A000EC01FB018617970749F06081718161159A
:1010B000710541F0448155810E942308CE01DF91E2
:1010C000CF9108950E94DA05F9CFFC0111821082B8
:1010D00013821282158214820C944E08EF92FF92B2
:1010E0000F931F93CF93DF93CDB7DEB72C970FB637
:1010F000F894DEBF0FBECDBF7C01BC01CE010196CE
:101100000E94650861E774E0CE0101960E942E07F7
:101110001091B601212F257001E009F000E00823AD
:10112000CE0101960E94EC0584E090E00111B0C070
:101130001770B701CE0107960E94650861E774E059
:10114000CE0107960E942E07082FB701CE01019607
:101150000E9465086AE674E0CE0101960E942E079F
:10116000082B81E0113009F080E00823CE010196C0
:101170000E94EC05CE0107960E94EC0586E090E007
:10118000011186C0B701CE0101960E9465086AE68A
:1011900074E0CE0101960E942E0701E0133011F099
:1011A000111100E00823CE0101960E94EC0587E0B2
:1011B00090E001116DC0B701CE0107960E9465084D
:1011C0006AE674E0CE0107960E942E07082FB70149
:1011D000CE0101960E94650863E674E0CE01019697
:1011E0000E942E0791E0123009F090E0082B0923AD
:1011F000CE0101960E94EC05CE0107960E94EC05F7
:1012000089E090E0011144C0B701CE0101960E942F
:10121000650863E674E0CE0101960E942E0701E0A6
:10122000123008F000E00823CE0101960E94EC0580
:101230008AE090E001112CC0B701CE0107960E9410
:10124000650861E774E0CE0107960E942E07082F1B
:10125000B701CE0101960E94650863E674E0CE01F5
:1012600001960E942E07802B91E0133009F090E048
:10127000182F1923CE0101960E94EC05CE01079686
:101280000E94EC058CE090E0111102C081E090E03A
:101290009093A2038093A1030E94FB0260939503A5
:1012A0007093960380939703909398032C960FB6B0
:1012B000F894DEBF0FBECDBFDF91CF911F910F918C
:1012C000FF90EF900895FC01118210821382128228
:1012D00015821482FB0101900020E9F73197AF01DC
:1012E000461B570B0C942308EF92FF920F931F930A
:1012F000CF93DF9300D000D000D0CDB7DEB78C0104
:101300008091610490916204892B39F0E090590436
:10131000F0905A04E114F10499F46DED71E0C80104
:101320000E946309C80126960FB6F894DEBF0FBE6F
:10133000CDBFDF91CF911F910F91FF90EF90089556
:10134000F7018681978190935A0480935904B701DD
:10135000CE0101960E946508F70117821682C70127
:101360000E94EC05C7010E94831980915904909155
:101370005A04892B21F410925C0410925B04809132
:1013800061049091620401979093620480936104D8
:10139000F801118210821382128215821482BE011A
:1013A0006F5F7F4FC8010E945A07CE0101960E94CD
:1013B000EC05B8CFAF92BF92CF92DF92EF92FF923F
:1013C0000F931F93CF93DF936C015B017A01890127
:1013D0002417350720F48F2D7901042F182F6DED78
:1013E00071E0C6010E946309D5011496CD91DC918C
:1013F000EC16FD06E0F40C171D0708F4E801D50112
:10140000ED91FC911197EC0FFD1F108110826D91F1
:101410007C916E0D7F1DC60161157105A1F00E94C2
:101420004408F50180819181C80FD91F1883C60136
:10143000DF91CF911F910F91FF90EF90DF90CF90B0
:10144000BF90AF9008950E94DA05EBCFCF93DF9362
:10145000CDB7DEB72C970FB6F894DEBF0FBECDBF69
:101460006091590470915A0461157105B1F1809130
:10147000610490916204892BD1F46DED71E0CE018D
:1014800007960E946309BE01695F7F4F87E494E07D
:101490000E945A07CE0107960E94EC052C960FB6C3
:1014A000F894DEBF0FBECDBFDF91CF910895CE017E
:1014B00001960E94650818861F821A8619861C8666
:1014C0001B86BE016F5F7F4FCE0107960E945A07B1
:1014D000CE0101960E94EC05D6CF6DED71E087E458
:1014E00094E00E944408DACF0F931F93CF93DF93C9
:1014F000CDB7DEB76E970FB6F894DEBF0FBECDBF87
:101500006AEE71E0CE0101960E9463096DE474E019
:10151000CE0101960E94FD078C016FE30E94100826
:10152000811103C0C8010E94DA05B801CE014996B5
:101530000E946508CE0101960E94EC05BE01675E1F
:101540007F4F88E794E00E94D200BE01675E7F4F24
:1015500088EA93E00E94D2008BED91E00E943A0667
:1015600068EC70E080E090E00E94C9026DED71E0EF
:10157000CE0143960E94630980913303811109C013
:101580006DED71E08DE293E00E94630981E080934C
:10159000330311E088E794E00E947C0318161906D3
:1015A000CCF588E794E00E9494038D3211F41093F7
:1015B0002C0380912C03882369F36DED71E0CE013B
:1015C00001960E9463090E94B50397FD09C08B3301
:1015D000910531F0682FCE0101960E941008F3CFDB
:1015E000BE016F5F7F4F8DE293E00E945A07CE01EC
:1015F00001960E94EC056DE273E0CE0143960E94D5
:101600004E086DED71E08DE293E00E944408109267
:101610002C03C0CFBE016D5E7F4F88EA93E00E942D
:10162000D2008BED91E00E943A066DE78DE494E0E4
:101630000E94E5068C016DEE71E0CE0107960E94D6
:101640006309CE0107960E94C90698012F5F3F4F9C
:10165000AC016DE474E0CE0101960E94DA0961E20A
:10166000CE0143960E94E5068C016DE2CE014396C1
:101670000E94E506AC014F5F5F4F9801BE016D5EB1
:101680007F4FCE010D960E94DA09BE016F5F7F4F3A
:10169000CE010D960E94FE06882339F011E080915C
:1016A000610490916204029708F010E0CE010D965B
:1016B0000E94EC05CE0101960E94EC05CE01079632
:1016C0000E94EC05CE0143960E94EC05CE0149969E
:1016D0000E94EC0511116CC00E94FB0228EE33E061
:1016E00040E050E00E946E1ACA01B9014AE00E942F
:1016F000470680EF91E00E943A0687EF91E00E9452
:101700003A0667E474E088EA93E00E94D20089EF29
:1017100091E00E943A068091590490915A04892BD5
:1017200051F1CE0101960E947409CE0101960E94EA
:10173000EC0581E092E00E94BB06809161049091EB
:101740006204892B39F06091590470915A04611533
:101750007105C9F56DED71E0CE0107960E94630930
:10176000BE01695F7F4F88EA93E00E94D200CE01FC
:1017700007960E94EC058DE092E00E94BB06609106
:1017800061047091620490E080E04AE00E944706A4
:101790008EE192E00E94BB068091A1039091A2038A
:1017A0000E948B068CE192E00E94BB060E94260AF2
:1017B0006E960FB6F894DEBF0FBECDBFDF91CF910E
:1017C0001F910F910895CE0101960E946508188619
:1017D0001F821A8619861C861B86BE016F5F7F4F8B
:1017E000CE0107960E945A07CE0101960E94EC0591
:1017F000B7CF1F920F920FB60F9211242F933F93E2
:101800004F935F936F937F938F939F93AF93BF9308
:10181000EF93FF9388EA93E00E945E01FF91EF91BE
:10182000BF91AF919F918F917F916F915F914F91F8
:101830003F912F910F900FBE0F901F9018951F9200
:101840000F920FB60F9211242F938F939F93EF93C4
:10185000FF93E091B803F091B9038081E091BE035A
:10186000F091BF0382FD1BC090818091C1038F5F07
:101870008F732091C203821741F0E091C103F0E021
:10188000E855FC4F958F8093C103FF91EF919F9195
:101890008F912F910F900FBE0F901F901895808100
:1018A000F4CF1F920F920FB60F9211242F933F93F4
:1018B0008F939F93AF93BF9380917C0390917D030F
:1018C000A0917E03B0917F0330917B0323E0230F2F
:1018D0002D3758F50196A11DB11D20937B038093F0
:1018E0007C0390937D03A0937E03B0937F0380914C
:1018F000800390918103A0918203B09183030196AC
:10190000A11DB11D8093800390938103A093820356
:10191000B0938303BF91AF919F918F913F912F918E
:101920000F900FBE0F901F90189526E8230F029678
:10193000A11DB11DD2CF1F920F920FB60F9211248D
:101940002F933F934F935F936F937F938F939F93C7
:10195000AF93BF93EF93FF93E0914504F09146045A
:10196000309749F0A685B7858585968D91FF14C07F
:101970009C918923A1F4FF91EF91BF91AF919F9129
:101980008F917F916F915F914F913F912F910F9028
:101990000FBE0F901F9018959C91892361F7A38922
:1019A000B4899C918589809589238C9386899789B0
:1019B0000197F1F7608D718DA685B785558538E063
:1019C00020E0CB010197F1F7822F90E09595879564
:1019D000282F4C91452309F02068315091F7868DCE
:1019E00081FD20958091850390E001968F73992762
:1019F00030918403381799F0A0918503B0E0A55C7D
:101A0000BC4F2C9380938503828D938D0197F1F7C2
:101A1000A389B4898C919589892B8C93ACCF868DC1
:101A20008160868FF1CFCF93DF93EB01888199811D
:101A3000A1ECB4E011969C938E932A813B8106978A
:101A4000EC01E881F981EF53FB4F3183208312963B
:101A50001D921D921D921C92159781E290E0948335
:101A6000838387EC94E0948B838B1582158ADF91B6
:101A7000CF910895CF93DF93C1ECD4E081E290E061
:101A80009C8F8B8F1D8E1E8E1F8E86E090E0A0E0B7
:101A9000B0E088A399A3AAA3BBA31CA21DA21EA267
:101AA0001FA282E391E0998F888F80E288A71AA60F
:101AB00019A687EC94E09CA78BA71DA6AC0160E853
:101AC00071E0CE010E94130D8CE891E09983888328
:101AD00086E991E0998F888F1A8619861C861B8665
:101AE0001E861D86188A1F861A8A198A1C8A1B8AD6
:101AF0008AE391E09F838E8388EA93E09F8B8E8BAD
:101B000088E08D8BDF91CF910895DB018D919C91C1
:101B10001197909398048093970412962D913C917D
:101B20000697DC01ED91FC91E956FB4F3183208350
:101B300081E290E09483838389E994E0948B838BA2
:101B40001582158A0895CF93DF93C7E9D4E081E227
:101B500090E0988F8F8B198E1A8E1B8E86E090E006
:101B6000A0E0B0E08C8F9D8FAE8FBF8F18A219A21E
:101B70001AA21BA282E391E09D8B8C8B80E28CA346
:101B80001EA21DA289E994E098A78FA319A6AC0113
:101B90006CE971E0CE010E94850D88EA91E099839D
:101BA000888382EB91E09D8B8C8B1E821D82188630
:101BB0001F821A8619861C861B861E861D86188A19
:101BC0001F868AE391E09B838A8388EA93E09B8B5C
:101BD0008A8B80E1898BDF91CF9108950F931F93BA
:101BE000CF93DF93CDB7DEB761970FB6F894DEBF22
:101BF0000FBECDBF8C01CB01F80111821082138280
:101C000012821582148250E0BE016F5F7F4F0E94E6
:101C10005B18BE016F5F7F4FC8010E944408619648
:101C20000FB6F894DEBF0FBECDBFDF91CF911F91ED
:101C30000F910895CF92DF92EF92FF920F931F932F
:101C4000CF93DF93CDB7DEB76E970FB6F894DEBFB4
:101C50000FBECDBF8C017B016A0140E1B901CE010D
:101C600001960E94EE0D40E1B601CE0107960E945A
:101C7000EE0D4AE0B701CE0143960E94EE0DBE0183
:101C80006D5E7F4FCE010D960E9465086EED71E08E
:101C9000CE010D960E94E707BE01695F7F4F0E944B
:101CA000FD0761EE71E00E94E707BE016F5F7F4FA5
:101CB0000E94FD0764EE71E00E94E707BC01CE01BF
:101CC00049960E946508CE010D960E94EC05CE0152
:101CD00043960E94EC05CE0107960E94EC05CE01CA
:101CE00001960E94EC05BE01675E7F4FCE01019612
:101CF0000E94650867EE71E0CE0101960E94E70739
:101D0000BC01C8010E946508CE0101960E94EC0545
:101D1000CE0149960E94EC05C8016E960FB6F89464
:101D2000DEBF0FBECDBFDF91CF911F910F91FF900E
:101D3000EF90DF90CF900895CF92DF92EF92FF92D5
:101D40000F931F93CF93DF93CDB7DEB768970FB68E
:101D5000F894DEBF0FBECDBF1092AB031092AA0362
:101D6000E8EECE2EE3E0DE2EE12CF12CC092AC03A7
:101D7000D092AD03E092AE03F092AF038BEB91E013
:101D80009093A9038093A80385EC90E09093B5030A
:101D90008093B40384EC90E09093B7038093B603F0
:101DA00080EC90E09093B9038093B80381EC90E0CD
:101DB0009093BB038093BA0382EC90E09093BD03B1
:101DC0008093BC0386EC90E09093BF038093BE03A6
:101DD0001092C1031092C2031092C3031092C40365
:101DE00068EA73E087E994E00E94A30D68EA73E073
:101DF00081EC94E00E943A0D1092A7031092A60382
:101E000088EA93E09093A5038093A40362EB70E0CB
:101E10008DE890E00E9480189093A7038093A6031A
:101E200010927B0410927A04C0927C04D0927D04BC
:101E3000E0927E04F0927F048DEC91E0909379041F
:101E40008093780410928F0410928E041092910463
:101E500010929004109293041092920410929504A0
:101E600010929404609196046E7F6D7F6093960447
:101E70006695617081E0682783E00E943A0261E024
:101E800083E00E946802E1EBF0E0E491E0938804D3
:101E9000EDE9F0E0E491F0E0EE0FFF1FE057FF4FB7
:101EA0008591949190938A048093890460E082E004
:101EB0000E9468028091960481FD04C061E082E086
:101EC0000E943A0282E080938404E0EBF0E0E49127
:101ED000E0938504ECE9F0E0E491F0E0EE0FFF1F01
:101EE000EA57FF4F859194919093870480938604DD
:101EF00088E090E0909374048093730410927604C9
:101F00001092750480E390E00E94E71890937204A9
:101F1000809371045BEDE52E51E0F52E10E000E0BA
:101F20002AE030E048E050E067E170E0CE01019641
:101F30006C010E941A0E6BEDE62E61E0F62E10E0A9
:101F400000E02AE030E049E250E06AE170E0CE01D2
:101F500007960E941A0E7BEDE72E71E0F72E10E037
:101F600000E025E030E049E250E068E070E0CE01BA
:101F70000D960E941A0E8BE090E090936D04809372
:101F80006C0483E090E090936F0480936E0482E48D
:101F900090E00E94E71890936B0480936A04860196
:101FA000F12CE12C80916E0490916F04E816F906F3
:101FB00008F4B3C0CE010D960E94EC05CE01079641
:101FC0000E94EC05CE0101966C010E94EC058BEDA0
:101FD000E82E81E0F82E10E000E028E030E048E054
:101FE00050E060E170E0C6010E941A0E9BEDE92E00
:101FF00091E0F92E10E000E028E030E048E050E009
:102000006CE370E0CE0107960E941A0E2BEDE22ED3
:1020100021E0F22E10E000E027E030E049E250E05D
:102020006AE170E0CE010D960E941A0E3BEDE32EA0
:1020300031E0F32E10E000E023E030E048E050E033
:102040006BE170E0CE0143960E941A0E8CE090E0A6
:10205000909366048093650484E090E09093680414
:102060008093670488E490E00E94E71890936404EA
:10207000809363048601F12CE12C80916704909198
:102080006804E816F90608F45CC0CE0143960E9485
:10209000EC05CE010D960E94EC05CE0107960E943C
:1020A000EC05C6010E94EC0510925A0410925904E6
:1020B00010925C0410925B0410926204109261040E
:1020C0008FEF9FEF9093600480935F0483E090E034
:1020D00090935E0480935D046DED71E083E594E080
:1020E0000E9463096DED71E08DE494E00E94630944
:1020F0006DED71E087E494E00E94630968960FB685
:10210000F894DEBF0FBECDBFDF91CF911F910F912D
:10211000FF90EF90DF90CF90089580916A049091A6
:102120006B0498012C193D09820F931F009719F039
:10213000B8010E9465089FEFE91AF90A0A5F1F4F6C
:1021400031CF809163049091640498012C193D096A
:10215000820F931F009719F0B8010E9465088FEF56
:10216000E81AF80A0A5F1F4F88CFCF93DF93CDB7E5
:10217000DEB7E0970FB6F894DEBF0FBECDBF789400
:1021800084B5826084BD84B5816084BD85B582607C
:1021900085BD85B5816085BD80916E00816080932D
:1021A0006E00109281008091810082608093810096
:1021B00080918100816080938100809180008160A6
:1021C000809380008091B10084608093B100809101
:1021D000B00081608093B00080917A008460809329
:1021E0007A0080917A00826080937A0080917A00F0
:1021F000816080937A0080917A00806880937A0071
:102200001092C10061E086E00E94680261E085E012
:102210000E94680261E084E00E94680261E087E059
:102220000E94680261E088E00E94680262E08CE03F
:102230000E94680260E082E00E94680261E083E040
:102240000E946802E091B803F091B90382E08083B4
:10225000E091B403F091B5031082E091B603F091E0
:10226000B7038FEC80831092C003E091BC03F09120
:10227000BD0386E08083E091BA03F091BB038081C7
:1022800080618083E091BA03F091BB038081886014
:102290008083E091BA03F091BB03808180688083E2
:1022A000E091BA03F091BB0380818F7D808382E34C
:1022B00092E00E94BB061092930410929204109236
:1022C00091041092900410928F0410928E048DE964
:1022D00091E09093950480939404909184049631B6
:1022E00008F047C02DEB30E030938F0420938E042C
:1022F0002BE931E030939104209390042CE231E0FB
:1023000030939304209392042091680084E09830E5
:1023100048F031E09E3008F430E081E001C0880FE1
:102320003A95EAF7822B809368002DE630E09830EA
:1023300050F02BE630E09E3030F02CE630E0963165
:1023400010F030E020E030938C0420938B04292F90
:1023500030E0983008F0A7C281E001C0880F9A955C
:10236000EAF780938D0480919404909195040197ED
:10237000F1F78091920490919304892B49F1E091B7
:102380004504F091460424E0E837F20709F130975C
:1023900039F0A389B4899C918589809589238C9390
:1023A000809196048E7F80939604109285031092FC
:1023B000840388E794E09093460480934504E09179
:1023C0008B04F0918C04808190918D04892B808303
:1023D0008EE492E00E94BB060E94FB02609395038C
:1023E00070939603809397039093980388EEC82E7A
:1023F00083E0D82EE12CF12CBB24B3940E9416026A
:10240000892B09F05DC26AE070E080E090E00E94F4
:10241000C9020E941602892B11F4B092A3036AE04C
:1024200070E080E090E00E94C90280918D038111EC
:1024300008C06DED71E087E893E00E946309B092F7
:102440008D0388E794E00E947C03181619060CF0AF
:1024500041C287E692E00E94BB0688E794E00E94B2
:102460009403182F8B3711F4B09286038091860362
:102470008823A9F0612F87E893E00E9410081D3798
:1024800071F41092860367E873E08DE494E00E9493
:102490004E086DED71E087E893E00E9444086DED11
:1024A00071E0CE018B960E9463096DED71E0CE0163
:1024B00085960E9463096DED71E0CE014F960E94F2
:1024C00063096DED71E0CE0149960E9463096DEDDF
:1024D00071E0CE0143960E94630963E574E08DE4E8
:1024E00094E00E94FE068111C9C16EED71E0CE013B
:1024F00001960E946309CE0101960E94C9068C01D3
:102500006DEE71E0CE0107960E946309CE01079639
:102510000E94C906081B190BCE0107960E94EC0504
:10252000CE0101960E94EC05101611060CF0A6C112
:102530006EED71E0CE0107960E946309CE01079609
:102540000E94C9068C016DEE71E0CE010D960E94CD
:102550006309CE010D960E94C906AC014E5F5F4F24
:1025600098016DE474E0CE0101960E94DA09BE0183
:102570006F5F7F4FCE0185960E945A07CE0101966C
:102580000E94EC05CE010D960E94EC05CE01079647
:102590000E94EC0561EE71E0CE0107960E9463098E
:1025A000CE0107960E94C9068C016EED71E0CE0146
:1025B0000D960E946309CE010D960E94C906AC01DA
:1025C0004E5F5F4F98016DE474E0CE0101960E946A
:1025D000DA09BE016F5F7F4FCE014F960E945A0706
:1025E000CE0101960E94EC05CE010D960E94EC05ED
:1025F000CE0107960E94EC0564EE71E0CE010796CD
:102600000E946309CE0107960E94C9068C0161EE03
:1026100071E0CE010D960E946309CE010D960E94D5
:10262000C906AC014E5F5F4F98016DE474E0CE01C6
:1026300001960E94DA09BE016F5F7F4FCE01499675
:102640000E945A07CE0101960E94EC05CE010D961C
:102650000E94EC05CE0107960E94EC0563E28DE432
:1026600094E00E94E5068C0164EE71E0CE010796CD
:102670000E946309CE0107960E94C906AC014E5F15
:102680005F4F98016DE474E0CE0101960E94DA0973
:10269000BE016F5F7F4FCE0143960E945A07CE0165
:1026A00001960E94EC05CE0107960E94EC05BE0142
:1026B0006B5D7F4FCE0101960E9465086EED71E063
:1026C000CE0101960E94E707BE01615E7F4F0E9426
:1026D000FD0761EE71E00E94E707BE01675E7F4F74
:1026E0000E94FD0764EE71E00E94E707BC01CE0185
:1026F0008B960E944E08CE0101960E94EC0542E0A6
:1027000050E067EE71E0CE018B960E94BB07BE01E0
:10271000655D7F4FCE0101960E94650861E774E018
:10272000CE0101960E942E07182FBE01655D7F4FD6
:10273000CE0107960E9465086AE674E0CE0107960E
:102740000E942E07182BBE01655D7F4FCE010D96AE
:102750000E94650863E674E0CE010D960E942E0784
:10276000182BCE010D960E94EC05CE0107960E9413
:10277000EC05CE0101960E94EC05112309F47EC000
:10278000BE01655D7F4FCE0101960E9465082091D4
:1027900061043091620480915D0490915E04281779
:1027A000390769F188E090E00E94E7188C016DED2F
:1027B00071E00E946309F801178216820115110564
:1027C000F1F0BE016F5F7F4FC8010E944E0820915B
:1027D000590430915A048091610490916204232B32
:1027E00009F071C010935A040093590410935C04CB
:1027F00000935B0401969093620480936104CE0180
:1028000001960E94EC050E94FB02A70196010E941E
:102810006E1ACA01B9014AE00E94470680EF91E0B2
:102820000E943A06BE01655D7F4F88EA93E00E94F0
:10283000D20086E792E00E943A068DE092E00E9484
:10284000BB06609161047091620490E080E04AE010
:102850000E9447068EE192E00E94BB068091A10390
:102860009091A2030E948B068CE192E00E94BB062D
:102870006DE474E083E594E00E944E08CE01439637
:102880000E94EC05CE0149960E94EC05CE014F96C0
:102890000E94EC05CE0185960E94EC05CE018B9638
:1028A0000E94EC05CECD9E3040F42850310981E0E5
:1028B00001C0880F2A95EAF754CD2E503109F7CF81
:1028C0001092A303ACCDE0915B04F0915C041783FC
:1028D00006838CCF6AE070E080E090E00E94C9023D
:1028E0000E94260A6AE070E080E090E00E94C9023F
:1028F0006AE070E080E090E00E94C90267E474E062
:10290000CE0143960E946508E091A103F091A203D5
:10291000E031F10538F5E157FB4E0C94901A9F1405
:102920004C15B7150F1641166F168D16BE16D51617
:10293000EA1612173217471767177E179A178091F2
:10294000590490915A04892B49F0CE0101960E94B6
:102950007409CE0101960E94EC05F1CF8091A3038A
:10296000811105C01092A2031092A10324C080918E
:10297000B6018770843009F086C08EE090E09093B5
:10298000A2038093A1038EE792E00E94BB068AE92E
:1029900092E00E94BB0686EB92E00E94BB0685EDAA
:1029A00092E00E94BB0682EF92E00E94BB068CE19F
:1029B00092E00E94BB06CE0143960E94EC056AE0BD
:1029C00070E080E090E00E94C9020091A1031091A4
:1029D000A2034801F1E08F1A910861E026E0821617
:1029E000910428F0C8010C97049708F060E086E095
:1029F0000E943A0261E043E08416910450F0C8015D
:102A0000069761E08430910520F00797039708F05E
:102A100060E085E00E943A0261E083E0881691045C
:102A200028F0C8010997079708F060E084E00E9449
:102A30003A0261E00230110549F0C801049761E0F3
:102A4000099720F00F30110509F060E087E00E943F
:102A50003A0261E0012B09F060E088E00E943A024E
:102A60006AE070E080E090E00E94C90280E090E0BF
:102A7000892B09F4C3CC0E944A01882309F4BCCCF9
:102A80000E940000B9CC81E090E09093A203809373
:102A9000A1038DE093E079CF8091A303811105C05C
:102AA0001092A2031092A10357C0BE016D5E7F4F2A
:102AB000CE0101960E94650861E774E0CE0101969F
:102AC0000E942E07182FBE016D5E7F4FCE01079624
:102AD0000E9465086AE674E0CE0107960E942E0700
:102AE000182BBE016D5E7F4FCE010D960E946508CA
:102AF00063E674E0CE010D960E942E07182BCE01DE
:102B00000D960E94EC05CE0107960E94EC05CE01C1
:102B100001960E94EC05112309F4EDC182E090E0DA
:102B20009093A2038093A1030E94FB026056704F12
:102B30008F4F9F4F60939D0370939E0380939F03DD
:102B40009093A0030E94FB026093990370939A03F1
:102B500080939B0390939C030E94FB0260939503D8
:102B600070939603809397039093980324CF0E94C9
:102B7000FB0200919D0310919E0320919F033091D1
:102B8000A003601771078207930728F50E94FB02D4
:102B90000091990310919A0320919B0330919C031B
:102BA0003B014C01601A710A820A930A9401830165
:102BB000043F11402105310570F060939903709333
:102BC0009A0380939B0390939C0383E090E09093FF
:102BD000A2038093A1030E94FB0200919503109130
:102BE00096032091970330919803601B710B820B21
:102BF000930B603A7F408105910508F4DCCEBE015D
:102C00006D5E7F4FCE0101960E946508CE01019650
:102C10000E946E08CE0101960E94EC05CCCE0E9467
:102C2000FB0200919D0310919E0320919F03309120
:102C3000A003601771078207930768F60E94FB02E2
:102C40000091990310919A0320919B0330919C036A
:102C50003B014C01601A710A820A930A94018301B4
:102C6000043F11402105310508F4B5CF6093990365
:102C700070939A0380939B0390939C0382E090E06F
:102C8000A6CF0E94FB02009195031091960320911C
:102C9000970330919803601B710B820B930B603587
:102CA00076448105910508F486CE0E94740ABE011F
:102CB0006D5E7F4FCE0101960E94650861E774E06A
:102CC000CE0101960E942E07CE0101960E94EC05CE
:102CD0008DE090E09093A2038093A1033DCF0E94EA
:102CE000FB02009195031091960320919703309178
:102CF0009803601B710B820B930B68327342810542
:102D0000910508F458CE0E94740A8091B60187702C
:102D10008430F1F68EE090E0DDCF0E94FB0200915E
:102D20009503109196032091970330919803601BAF
:102D3000710B820B930B603576448105910508F485
:102D40003ACE0E94740ABE016D5E7F4FCE0101969D
:102D50000E94650861E774E0CE0101960E942E078B
:102D6000CE0101960E94EC05BE016D5E7F4FCE0143
:102D700001960E9465086AE674E0A2CF0E94FB02F9
:102D80000091950310919603209197033091980339
:102D9000601B710B820B930B603E7E428105910597
:102DA00008F409CE0E94740ADFCF0E94FB02009152
:102DB0009503109196032091970330919803601B1F
:102DC000710B820B930B68357B418105910508F4EB
:102DD000F2CD99CF0E94FB020091950310919603CA
:102DE0002091970330919803601B710B820B930B1A
:102DF000603576448105910508F4DDCD0E94740AA2
:102E0000BE016D5E7F4FCE0101960E9465086AE6A5
:102E100074E0CE0101960E942E07CE0101960E9419
:102E2000EC0516C00E94FB020091950310919603D9
:102E30002091970330919803601B710B820B930BC9
:102E4000603576448105910508F4B5CD0E94740A79
:102E5000BE016D5E7F4FCE0101960E94650863E65C
:102E600074E02ECF0E94FB0200919503109196030F
:102E70002091970330919803601B710B820B930B89
:102E8000683273428105910508F495CD3CCF0E94CC
:102E9000FB020091950310919603209197033091C6
:102EA0009803601B710B820B930B60357644810590
:102EB000910508F480CD0E94740ABE016D5E7F4FBB
:102EC000CE0101960E94650861E774E0A2CF0E94DE
:102ED000FB02009195031091960320919703309186
:102EE0009803601B710B820B930B60337547810550
:102EF000910508F460CD81E090E0ECCE0E94FB02E9
:102F000000919503109196032091970330919803B7
:102F1000601B710B820B930B683B78488105910510
:102F200008F449CD8091A303882309F4B9CD8FE03B
:102F300090E0D0CE0E94FB02009195031091960381
:102F40002091970330919803601B710B820B930BB8
:102F5000683A71468105910508F42DCD0E94740AE6
:102F6000BE016D5E7F4FCE0101960E94650861E74C
:102F700074E0CE0101960E942E07CE0101960E94B8
:102F8000EC05BE016D5E7F4FCE0101960E94650883
:102F90006AE674E0CE0101960E942E07CE010196EA
:102FA0000E94EC05BE016D5E7F4FCE0101960E942E
:102FB000650863E674E0CE0101960E942E07CE01FB
:102FC00001960E94EC05A6CEEF92FF920F931F93FD
:102FD000CF93DF937C01D0E0C0E010E000E0F70188
:102FE00080819181248135810217130740F48C0F71
:102FF0009D1F0E94EC050F5F1F4F2696F0CFDF91BB
:10300000CF911F910F91FF90EF900C948319CF9364
:10301000DF9387E494E00E94EC058DE494E00E9445
:10302000EC0583E594E00E94EC05C0915904D09131
:103030005A04209779F08E819F8190935A0480934F
:1030400059041F821E82CE010E94EC05CE010E940F
:103050008319EBCF83E694E00E94E4178AE694E0BC
:103060000E94E41781E794E00E94E4178DEC91E060
:10307000909379048093780480914504909146045C
:103080008857944071F4E0918B04F0918C04908106
:1030900080918D048095892380831092460410923C
:1030A000450481EC94E00E947A0587E994E0DF9181
:1030B000CF910C94C2054532510520F4423010F0F6
:1030C0000C946618FB011082CB010895BB27FB010D
:1030D0005527AA27880F991FAA1FA41710F0A41B11
:1030E00083955051B9F7A05DAA3308F0A95DA1936B
:1030F000009779F7B111B1931192CB010C94131A87
:103100000F931F93CF93DF93009759F461157105C7
:1031100041F4F0E0E0E0CF01DF91CF911F910F91FA
:1031200008958B01EC016EE070E081E090E00E9478
:10313000CB18FC01892B69F380E883830115110505
:1031400071F01387028781E883838091EF04909167
:10315000F004892B21F4F093F004E093EF0420971E
:10316000D1F2D187C0878381826083838091F1040B
:103170009091F204892B79F6F093F204E093F10434
:103180008091F3049091F404892B29F6F093F404D0
:10319000E093F304C0CF0F931F93CF93DF93869FE9
:1031A0008001879F100D969F100D1124C8010E9469
:1031B000E718EC01009729F0A80170E060E00E9498
:1031C0000C1ACE01DF91CF911F910F9108950F93AB
:1031D0001F93CF93DF938230910510F482E090E04B
:1031E000E091F704F091F80430E020E0B0E0A0E0D6
:1031F000309799F42115310509F44AC0281B390B81
:1032000024303105D8F58A819B816115710589F1DA
:10321000FB0193838283FE0111C0408151810281B1
:10322000138148175907E0F04817590799F4109788
:1032300061F012960C93129713961C933296CF015D
:10324000DF91CF911F910F9108950093F704109390
:10325000F804F4CF2115310551F04217530738F027
:10326000A901DB019A01BD01DF01F801C1CFEF0126
:10327000F9CF9093F8048093F704CDCFFE01E20FCD
:10328000F31F819391932250310939832883D7CF3B
:103290002091F5043091F604232B41F42091020192
:1032A000309103013093F6042093F504209100013E
:1032B000309101012115310541F42DB73EB7409100
:1032C000040150910501241B350BE091F504F091A8
:1032D000F604E217F307A0F42E1B3F0B281739075B
:1032E00078F0AC014E5F5F4F2417350748F04E0F62
:1032F0005F1F5093F6044093F504819391939FCF01
:10330000F0E0E0E09CCFCF93DF930097E9F0FC0181
:10331000329713821282A091F704B091F804ED0164
:1033200030E020E01097A1F420813181820F931FBB
:103330002091F5043091F6042817390709F061C08F
:10334000F093F604E093F504DF91CF910895EA013C
:10335000CE17DF07E8F54A815B819E0141155105D3
:10336000B1F7E901FB83EA8349915991C40FD51F55
:10337000EC17FD0761F4808191810296840F951FFF
:10338000E90199838883828193819B838A83F0E01A
:10339000E0E012968D919C9113970097B9F52D91CD
:1033A0003C911197CD010296820F931F2091F50455
:1033B0003091F6042817390739F6309751F51092F5
:1033C000F8041092F704B093F604A093F504BCCF70
:1033D000D383C28340815181840F951FC817D907B9
:1033E00061F44E5F5F4F88819981480F591F518367
:1033F00040838A819B81938382832115310509F063
:10340000B0CFF093F804E093F7049ECFFD01DC0108
:10341000C0CF13821282D7CFDC0101C06D9341501F
:103420005040E0F70895DC01FC01672F719177238C
:10343000E1F7329704C07C916D9370836291AE176F
:10344000BF07C8F308952F923F924F925F926F92F9
:103450007F928F929F92AF92BF92CF92DF92EF9224
:10346000FF920F931F93CF93DF93CDB7DEB7CA1BA5
:10347000DB0B0FB6F894DEBF0FBECDBF09942A88D0
:10348000398848885F846E847D848C849B84AA8478
:10349000B984C884DF80EE80FD800C811B81AA8105
:1034A000B981CE0FD11D0FB6F894DEBF0FBECDBFD0
:1034B000ED01089597FB072E16F4009407D077FDD1
:1034C00009D00E94961A07FC05D03EF4909581958C
:1034D0009F4F0895709561957F4F0895A1E21A2E30
:1034E000AA1BBB1BFD010DC0AA1FBB1FEE1FFF1FA8
:1034F000A217B307E407F50720F0A21BB30BE40BF8
:10350000F50B661F771F881F991F1A9469F760953E
:103510007095809590959B01AC01BD01CF010895F8
:10352000EE0FFF1F0590F491E02D0994AA1BBB1B21
:1035300051E107C0AA1FBB1FA617B70710F0A61BB3
:10354000B70B881F991F5A95A9F780959095BC01D4
:10355000CD010895B0E0A0E0E0EBFAE10C94251A6B
:103560008C01009751F4CB010E94E7188C01C8012F
:10357000CDB7DEB7E0E10C94411AFC01E60FF71F6E
:103580009C0122503109E217F30708F49DC0D901CC
:10359000CD91DC911197C617D70798F0C530D105AA
:1035A00030F3CE0104978617970708F3C61BD70B95
:1035B0002297C193D1936D937C93CF010E9483197D
:1035C000D6CF5B01AC1ABD0A4C018C0E9D1EA0919A
:1035D000F704B091F804512C412CF12CE12C1097F8
:1035E00031F58091F5049091F6048815990509F05C
:1035F0005CC04616570608F058C0809100019091B3
:103600000101009741F48DB79EB74091040150919C
:103610000501841B950BE817F90708F055C0F093D6
:10362000F604E093F504F90171836083A0CF8D91D6
:103630009C91119712966C90129713967C90139709
:10364000A815B90559F56C0142E0C40ED11CCA1485
:10365000DB0420F1AC014A195B09DA0112961597D7
:1036600080F06282738251834083D9016D937C9391
:10367000E114F10471F0D7011396FC93EE931297C5
:1036800076CF22968C0F9D1FF90191838083F301E1
:10369000EFCFF093F804E093F70469CF481659068A
:1036A00008F42C017D01D3019ACFCB010E94E718C9
:1036B0007C01009749F0AE01B8010E94671BC80168
:1036C0000E948319870153CF10E000E050CFFB0127
:1036D000DC0102C001900D9241505040D8F708958E
:1036E000FC018191861721F08823D9F79927089545
:1036F0003197CF010895FB01DC018D910190801974
:103700000110D9F3990B0895FB01DC0101900D9292
:103710000020E1F70895FB0151915523A9F0BF0165
:10372000DC014D9145174111E1F759F4CD010190AC
:10373000002049F04D9140154111C9F3FB014111A1
:10374000EFCF81E090E00197089510E0C2E6D0E06D
:1037500004C0FE010E94901A2196C336D107C9F712
:04376000F894FFCF0B
:103764000000F904800018000000000000000000C0
:10377400E8FFE8FF00000000000014000000000063
:1037840000000000ECFFECFF00000000000000005F
:103794000000D90538060000000091052A064805F6
:1037A400450542053F05E7033405F904E004C70471
:1037B400EA0388046404020000000000A4052C0647
:1037C400FEFFFEFF000092052E060600000000002A
:1037D4005C051E06FAFFFAFF00004A0520068C016C
:1037E4000C01160196011800000000007A05080675
:1037F400E8FFE8FF000087051206A80120012A015E
:10380400B201140000000000C205F405ECFFECFF57
:103814000000CF05FE0502000000008001E0000D5D
:1038240001CD013E011C013001000000002003E035
:1038340000E7031F037C03940307030D0A003C3CC9
:10384400003E3E005E5E00230A002B2B007B7B00C3
:103854002073202D3E20004C0020534552564544F1
:103864000057616974696E6720697320004C696E42
:10387400657320696E2071756575653A200043751E
:103884007272656E742073746174652069733A2072
:10389400530041726475696E6F20776974682048BB
:1038A400432D303620697320726561647900425477
:1038B40073657269616C20737461727465642061EC
:1038C400742039363030005354617274206F66208E
:1038D4006672616D65002050555348454400437538
:1038E4007272656E74206D6F6465206973207B202D
:1038F4003C2C205E2C203E207D004C65667420709C
:103904006861736520657874656E73696F6E20698C
:1039140073206F666600466F727761726420706808
:1039240061736520657874656E73696F6E20697361
:10393400206F6666005269676874207068617365F9
:1039440020657874656E73696F6E206973206F6685
:103954006600446576696174696F6E73206172658F
:10396400206E6F742068616E646C656400437572C8
:1039740072656E74206D6F6465206973207B205EB0
:0C3984002C203E207D207B203C207D007C
:107E0000112484B714BE81FFF0D085E080938100F7
:107E100082E08093C00088E18093C10086E0809377
:107E2000C20080E18093C4008EE0C9D0259A86E02C
:107E300020E33CEF91E0309385002093840096BBD3
:107E4000B09BFECF1D9AA8958150A9F7CC24DD24C4
:107E500088248394B5E0AB2EA1E19A2EF3E0BF2EE7
:107E6000A2D0813461F49FD0082FAFD0023811F036
:107E7000013811F484E001C083E08DD089C08234E0
:107E800011F484E103C0853419F485E0A6D080C0E4
:107E9000853579F488D0E82EFF2485D0082F10E0AE
:107EA000102F00270E291F29000F111F8ED06801E7
:107EB0006FC0863521F484E090D080E0DECF843638
:107EC00009F040C070D06FD0082F6DD080E0C81688
:107ED00080E7D80618F4F601B7BEE895C0E0D1E017
:107EE00062D089930C17E1F7F0E0CF16F0E7DF06D8
:107EF00018F0F601B7BEE89568D007B600FCFDCFD4
:107F0000A601A0E0B1E02C9130E011968C91119780
:107F100090E0982F8827822B932B1296FA010C0160
:107F200087BEE89511244E5F5F4FF1E0A038BF0790
:107F300051F7F601A7BEE89507B600FCFDCF97BE46
:107F4000E89526C08437B1F42ED02DD0F82E2BD052
:107F50003CD0F601EF2C8F010F5F1F4F84911BD097
:107F6000EA94F801C1F70894C11CD11CFA94CF0C13
:107F7000D11C0EC0853739F428D08EE10CD085E9AC
:107F80000AD08FE07ACF813511F488E018D01DD067
:107F900080E101D065CF982F8091C00085FFFCCF94
:107FA0009093C60008958091C00087FFFCCF809118
:107FB000C00084FD01C0A8958091C6000895E0E648
:107FC000F0E098E1908380830895EDDF803219F02E
:107FD00088E0F5DFFFCF84E1DECF1F93182FE3DFCA
:107FE0001150E9F7F2DF1F91089580E0E8DFEE27F6
:047FF000FF270994CA
:027FFE00040479
:0400000300007E007B
:00000001FF
