:100000000C9463000C948B000C948B000C948B006C
:100010000C948B000C948B000C948B000C948B0034
:100020000C948B000C948B000C948B000C948B0024
:100030000C948B000C948B000C948B000C948B0014
:100040000C94F8090C948B000C94C6090C94A0092C
:100050000C948B000C948B000C948B000C948B00F4
:100060000C948B000C948B000000000024002700EF
:100070002A0000000000250028002B0000000000DE
:1000800023002600290004040404040404040202DA
:100090000202020203030303030301020408102007
:1000A0004080010204081020010204081020000012
:1000B0000008000201000003040700000000000027
:1000C0000000560BDD0F11241FBECFEFD8E0DEBFBE
:1000D000CDBF12E0A0E0B1E0E2E9F3E202C005909A
:1000E0000D92A83BB107D9F724E0A8EBB2E001C01C
:1000F0001D92A630B207E1F710E0C2E6D0E004C0DE
:100100002197FE010E94B611C136D107C9F70E949E
:10011000D90B0C94BC110C9400001F93CF93DF9368
:10012000182FC091E402D091E5028A3041F4E881B1
:10013000F9810190F081E02D6DE0CE010995E88113
:10014000F9810190F081E02D612FCE01099521E028
:1001500030E0019711F430E020E0C901DF91CF9148
:100160001F910895CF93DF93C091E402D091E502EF
:10017000E881F9810084F185E02DCE010995892B74
:10018000B9F3E881F9810284F385E02DCE01DF9196
:10019000CF9109940F931F93CF93DF93EC018B01C1
:1001A0008091DB029091DC029A838983E981FA8154
:1001B0008091DD029091DE028E179F07E1F0A4810D
:1001C000B581E091E202F091E3024C9111965C91CD
:1001D000119712966C91129713967C91139714961F
:1001E0008C910995F8019081891728F4E981FA81A9
:1001F00082819381D9CFCE01DF91CF911F910F9151
:100200000895DC01ED91FC910190F081E02D0994BD
:10021000AF92BF92CF92DF92EF92FF920F931F9314
:10022000CF93DF936C017B018B01040F151FEB0152
:100230005E01AE18BF08C017D10759F06991D60109
:10024000ED91FC910190F081E02DC6010995892B7B
:1002500079F7C501DF91CF911F910F91FF90EF903A
:10026000DF90CF90BF90AF900895FC01538D448DE7
:10027000252F30E0842F90E0821B930B541710F051
:10028000CF96089501970895FC01918D828D98175E
:1002900061F0A28DAE0FBF2FB11D5D968C91928D36
:1002A0009F5F9F73928F90E008958FEF9FEF089567
:1002B000FC01918D828D981731F0828DE80FF11D30
:1002C000858D90E008958FEF9FEF0895FC01918D4B
:1002D000228D892F90E0805C9F4F821B91098F7344
:1002E0009927089588EE92E00E94660121E0892B0B
:1002F00009F420E0822F089580E090E0892B29F016
:100300000E94720181110C9400000895FC01A48DDB
:10031000A80FB92FB11DA35ABF4F2C91848D90E027
:1003200001968F739927848FA689B7892C93A0890A
:10033000B1898C91837080648C93938D848D981394
:1003400006C00288F389E02D80818F7D8083089527
:10035000EF92FF920F931F93CF93DF93EC0181E015
:10036000888F9B8D8C8D98131AC0E889F9898081BC
:1003700085FF15C09FB7F894EE89FF896083E889EF
:10038000F98980818370806480839FBF81E090E0E1
:10039000DF91CF911F910F91FF90EF900895F62E6E
:1003A0000B8D10E00F5F1F4F0F731127E02E8C8D08
:1003B0008E110CC00FB607FCFACFE889F98980814D
:1003C00085FFF5CFCE010E948601F1CFEB8DEC0FBA
:1003D000FD2FF11DE35AFF4FF0829FB7F8940B8F6A
:1003E000EA89FB8980818062CFCFCF93DF93EC01D4
:1003F000888D8823B9F0AA89BB89E889F9898C910D
:1004000085FD03C0808186FD0DC00FB607FCF7CFC8
:100410008C9185FFF2CF808185FFEDCFCE010E94C8
:100420008601E9CFDF91CF910895833081F028F4E0
:10043000813099F08230A9F008958730A9F0883092
:10044000C9F08430B1F4809180008F7D03C0809129
:1004500080008F7780938000089584B58F7784BD66
:10046000089584B58F7DFBCF8091B0008F77809306
:10047000B00008958091B0008F7DF9CFCF93DF93C6
:10048000282F30E0F901E255FF4F8491F901E6563B
:10049000FF4FD491F901EA57FF4FC491CC23A1F04B
:1004A00081110E941502EC2FF0E0EE0FFF1FE458BF
:1004B000FF4FA591B491EC91ED2381E090E009F418
:1004C00080E0DF91CF91089580E090E0FACF1F9314
:1004D000CF93DF93282F30E0F901E255FF4F84914D
:1004E000F901E656FF4FD491F901EA57FF4FC49145
:1004F000CC23A9F0162F81110E941502EC2FF0E0F9
:10050000EE0FFF1FEE58FF4FA591B4918FB7F894EF
:10051000EC91111108C0D095DE23DC938FBFDF91E1
:10052000CF911F910895DE2BF8CFCF93DF9390E00A
:10053000FC01E656FF4F24918A579F4FFC0184919E
:100540008823D1F090E0880F991FFC01E859FF4FF4
:10055000A591B491FC01EE58FF4FC591D491623042
:1005600071F49FB7F8943C91822F809583238C93EC
:10057000E8812E2B28839FBFDF91CF9108958FB7FD
:10058000F894EC912E2B2C938FBFF6CF3FB7F894B5
:100590008091C5029091C602A091C702B091C80295
:1005A00026B5A89B05C02F3F19F00196A11DB11DCE
:1005B0003FBFBA2FA92F982F8827BC01CD01620F0A
:1005C000711D811D911D42E0660F771F881F991FC5
:1005D0004A95D1F708958F929F92AF92BF92CF9292
:1005E000DF92EF92FF920E94C6024B015C018AE00B
:1005F000C82ED12CE12CF12C0E94C6026819790971
:100600008A099B09683E734081059105A8F321E0A2
:10061000C21AD108E108F10888EE880E83E0981E1E
:10062000A11CB11CC114D104E104F10429F7FF900D
:10063000EF90DF90CF90BF90AF909F908F900895F4
:100640002FB7F8946091C1027091C2028091C302E9
:100650009091C4022FBF0895CB0108954F925F92ED
:100660006F927F92BF92CF92DF92EF92FF920F93A1
:100670001F93CF93DF93EC0129013A018B01C12C29
:10068000D12C7601C414D504E604F7040CF03FC065
:10069000F801B1908F018F8580FF0BC0E881F9814F
:1006A0000084F185E02D20E144E070E060E0CE01BF
:1006B0000995EB85FC858D859E85E817F90760F423
:1006C000B0828B859C8501969C878B872FEFC21A01
:1006D000D20AE20AF20AD6CF6B2D70E0E881F981E6
:1006E000028CF38DE02DCE010995019679F7C701B3
:1006F000B601DF91CF911F910F91FF90EF90DF90A6
:10070000CF90BF907F906F905F904F90089573014E
:100710006201EDCFCF93DF93EC01E881F98102888C
:10072000F389E02D09958F3F980731F02D813E81A7
:100730002F5F3F4F3E832D83DF91CF9108958FEF41
:100740009FEF089560E070E0CB01089590E080E0B5
:100750000895FF920F931F93CF93DF938C01EB01CA
:100760006F3F7607B9F0F62EEAE06E1306C06DE033
:10077000F801808991890E9401016F2DF80180891B
:1007800091890E940101CE01DF91CF911F910F91BC
:10079000FF900895D0E0C0E0F6CF7F928F929F92B5
:1007A000AF92BF92CF92DF92EF92FF920F931F937F
:1007B000CF93DF938C0149015A01EB01C12CD12C5D
:1007C0007601C814D904EA04FB04B4F479908AE0F1
:1007D000781206C06DE0F801808991890E940101BC
:1007E000672DF801808991890E940101FFEFCF1ADE
:1007F000DF0AEF0AFF0AE5CFC501B401DF91CF910F
:100800001F910F91FF90EF90DF90CF90BF90AF902E
:100810009F908F907F900895CF93DF93EC0188890C
:100820009989DC01ED91FC910084F185E02D099519
:10083000892BA9F388899989DC01ED91FC910284C7
:10084000F385E02DDF91CF910994CF93DF93EC01F5
:1008500088899989DC01ED91FC910084F185E02D76
:100860000995892BA9F388899989DC01ED91FC917F
:100870000484F585E02DDF91CF9109948F929F92AA
:10088000AF92BF92CF92DF92EF92FF920F931F939E
:10089000CF93DF938C0149015A01EB01C12CD12C7C
:1008A0007601D80150968D919C91DC01ED91FC91DF
:1008B0000284F385E02D09958F3F61F0C814D904B7
:1008C000EA04FB043CF48993BFEFCB1ADB0AEB0A82
:1008D000FB0AE7CFC701B601DF91CF911F910F91BE
:1008E000FF90EF90DF90CF90BF90AF909F908F9050
:1008F0000895DC0150968D919C91DC01ED91FC9165
:100900000084F185E02D099490E080E0089590E066
:1009100080E0089590E080E0089508950895DC0156
:10092000ED91FC9136970190F081E02DE80FF91FD1
:1009300082E891E0918380838CE891E097838683BD
:10094000089522E831E0FC01318320832CE831E076
:10095000378326830895FB0120813181FC01318397
:100960002083FB014281538126503109F901208106
:100970003181820F931FFC015183408308952EE93A
:1009800031E0FC013183208328EA31E0318F208F70
:1009900062E971E00C94AB04DC01ED91FC913697B7
:1009A00020813181820F931F0C94BF040895DC01D4
:1009B000ED91FC9136970190F081E02DE80FF91F41
:1009C0008EE691E09183808388E791E09383828330
:1009D00008952EE631E0FC013183208328E731E0E1
:1009E000338322830895FB0120813181FC0131830F
:1009F0002083FB014281538126503109F901208176
:100A00003181820F931FFC015183408308952AEBAB
:100A100031E0FC013183208324EC31E0358B248BE1
:100A20006EEA71E00C94F304DC01ED91FC913697D1
:100A300020813181820F931F0C9407050895CF9375
:100A4000DF9300D000D01F92CDB7DEB7842F0F9078
:100A50000F900F900F900F90DF91CF910895CF934B
:100A6000DF93EB01AC81BD8130E020E02A173B072A
:100A700081F0EB01E881F981A901440F551FE40FD2
:100A8000F51F408151814817590739F02F5F3F4FBB
:100A9000EDCF80E0DF91CF91089581E0FBCFCF9340
:100AA000DF93EC010E940705CE01DF91CF910C94FA
:100AB0000411DC01ED91FC91369720813181820F88
:100AC000931F0C944F05CF93DF93EC010E94BF045A
:100AD000CE01DF91CF910C940411DC01ED91FC91DA
:100AE000369720813181820F931F0C9463050C94FB
:100AF00004110C940411DC01ED91FC9136972081D6
:100B00003181820F931F0C9479050C9404110C947D
:100B10000411DC01ED91FC91369720813181820F27
:100B2000931F0C9487050C9404110F931F93CF937C
:100B3000DF93EC018B01198218821B821A8285E0F7
:100B400090E00E94681025E0F801DC0101900D9210
:100B50002A95E1F79D838C83DF91CF911F910F91AF
:100B60000895AF92BF92CF92DF92EF92FF920F93D0
:100B70001F93CF93DF9300D000D0CDB7DEB77C01B9
:100B80008B01DC0112961C921E92119713961C92F7
:100B9000E091E202F091E302DB014C9111965C914D
:100BA000119712966C91129713967C911397149645
:100BB0008C9109958C83BE016C5F7F4FCE010196AD
:100BC0000E94CA0081E0F7018383EA81FB81809162
:100BD000DD029091DE028E179F0709F063C08091BD
:100BE000DF029091E002892BC9F586E090E00E9437
:100BF00068106C01B8010E949505D092DC02C09289
:100C0000DB02E091DD02F091DE02D182C082D601EA
:100C100011961C921E921396FC93EE93129781E00C
:100C200090E09093E0028093DF02E091DD02F0918A
:100C3000DE0280819181F70192838183C7010F9049
:100C40000F900F900F90DF91CF911F910F91FF9018
:100C5000EF90DF90CF90BF90AF90089586E090E046
:100C60000E9468106C01B8010E949505E091DD02B8
:100C7000F091DE0280819181D60111969C938E9332
:100C80001396FC93EE931297A081B1811396DC9298
:100C9000CE921297D182C0828091DF029091E002C1
:100CA0000196BFCFA481B581E091E202F091E30209
:100CB0004C9111965C91119712966C911297139624
:100CC0007C91139714968C910995D82EE091E202AD
:100CD000F091E302D8014C9111965C911197129614
:100CE0006C91129713967C91139714968C91099599
:100CF000AA80BB808D1588F586E090E00E94681080
:100D00006C01B8010E949505F50180819181D601A1
:100D100011969C938E931396BC92AE921297892B48
:100D2000B1F4D092DC02C092DB02F501D182C08224
:100D30008091DF029091E00201969093E00280930F
:100D4000DF02D7011296DC92CE92119777CF0190F5
:100D5000F081E02DD382C282E8CFF7011382B28204
:100D6000A1826CCF0F931F93CF93DF93CDB7DEB7E4
:100D70002C970FB6F894DEBF0FBECDBF8C01BC011F
:100D8000CE010A960E94CA00EB85FC852091DD0207
:100D90003091DE02D8018C912E173F0731F004808C
:100DA000F581E02D9081891780F489831A821B8256
:100DB0001C821D82BE016F5F7F4FCE0106960E948E
:100DC000B1058F8198859C878B87EB85FC85848115
:100DD000958101962C960FB6F894DEBF0FBECDBF5D
:100DE000DF91CF911F910F910895FC010190002098
:100DF000E9F73197AF01481B590BBC0188EE92E02F
:100E00000C9408018F929F92AF92BF920F931F9301
:100E1000CF93DF93CDB7DEB7A1970FB6F894DEBFBF
:100E20000FBECDBF19A2423008F44AE08E010F5D1B
:100E30001F4F842E912CB12CA12CA50194010E944E
:100E40009411E62FB901CA01EA30F4F4E05DD8014B
:100E5000EE938D01232B242B252B79F790E080E056
:100E6000109719F0CD010E94F506A1960FB6F894DF
:100E7000DEBF0FBECDBFDF91CF911F910F91BF900D
:100E8000AF909F908F900895E95CE1CFCF92DF9271
:100E9000EF92FF92CF93DF936C01990FEE08FF085A
:100EA000F7FE1FC06DE288EE92E00E940101EC01A6
:100EB00066277727CB016C197D098E099F094AE0C7
:100EC0000E940207C80FD91F8BED91E00E94F50622
:100ED0008C0F9D1FDF91CF91FF90EF90DF90CF900F
:100EE00008954AE0C701B6010E940207EC01ECCF69
:100EF000CF93DF930E94F506EC018BED91E00E9409
:100F0000F5068C0F9D1FDF91CF910895CF93DF934E
:100F1000BC0190E080E04AE00E940207EC018BED0A
:100F200091E00E94F5068C0F9D1FDF91CF910895EF
:100F3000CF93DF93E0918503F0918603309709F416
:100F40008BC0EC0180918D0390918E03892B09F465
:100F500081C080819181C817D90709F07DC0828145
:100F600093819093860380938503CF010E9404119F
:100F70008091850390918603892B21F41092880338
:100F80001092870320918D0330918E0321503109F7
:100F900030938E0320938D032C2F9D2F2093D70207
:100FA0009093D8020E94200328EE33E040E050E006
:100FB0000E949411CA01B9014AE00E9402078EED15
:100FC00091E00E94F50689E092E00E94F506BE01DC
:100FD00090E080E04AE00E94020785EE91E00E94E6
:100FE00078078DEE91E00E94F50680918D03909137
:100FF0008E030E9486078091850390918603892B3A
:10100000B1F08EEF91E00E94F50680918D039091F2
:101010008E03009751F0E0918503F091860390E0F4
:1010200080E0309711F0808191810E9486078BE0EB
:1010300092E00E94F5068091D5029091D6020E941E
:1010400046078CEF91E0DF91CF910C94780720E078
:1010500090E0A4CF2097D9F3DF91CF910895FF922C
:101060000F931F93CF93DF93182FEB016DE973E07C
:10107000CE010E942F05082F812F857021F484E076
:1010800090E001110EC0177066E973E0CE010E9476
:101090002F05F82E802F8F29D9F01130C9F486E062
:1010A00090E09093D6028093D502CE010E949807DB
:1010B0000E9420036093C9027093CA028093CB02FE
:1010C0009093CC02DF91CF911F910F91FF900895E3
:1010D00081E0133011F0111180E0FF2029F0882306
:1010E00019F087E090E0DDCF6FE873E0CE010E9459
:1010F0002F05123029F4F82A51F089E090E0D1CF81
:10110000123028F4882319F08AE090E0CACF082B27
:1011100021F08CE090E0133021F281E090E0909398
:10112000D6028093D502C4CFEF92FF920F931F9304
:10113000CF93DF93CDB7DEB764970FB6F894DEBFD9
:101140000FBECDBF8C8B7B018091B802811146C050
:101150008AE089831A821B821C821D828BE08E8327
:101160001F82188619861A868B871C861D861E8606
:101170001F861092E0021092DF0286E090E00E944B
:101180006810FC011182108213821282158214826F
:101190009093DC028093DB029093DE028093DD0269
:1011A0008FE195E09093E3028093E202BE016F5FCE
:1011B0007F4FCE0140960E94B105BE016A5F7F4F0E
:1011C000CE0140960E94B105BE01655F7F4FCE0102
:1011D00040960E94B10581E08093B8028C890E94FC
:1011E0003E02892B09F09DC00E94EB028C890E946F
:1011F0003E02892B09F081C0CE0144960E94B206BE
:10120000FC0180819181A281B381892B8A2B8B2B58
:1012100009F073C000918D0310918E0380918903B2
:1012200090918A030817190701F184E090E00E9469
:101230006810FC01138212820097B9F0F182E082FB
:101240000F5F1F4F2091850330918603232B09F0F8
:1012500061C0909386038093850390938803809365
:10126000870310938E0300938D030E94200328EEC2
:1012700033E040E050E00E949411CA01B9014AE015
:101280000E9402078EED91E00E94F50689E092E04F
:101290000E94F506B70190E080E04AE00E94020754
:1012A0008FE192E00E9478078DEE91E00E94F506B2
:1012B00080918D0390918E030E9486078BE092E0CF
:1012C0000E94F5068091D5029091D6020E944607B1
:1012D0008CEF91E00E947807CE0144960E94B206FE
:1012E000FC0140815181628173814F5F5F4F6F4F7D
:1012F0007F4F408351836283738364960FB6F89463
:10130000DEBF0FBECDBFDF91CF911F910F91FF9038
:10131000EF900895E0918703F0918803938382838F
:101320009CCF8C890E943E02019739F7CE014496EA
:101330000E94B206FC011082118212821382DDCF5C
:101340001F920F920FB60F9211242F933F934F933A
:101350005F936F937F938F939F93AF93BF93EF931D
:10136000FF9388EE92E00E948601FF91EF91BF917A
:10137000AF919F918F917F916F915F914F913F912D
:101380002F910F900FBE0F901F9018951F920F92E4
:101390000FB60F9211242F938F939F93EF93FF9388
:1013A000E091F802F091F9028081E091FE02F09163
:1013B000FF0282FD1BC09081809101038F5F8F73BC
:1013C00020910203821741F0E0910103F0E0E8511F
:1013D000FD4F958F80930103FF91EF919F918F9126
:1013E0002F910F900FBE0F901F9018958081F4CF12
:1013F0001F920F920FB60F9211242F933F938F934A
:101400009F93AF93BF938091C1029091C202A0912C
:10141000C302B091C4023091C00223E0230F2D37E4
:1014200058F50196A11DB11D2093C0028093C10201
:101430009093C202A093C302B093C4028091C502EC
:101440009091C602A091C702B091C8020196A11D59
:10145000B11D8093C5029093C602A093C702B093BA
:10146000C802BF91AF919F918F913F912F910F90A3
:101470000FBE0F901F90189526E8230F0296A11D0E
:10148000B11DD2CFCF93DF93EB0188819981AEEC70
:10149000B3E011969C938E932A813B810697EC01D1
:1014A000E881F981E253FC4F3183208312961D922B
:1014B0001D921D921C92159781E290E09483838384
:1014C00084ED93E0948B838B1582158ADF91CF9105
:1014D0000895CF93DF93CEECD3E081E290E09C8F30
:1014E0008B8F1D8E1E8E1F8E86E090E0A0E0B0E0F8
:1014F00088A399A3AAA3BBA31CA21DA21EA21FA2DC
:1015000084E491E0998F888F80E288A71AA619A6B3
:1015100084ED93E09CA78BA71DA6AC0162E971E066
:10152000CE010E94420A8EE991E09983888388EA7D
:1015300091E0998F888F1A8619861C861B861E86D5
:101540001D86188A1F861A8A198A1C8A1B8A8CE4AF
:1015500091E09F838E8388EE92E09F8B8E8B88E054
:101560008D8BDF91CF910895DB018D919C91119727
:101570009093A5038093A40312962D913C91069716
:10158000DC01ED91FC91EC55FC4F3183208381E22D
:1015900090E09483838386EA93E0948B838B158217
:1015A000158A0895CF93DF93C4EAD3E081E290E0F7
:1015B000988F8F8B198E1A8E1B8E86E090E0A0E09C
:1015C000B0E08C8F9D8FAE8FBF8F18A219A21AA288
:1015D0001BA284E491E09D8B8C8B80E28CA31EA2E5
:1015E0001DA286EA93E098A78FA319A6AC016EEA24
:1015F00071E0CE010E94B40A8AEB91E0998388835E
:1016000084EC91E09D8B8C8B1E821D8218861F823C
:101610001A8619861C861B861E861D86188A1F86BA
:101620008CE491E09B838A8388EE92E09B8B8A8B8B
:1016300080E1898BDF91CF910895CF92DF92EF9275
:10164000FF920F931F93CF93DF938C016A01EB01FD
:10165000CB010896D80113969C938E9312971596FA
:101660007C936E931497880F991F0E946810F8015D
:1016700080839183FC0190E080E0C817D90769F06E
:10168000309729F0D6012D913C913183208301962A
:101690003296B2E0CB0ED11CF0CFDF91CF911F91EB
:1016A0000F91FF90EF90DF90CF9008950F931F93CD
:1016B000CF93DF93C8EED2E01B821A8288EE93E0CC
:1016C000A0E0B0E08C839D83AE83BF838DEC91E07E
:1016D0009983888385EC90E09D878C8784EC90E0EB
:1016E0009F878E8780EC90E0998B888B81EC90E0CF
:1016F0009B8B8A8B82EC90E09D8B8C8B86EC90E0B0
:101700009F8B8E8B198E1A8E1B8E1C8EBE0184EAC7
:1017100093E00E94D20ABE018EEC93E00E94690A17
:1017200004EE12E0F80113821282D183C08362EBCF
:1017300070E08DE890E00E940110F80193838283AD
:1017400040910601509107016091080170910901D3
:101750008DE993E00E941D0B40910A0150910B010D
:1017600060910C0170910D0186E993E00E941D0BC0
:1017700040910E0150910F01609110017091110183
:101780008FE893E00E941D0BE5E8F3E011821082E0
:10179000138212828AE090E09583848384E190E052
:1017A0009783868311861086DF91CF911F910F91C9
:1017B0000895CF93DF9300D000D0CDB7DEB77894F3
:1017C00084B5826084BD84B5816084BD85B5826046
:1017D00085BD85B5816085BD80916E0081608093F7
:1017E0006E00109281008091810082608093810060
:1017F0008091810081608093810080918000816070
:10180000809380008091B10084608093B1008091CA
:10181000B00081608093B00080917A0084608093F2
:101820007A0080917A00826080937A0080917A00B9
:10183000816080937A0080917A00806880937A003A
:101840001092C10061E086E00E94950261E085E0AF
:101850000E94950261E084E00E94950261E087E0C9
:101860000E94950261E088E00E94950262E08AE0B1
:101870000E94950262E08BE00E94950262E089E09E
:101880000E94950262E08CE00E9495020E94200373
:101890006093C9027093CA028093CB029093CC02EA
:1018A000E091F802F091F90282E08083E091F40285
:1018B000F091F50283E08083E091F602F091F70267
:1018C00080E4808310920003E091FC02F091FD021D
:1018D00086E08083E091FA02F091FB0280818061D2
:1018E0008083E091FA02F091FB028081886080831E
:1018F000E091FA02F091FB02808180688083E091A0
:10190000FA02F091FB0280818F7D80832EE0E22E2F
:10191000F12C3BE0C32ED12C45E0842E912C52E0DB
:10192000652E712C8CE00E943E02892B09F055C077
:101930000E94EB028CE00E943E02892B21F42224BB
:1019400023942092D9020E94EB02E0918503F0914A
:101950008603309709F444C080918D0390918E03E3
:10196000009711F0808191819093D8028093D702E3
:101970000E94EB026FE070E08AE00E94940860E150
:1019800070E08BE00E9494086AE170E089E00E94B8
:1019900094080E94EB020091D7021091D802B090F7
:1019A000C801E091D502F091D602E031F10508F0CE
:1019B0004AC0E352F34F0C94B611F50CAB0DF00D89
:1019C000420E870E410FA70ECA0EE50E030F200F21
:1019D000410F5D0F7A0F910FB40F1092D902B3CF60
:1019E0001092D8021092D702C3CF809185039091B4
:1019F000860320918D0330918E03009701F121150C
:101A00003105D9F3FC012281338130938603209381
:101A100085030E9404118091850390918603892B90
:101A200021F4109288031092870380918D03909186
:101A30008E03019790938E0380938D03D6CF809170
:101A4000D902811105C01092D6021092D5021DC094
:101A50008B2D8770843009F074C0F092D602E0922A
:101A6000D50287E292E00E94780783E492E00E9428
:101A700078078EE592E00E9478078DE792E00E9459
:101A800078078CEF91E00E9478070E94EB020091AA
:101A9000D5021091D6025801F1E0AF1AB10861E009
:101AA00026E0A216B10428F0C8010C97049708F0AC
:101AB00060E086E00E94670261E033E0A316B104B3
:101AC00050F0C801069761E08430910520F0079737
:101AD000039708F060E085E00E94670261E043E060
:101AE000A416B10428F0C8010997079708F060E030
:101AF00084E00E94670261E00230110549F0C801EC
:101B0000049761E0099720F00F30110509F060E0BB
:101B100087E00E94670261E0012B09F060E088E045
:101B20000E9467020E94EB0280E090E0892B09F49A
:101B3000F9CE0E947201882309F4F4CE0E940000BD
:101B4000F1CE22242394312C3092D6022092D50259
:101B500089E992E088CF8091D902811105C0109265
:101B6000D6021092D50231C06DE973E0C8010E941F
:101B70002F05B82E66E973E0C8010E942F05B82A28
:101B80006FE873E0C8010E942F05B11002C08823DE
:101B9000E1F07092D6026092D5020E942003605656
:101BA000704F8F4F9F4F6093D1027093D2028093FA
:101BB000D3029093D4020E9420036093CD027093CD
:101BC000CE028093CF029093D0020E9420036093B4
:101BD000C9027093CA028093CB029093CC0255CF76
:101BE0000E9420032091D1023091D2024091D30271
:101BF0005091D402621773078407950728F50E9455
:101C000020032091CD023091CE024091CF0250911D
:101C1000D0021B012C01221A330A440A550A24EF70
:101C2000221621E032064104510470F06093CD0287
:101C30007093CE028093CF029093D00243E050E0A5
:101C40005093D6024093D5020E9420032091C902EE
:101C50003091CA024091CB025091CC02621B730BAF
:101C6000840B950B603A7F408105910508F40DCFF8
:101C70006894B3F8E894B4F8B8018B2D80620E94A0
:101C80002F0803CF0E9420032091D1023091D2026D
:101C90004091D3025091D4026217730784079507CD
:101CA00008F50E9420032090CD023090CE02409093
:101CB000CF025090D0029B01AC0122193309440994
:101CC0005509243F31404105510560F06093CD0234
:101CD0007093CE028093CF029093D0027092D6027E
:101CE0006092D5020E9420032091C9023091CA025D
:101CF0004091CB025091CC02621B730B840B950B6D
:101D0000603A7F408105910508F4BFCEB1CF0E94B3
:101D100020032091C9023091CA024091CB02509118
:101D2000CC02621B730B840B950B603576448105E6
:101D3000910508F4AACE6DE973E0C8010E942F0551
:101D40008823E1F19092D6028092D50209C10E94C7
:101D500020032091C9023091CA024091CB025091D8
:101D6000CC02621B730B840B950B603576448105A6
:101D7000910508F48ACE6DE973E0C8010E942F0531
:101D80008111E0CF8DE0282E312C3092D6022092A6
:101D9000D5021BCF0E9420030091C9021091CA02F4
:101DA0002091CB023091CC02601B710B820B930B04
:101DB000603E7E428105910508F467CE4DE050E01B
:101DC0005093D6024093D50200CF0E942003009189
:101DD000C9021091CA022091CB023091CC02601B43
:101DE000710B820B930B68357B418105910508F4DB
:101DF0004CCE8B2D8770843009F058C0F092D602FB
:101E0000E092D502E2CE0E9420032091C9023091D7
:101E1000CA024091CB025091CC02621B730B840B1F
:101E2000950B603576448105910508F42ECE6FE858
:101E300073E0C8010E942F05882309F4A3CF1CC0BA
:101E40000E9420032091C9023091CA024091CB0226
:101E50005091CC02621B730B840B950B603576445A
:101E60008105910508F411CE6FE873E0C8010E9466
:101E70002F05882309F4A2CFD092D602C092D502B2
:101E80006FC00E9420030091C9021091CA022091E4
:101E9000CB023091CC02601B710B820B930B68322A
:101EA00073428105910508F0A4CFEFCD8DE090E05D
:101EB0009093D6028093D50288CE0E942003209171
:101EC000C9023091CA024091CB025091CC02621BF0
:101ED000730B840B950B603576448105910508F4EE
:101EE000D4CD6DE973E0C8010E942F05882309F461
:101EF0009ECF28CF0E9420030091C9021091CA02F0
:101F00002091CB023091CC02601B710B820B930BA2
:101F1000603375478105910508F4B7CD41E050E085
:101F20004FCF0E9420032091C9023091CA024091F4
:101F3000CB025091CC02621B730B840B950B683B58
:101F400078488105910508F4A0CD8091D9028823B5
:101F500009F405CE8FE090E09093D6028093D502ED
:101F6000C8010E94980731CE0E9420032091C90227
:101F70003091CA024091CB025091CC02621B730B8C
:101F8000840B950B683A71468105910508F47DCD67
:101F90006DE973E0C8010E942F058111D3CE6FE86F
:101FA00073E0C8010E942F05882309F427CF64CF6E
:101FB000FC01808191810C940411809185039091A2
:101FC0008603009751F0FC01228133813093860310
:101FD000209385030E940411F0CF8FE893E00E94C4
:101FE000D80F86E993E00E94D80F8DE993E00E9414
:101FF000D80F8EEC93E00E94BF0484EA93E00C9427
:1020000007050F931F93CF93DF93009759F4611542
:10201000710541F4F0E0E0E0CF01DF91CF911F9135
:102020000F9108958B01EC016EE070E081E090E08B
:102030000E944C10FC01892B69F380E88383011511
:10204000110571F01387028781E883838091FC0377
:102050009091FD03892B21F4F093FD03E093FC03A1
:102060002097D1F2D187C08783818260838380915A
:10207000FE039091FF03892B79F6F093FF03E09321
:10208000FE038091000490910104892B29F6F093BE
:102090000104E0930004C0CF0F931F93CF93DF930D
:1020A000869F8001879F100D969F100D1124C801F7
:1020B0000E946810EC01009729F0A80170E060E030
:1020C0000E948D11CE01DF91CF911F910F91089544
:1020D0000F931F93CF93DF938230910510F482E02A
:1020E00090E0E0910404F091050430E020E0B0E0DD
:1020F000A0E0309799F42115310509F44AC0281B56
:10210000390B24303105D8F58A819B816115710521
:1021100089F1FB0193838283FE0111C040815181CB
:102120000281138148175907E0F04817590799F4BD
:10213000109761F012960C93129713961C93329697
:10214000CF01DF91CF911F910F9108950093040467
:1021500010930504F4CF2115310551F042175307B0
:1021600038F0A901DB019A01BD01DF01F801C1CFFF
:10217000EF01F9CF9093050480930404CDCFFE01C5
:10218000E20FF31F81939193225031093983288301
:10219000D7CF2091020430910304232B41F42091E6
:1021A0000201309103013093030420930204209133
:1021B0000001309101012115310541F42DB73EB7E1
:1021C0004091040150910501241B350BE09102045C
:1021D000F0910304E217F307A0F42E1B3F0B28171E
:1021E000390778F0AC014E5F5F4F2417350748F090
:1021F0004E0F5F1F50930304409302048193919309
:102200009FCFF0E0E0E09CCFCF93DF930097E9F021
:10221000FC01329713821282A0910404B09105044C
:10222000ED0130E020E01097A1F420813181820F90
:10223000931F20910204309103042817390709F0F5
:1022400061C0F0930304E0930204DF91CF910895FD
:10225000EA01CE17DF07E8F54A815B819E0141154F
:102260005105B1F7E901FB83EA8349915991C40F04
:10227000D51FEC17FD0761F4808191810296840FD0
:10228000951FE90199838883828193819B838A8347
:10229000F0E0E0E012968D919C9113970097B9F5CC
:1022A0002D913C911197CD010296820F931F2091A1
:1022B0000204309103042817390739F6309751F595
:1022C0001092050410920404B0930304A093020436
:1022D000BCCFD383C28340815181840F951FC8171F
:1022E000D90761F44E5F5F4F88819981480F591F6C
:1022F000518340838A819B81938382832115310599
:1023000009F0B0CFF0930504E09304049ECFFD01E3
:10231000DC01C0CF13821282D7CFDC0101C06D93E4
:1023200041505040E0F70895A1E21A2EAA1BBB1BB2
:10233000FD010DC0AA1FBB1FEE1FFF1FA217B30791
:10234000E407F50720F0A21BB30BE40BF50B661FA7
:10235000771F881F991F1A9469F76095709580956B
:1023600090959B01AC01BD01CF010895EE0FFF1FB9
:102370000590F491E02D099410E0C2E6D0E004C08D
:10238000FE010E94B6112196C336D107C9F7F89411
:02239000FFCF7D
:102392000000060480003E0101003C0101003A01F8
:1023A200010018000000000000000000E8FFE8FF44
:1023B2000000000000001400000000000000000007
:1023C200ECFFECFF0000000000001A000F001000FC
:1023D200000000001E05930500000000D6048505DC
:1023E2008D048A0487048404A60379043E04250428
:1023F2000C042C03CD03A903020000000000E90431
:102402008705FEFFFEFF0000D704890506000000D5
:102412000000A1047905FAFFFAFF00008F047B0592
:102422009E0118012201A801180000000000BF044B
:102432006305E8FFE8FF0000CC046D05BA012C013A
:102442003601C40114000000000007054F05ECFF2F
:10245200ECFF0000140559052B00000000A801083C
:10246200013501F5016601440158010D0A0020738E
:10247200202D3E200020534552564544004C696EA3
:10248200657320696E2071756575653A2000576124
:102492006974696E67206973204C004375727265B6
:1024A2006E742073746174652069733A205300203E
:1024B2005055534845440043757272656E74206DE1
:1024C2006F6465206973207B203C2C205E2C203EAB
:1024D200207D004C656674207068617365206578A4
:1024E20074656E73696F6E206973206F6E00466F3C
:1024F20072776172642070686173652065787465B3
:102502006E73696F6E206973206F66660052696729
:10251200687420706861736520657874656E73698C
:102522006F6E206973206F6E0043757272656E74F0
:10253200206D6F6465206973207B203C2C203E2037
:082542007D207B205E207D005E
:107E0000112484B714BE81FFF0D085E080938100F7
:107E100082E08093C00088E18093C10086E0809377
:107E2000C20080E18093C4008EE0C9D0259A86E02C
:107E300020E33CEF91E0309385002093840096BBD3
:107E4000B09BFECF1D9AA8958150A9F7CC24DD24C4
:107E500088248394B5E0AB2EA1E19A2EF3E0BF2EE7
:107E6000A2D0813461F49FD0082FAFD0023811F036
:107E7000013811F484E001C083E08DD089C08234E0
:107E800011F484E103C0853419F485E0A6D080C0E4
:107E9000853579F488D0E82EFF2485D0082F10E0AE
:107EA000102F00270E291F29000F111F8ED06801E7
:107EB0006FC0863521F484E090D080E0DECF843638
:107EC00009F040C070D06FD0082F6DD080E0C81688
:107ED00080E7D80618F4F601B7BEE895C0E0D1E017
:107EE00062D089930C17E1F7F0E0CF16F0E7DF06D8
:107EF00018F0F601B7BEE89568D007B600FCFDCFD4
:107F0000A601A0E0B1E02C9130E011968C91119780
:107F100090E0982F8827822B932B1296FA010C0160
:107F200087BEE89511244E5F5F4FF1E0A038BF0790
:107F300051F7F601A7BEE89507B600FCFDCF97BE46
:107F4000E89526C08437B1F42ED02DD0F82E2BD052
:107F50003CD0F601EF2C8F010F5F1F4F84911BD097
:107F6000EA94F801C1F70894C11CD11CFA94CF0C13
:107F7000D11C0EC0853739F428D08EE10CD085E9AC
:107F80000AD08FE07ACF813511F488E018D01DD067
:107F900080E101D065CF982F8091C00085FFFCCF94
:107FA0009093C60008958091C00087FFFCCF809118
:107FB000C00084FD01C0A8958091C6000895E0E648
:107FC000F0E098E1908380830895EDDF803219F02E
:107FD00088E0F5DFFFCF84E1DECF1F93182FE3DFCA
:107FE0001150E9F7F2DF1F91089580E0E8DFEE27F6
:047FF000FF270994CA
:027FFE00040479
:0400000300007E007B
:00000001FF
