:100000000C9463000C948B000C948B000C946A0984
:100010000C946A090C946A090C948B000C948B0064
:100020000C948B000C948B000C948B000C948B0024
:100030000C948B000C948B000C948B000C948B0014
:100040000C9420090C948B000C94EE080C94C808B6
:100050000C948B000C948B000C948B000C948B00F4
:100060000C948B000C948B000000000024002700EF
:100070002A0000000008000201000003040700003D
:1000800000000000000000000000230026002900FE
:1000900000000000250028002B00040404040404D0
:1000A0000404020202020202030303030303010227
:1000B00004081020408001020408102001020408F6
:1000C0001020D10B5C1011241FBECFEFD8E0DEBF93
:1000D000CDBF12E0A0E0B1E0E2E6F9E202C0059097
:1000E0000D92A834B107D9F724E0A8E4B2E001C02A
:1000F0001D92A737B207E1F710E0C2E6D0E004C0D6
:100100002197FE010E94A313C136D107C9F70E94AF
:10011000BF0D0C94A4140C9400001F93CF93DF9395
:10012000182FC091A202D091A3028A3041F4E88135
:10013000F9810190F081E02D6DE0CE010995E88113
:10014000F9810190F081E02D612FCE01099521E028
:1001500030E0019711F430E020E0C901DF91CF9148
:100160001F910895CF93DF93C091A202D091A30273
:10017000E881F9810084F185E02DCE010995892B74
:10018000B9F3E881F9810284F385E02DCE01DF9196
:10019000CF910994DC01ED91FC910190F081E02D6B
:1001A0000994AF92BF92CF92DF92EF92FF920F939A
:1001B0001F93CF93DF936C017B018B01040F151FFD
:1001C000EB015E01AE18BF08C017D10759F0699165
:1001D000D601ED91FC910190F081E02DC6010995C9
:1001E000892B79F7C501DF91CF911F910F91FF9076
:1001F000EF90DF90CF90BF90AF900895FC01538DAA
:10020000448D252F30E0842F90E0821B930B5417F0
:1002100010F0CF96089501970895FC01918D828D7D
:10022000981761F0A28DAE0FBF2FB11D5D968C9116
:10023000928D9F5F9F73928F90E008958FEF9FEF55
:100240000895FC01918D828D981731F0828DE80F11
:10025000F11D858D90E008958FEF9FEF0895FC01CB
:10026000918D228D892F90E0805C9F4F821B910998
:100270008F739927089586EA92E00E942F0121E06A
:10028000892B09F420E0822F089580E090E0892BEB
:1002900029F00E943B0181110C9400000895FC019B
:1002A000A48DA80FB92FB11DA35ABF4F2C91848DD7
:1002B00090E001968F739927848FA689B7892C9334
:1002C000A089B1898C91837080648C93938D848D87
:1002D000981306C00288F389E02D80818F7D80838A
:1002E0000895EF92FF920F931F93CF93DF93EC014A
:1002F00081E0888F9B8D8C8D98131AC0E889F989CD
:10030000808185FF15C09FB7F894EE89FF896083CF
:10031000E889F98980818370806480839FBF81E050
:1003200090E0DF91CF911F910F91FF90EF90089592
:10033000F62E0B8D10E00F5F1F4F0F731127E02E6D
:100340008C8D8E110CC00FB607FCFACFE889F989A5
:10035000808185FFF5CFCE010E944F01F1CFEB8D5B
:10036000EC0FFD2FF11DE35AFF4FF0829FB7F89479
:100370000B8FEA89FB8980818062CFCFCF93DF9397
:10038000EC01888D8823B9F0AA89BB89E889F989AD
:100390008C9185FD03C0808186FD0DC00FB607FCE2
:1003A000F7CF8C9185FFF2CF808185FFEDCFCE0115
:1003B0000E944F01E9CFDF91CF910895833081F002
:1003C00028F4813099F08230A9F008958730A9F09F
:1003D0008830C9F08430B1F4809180008F7D03C0F3
:1003E000809180008F7780938000089584B58F7707
:1003F00084BD089584B58F7DFBCF8091B0008F7749
:100400008093B00008958091B0008F7DF9CF1F9345
:10041000CF93DF93282F30E0F901EE58FF4F8491FE
:10042000F901E255FF4FD491F901E656FF4FC4910F
:10043000CC23A9F0162F81110E94DE01EC2FF0E0F1
:10044000EE0FFF1FE057FF4FA591B4918FB7F894BF
:10045000EC91111108C0D095DE23DC938FBFDF91A2
:10046000CF911F910895DE2BF8CFCF93DF9390E0CB
:10047000FC01E255FF4F249186569F4FFC01849169
:100480008823C9F090E0880F991FFC01E859FF4FBD
:10049000A591B491FC01E057FF4FC591D491611132
:1004A0000DC09FB7F8948C91209582238C938881FE
:1004B000282328839FBFDF91CF910895623051F4A4
:1004C0009FB7F8943C91822F809583238C93E88189
:1004D0002E2BEFCF8FB7F894EC912E2B2C938FBF50
:1004E000EACF3FB7F89480918D0290918E02A0914F
:1004F0008F02B091900226B5A89B05C02F3F19F03E
:100500000196A11DB11D3FBFBA2FA92F982F882793
:10051000BC01CD01620F711D811D911D42E0660F6E
:10052000771F881F991F4A95D1F70895CB01089529
:100530004F925F926F927F92BF92CF92DF92EF9233
:10054000FF920F931F93CF93DF93EC0129013A01A0
:100550008B01C12CD12C7601C414D504E604F70418
:100560000CF03FC0F801B1908F018F8580FF0BC068
:10057000E881F9810084F185E02D20E144E070E01C
:1005800060E0CE010995EB85FC858D859E85E81799
:10059000F90760F4B0828B859C8501969C878B87D8
:1005A0002FEFC21AD20AE20AF20AD6CF6B2D70E000
:1005B000E881F981028CF38DE02DCE010995019639
:1005C00079F7C701B601DF91CF911F910F91FF908D
:1005D000EF90DF90CF90BF907F906F905F904F90A3
:1005E000089573016201EDCFCF93DF93EC01E881B1
:1005F000F9810288F389E02D09958F3F980731F042
:100600002D813E812F5F3F4F3E832D83DF91CF9120
:1006100008958FEF9FEF089560E070E0CB0108959B
:1006200090E080E00895FF920F931F93CF93DF93A4
:100630008C01EB016F3F7607B9F0F62EEAE06E13FE
:1006400006C06DE0F801808991890E94CA006F2D73
:10065000F801808991890E94CA00CE01DF91CF9173
:100660001F910F91FF900895D0E0C0E0F6CF7F92E8
:100670008F929F92AF92BF92CF92DF92EF92FF92B2
:100680000F931F93CF93DF938C0149015A01EB0124
:10069000C12CD12C7601C814D904EA04FB04B4F4AB
:1006A00079908AE0781206C06DE0F801808991891E
:1006B0000E94CA00672DF801808991890E94CA00B2
:1006C000FFEFCF1ADF0AEF0AFF0AE5CFC501B40139
:1006D000DF91CF911F910F91FF90EF90DF90CF901E
:1006E000BF90AF909F908F907F900895CF93DF93AE
:1006F000EC0188899989DC01ED91FC910084F185F8
:10070000E02D0995892BA9F388899989DC01ED9160
:10071000FC910284F385E02DDF91CF910994CF9372
:10072000DF93EC0188899989DC01ED91FC910084CB
:10073000F185E02D0995892BA9F388899989DC0138
:10074000ED91FC910484F585E02DDF91CF91099422
:100750008F929F92AF92BF92CF92DF92EF92FF92D1
:100760000F931F93CF93DF938C0149015A01EB0143
:10077000C12CD12C7601D80150968D919C91DC0131
:10078000ED91FC910284F385E02D09958F3F61F096
:10079000C814D904EA04FB043CF48993BFEFCB1AD4
:1007A000DB0AEB0AFB0AE7CFC701B601DF91CF9165
:1007B0001F910F91FF90EF90DF90CF90BF90AF907F
:1007C0009F908F900895DC0150968D919C91DC0153
:1007D000ED91FC910084F185E02D099490E080E09A
:1007E000089590E080E0089590E080E008950895F5
:1007F0000895DC01ED91FC9136970190F081E02D98
:10080000E80FF91F82E991E0918380838CE991E000
:1008100097838683089522E931E0FC0131832083A8
:100820002CE931E0378326830895FB012081318153
:10083000FC0131832083FB01428153812650310921
:10084000F90120813181820F931FFC015183408384
:1008500008952EEA31E0FC013183208328EB31E05A
:10086000318F208F62EA71E00C941504DC01ED9168
:10087000FC91369720813181820F931F0C942904BB
:100880000895DC01ED91FC9136970190F081E02D07
:10089000E80FF91F8EE791E09183808388E891E06B
:1008A0009383828308952EE731E0FC013183208316
:1008B00028E831E0338322830895FB0120813181D0
:1008C000FC0131832083FB01428153812650310991
:1008D000F90120813181820F931FFC0151834083F4
:1008E00008952AEC31E0FC013183208324ED31E0CE
:1008F000358B248B6EEB71E00C945D04DC01ED9183
:10090000FC91369720813181820F931F0C947104E2
:1009100008950895CF93DF9370E0FB01EE58FF4FE9
:100920008491FB01E255FF4FD49166567F4FFB0146
:10093000C491CC23A1F081110E94DE01EC2FF0E0E4
:10094000EE0FFF1FEA57FF4FA591B491EC91ED23F5
:1009500081E090E009F480E0DF91CF91089580E09C
:1009600090E0FACF862F642F0C940702862F642F15
:100970000C94350220914303309144032817390722
:1009800071F49091910280919202981741F0E09158
:100990009102F0E0E85BFD4F808190E008958FEFD9
:1009A0009FEF08950895EF92FF920F931F93CF93B7
:1009B000DF93DC015C96ED90FC905D97E114F1040F
:1009C00079F481E090E013969C938E93129790E0D7
:1009D00080E0DF91CF911F910F91FF90EF900895EC
:1009E0005196ED91FC91529750968C915097982F7B
:1009F00090950FB75E962C915E97122F127021FD85
:100A00006095F8942081112319F1282B2083E701A8
:100A10002197F1F728E0462F50E0308160FF1AC09F
:100A2000382B3083E7012197F1F7BA017595679567
:100A3000215089F7112381F08081892380830FBFA2
:100A40005C968D919C910197F1F781E090E0C1CF88
:100A50002923DCCF3923E5CF9081892BEFCF20915B
:100A60004303309144032817390771F480919202AF
:100A70002091910290E0805C9F4F821B910960E47D
:100A800070E00E947B13089590E080E0089520912B
:100A900043033091440328173907B9F49091910228
:100AA00080919202981789F0E0919102F0E0E85B62
:100AB000FD4F80812091910230E02F5F3F4F2F73D7
:100AC00033272093910290E008958FEF9FEF0895D0
:100AD000CF93DF93EC0160E08E810E94070261E01A
:100AE0008E810E94070260E08E810E9407028BE8DF
:100AF00091E00197F1F7DF91CF910895CF92DF92C6
:100B0000EF92FF920F931F93CF93DF936C017C01C1
:100B100087E0E80EF11CD0E0C0E0062F10E0B8013D
:100B20000C2E02C0759567950A94E2F76170F70183
:100B300081917F010E9407022196C430D10579F787
:100B4000C601DF91CF911F910F91FF90EF90DF9041
:100B5000CF900C946805CF92DF92EF92FF920F93A3
:100B60001F93CF93DF93EC01F62E642F8C810E94AC
:100B700007028D818F3F19F060E00E9407020F2D60
:100B800010E08F8584FF25C06E0187E0C80ED11C60
:100B9000F12CE12CB8010E2C02C0759567950A94D2
:100BA000E2F76170F60181916F010E940702FFEF89
:100BB000EF1AFF0A88E0E816F10461F7CE01DF9131
:100BC000CF911F910F91FF90EF90DF90CF900C94F9
:100BD0006805B80184E0759567958A95E1F7CE01BF
:100BE0000E947E056F2DCE01DF91CF911F910F9155
:100BF000FF90EF90DF90CF900C947E05CF93DF9322
:100C0000623029F490910C04986090930C046093E6
:100C100010041092110490E4909312048093130432
:100C2000805C8093140461E0809101040E9435028D
:100C3000809102048F3F19F061E00E94350261E06B
:100C4000809103040E943502CDEFD3E09E012D5F19
:100C5000334080910C0484FD0BC084E090E0219629
:100C60002817390744F461E08E810E943502EECFE7
:100C700088E090E0F4CF8BE39DE00197F1F760E02E
:100C8000809101040E94070260E0809103040E94A9
:100C90000702809102048F3F19F060E00E94070272
:100CA00060910C0464FD45C063E08DEF93E00E9409
:100CB0007E05CBE4D6E4CE010197F1F763E08DEF3A
:100CC00093E00E947E052197F1F763E08DEF93E0BA
:100CD0000E947E0583E592E00197F1F762E08DEFD7
:100CE00093E00E947E0560910C04606240E08DEF0D
:100CF00093E00E94AB0584E080930D0440E06CE03B
:100D00008DEF93E00E94AB0540E061E08DEF93E052
:100D10000E94AB058BE39FE10197F1F782E080939E
:100D20000E0440E066E08DEF93E0DF91CF910C94EC
:100D3000AB05606240E08DEF93E00E94AB058BE471
:100D400096E40197F1F760910C04606240E08DEF4A
:100D500093E00E94AB0583E592E00197F1F7609183
:100D60000C04606240E08DEF93E00E94AB05BBCFC6
:100D700041E00E94AB0581E090E0089542E050E040
:100D800062E172E086EA92E00C94D100CF93DF93A7
:100D9000FC01448155816081718186EA92E00E9464
:100DA000D100EC010E94BE068C0F9D1FDF91CF91F8
:100DB0000895CF93DF93DC0114962D913C91159704
:100DC000232B79F0FB01CD91DC9160817181CE0103
:100DD0000E948A14009729F08C1B9D0BDF91CF9104
:100DE00008958FEF9FEFFACFCF93DF93FC0124811B
:100DF0003581232B79F0C081D181062E000C770B31
:100E0000CE010E946F14009729F08C1B9D0BDF917F
:100E1000CF9108958FEF9FEFFACF0F931F93CF934A
:100E2000DF93EC0188819981009759F02A813B81F9
:100E30002617370730F081E0DF91CF911F910F9196
:100E400008958B016F5F7F4F0E94A913009759F09F
:100E5000998388831B830A832C813D81232B59F737
:100E6000FC011082E8CF80E0E7CFEF92FF920F9372
:100E70001F93CF93DF936115710541F480E0DF91FB
:100E8000CF911F910F91FF90EF900895411551055B
:100E9000B1F07B01EC010C811D81040F151FB8011D
:100EA0000E940D07882351F3288139818C819D810F
:100EB000B701820F931F0E9483141D830C8381E06E
:100EC000DECFCF93DF9300D0CDB7DEB769831A8230
:100ED00041E050E0BE016F5F7F4F0E9435070F90E9
:100EE0000F90DF91CF910895CF93DF93EC0188812C
:100EF0009981009711F00E944112198218821D8277
:100F00001C821B821A82DF91CF910895CF93DF93C9
:100F1000EC01FB0101900020E9F73197AF01461B7E
:100F2000570B0E943507811103C0CE010E94740740
:100F3000CE01DF91CF910895CF93DF93EC01FB01B8
:100F400044815581608171810E943507811103C000
:100F5000CE010E947407CE01DF91CF910895EF92E8
:100F6000FF920F931F93CF93DF93EC017B018A01D4
:100F7000BA010E940D0781110BC0CE010E947407B7
:100F8000CE01DF91CF911F910F91FF90EF900895C7
:100F90001D830C83B701888199810E948314F0CF4F
:100FA000FB0101900020E9F73197AF01461B570B79
:100FB0000C94AF07CF93DF93EC01FB0186179707E3
:100FC00049F0608171816115710541F0448155815D
:100FD0000E94AF07CE01DF91CF9108950E94740760
:100FE000F9CFFC01118210821382128215821482C1
:100FF000FB0101900020E9F73197AF01461B570B29
:101000000C94AF07AF92BF92CF92DF92EF92FF9214
:101010000F931F93CF93DF936C015B017A018901DA
:101020002417350720F48F2D7901042F182F64E140
:1010300072E0C6010E94F107D5011496CD91DC91B2
:10104000EC16FD06E0F40C171D0708F4E801D501C5
:10105000ED91FC911197EC0FFD1F108110826D91A5
:101060007C916E0D7F1DC60161157105A1F00E9476
:10107000D007F50180819181C80FD91F1883C6015F
:10108000DF91CF911F910F91FF90EF90DF90CF9064
:10109000BF90AF9008950E947407EBCFFC01808150
:1010A0009181009711F00C94411208950C94411213
:1010B000CF93DF93EC010E947104CE01DF91CF91B9
:1010C0000C944112DC01ED91FC9136972081318125
:1010D000820F931F0C945808CF93DF93EC010E946A
:1010E0002904CE01DF91CF910C944112DC01ED91E6
:1010F000FC91369720813181820F931F0C946C08EC
:101100000C9441120C944112DC01ED91FC91369744
:1011100020813181820F931F0C9482080C9441121C
:10112000DC01ED91FC91369720813181820F931F74
:101130000C948E080C9441120F931F93CF93DF935E
:10114000CDB7DEB761970FB6F894DEBF0FBECDBF47
:101150008C01CB01F8011182108213821282158258
:10116000148250E0BE016F5F7F4F0E941911BE01D3
:101170006F5F7F4FC8010E94D00761960FB6F89449
:10118000DEBF0FBECDBFDF91CF911F910F910895AC
:101190001F920F920FB60F9211242F933F934F93EC
:1011A0005F936F937F938F939F93AF93BF93EF93CF
:1011B000FF9386EA92E00E944F01FF91EF91BF9169
:1011C000AF919F918F917F916F915F914F913F91DF
:1011D0002F910F900FBE0F901F9018951F920F9296
:1011E0000FB60F9211242F938F939F93EF93FF933A
:1011F000E091B602F091B7028081E091BC02F091DB
:10120000BD0282FD1BC090818091BF028F5F8F73F2
:101210002091C002821741F0E091BF02F0E0EA5550
:10122000FD4F958F8093BF02FF91EF919F918F911A
:101230002F910F900FBE0F901F9018958081F4CFC3
:101240001F920F920FB60F9211242F933F938F93FB
:101250009F93AF93BF938091890290918A02A0914E
:101260008B02B0918C023091880223E0230F2D373E
:1012700058F50196A11DB11D209388028093890223
:1012800090938A02A0938B02B0938C0280918D027E
:1012900090918E02A0918F02B09190020196A11DB3
:1012A000B11D80938D0290938E02A0938F02B09314
:1012B0009002BF91AF919F918F913F912F910F908D
:1012C0000FBE0F901F90189526E8230F0296A11DC0
:1012D000B11DD2CF1F920F920FB60F9211242F93F0
:1012E0003F934F935F936F937F938F939F93AF93AE
:1012F000BF93EF93FF93E0914303F0914403309742
:1013000049F0A685B7858585968D91FF14C09C917F
:101310008923A1F4FF91EF91BF91AF919F918F919C
:101320007F916F915F914F913F912F910F900FBEE1
:101330000F901F9018959C91892361F7A389B48918
:101340009C918589809589238C93868997890197BB
:10135000F1F7608D718DA685B785558538E020E061
:10136000CB010197F1F7822F90E095958795282F73
:101370004C91452309F02068315091F7868D81FD0D
:1013800020958091920290E001968F739927309179
:101390009102381799F0A0919202B0E0A85BBD4F7E
:1013A0002C9380939202828D938D0197F1F7A389FC
:1013B000B4898C919589892B8C93ACCF868D816073
:1013C000868FF1CFCF93DF93EB0188819981AFE3D3
:1013D000B4E011969C938E932A813B810697EC0191
:1013E000E881F981E15CFB4F3183208312961D92E5
:1013F0001D921D921C92159781E290E09483838345
:1014000085E494E0948B838B1582158ADF91CF91CC
:101410000895CF93DF93CFE3D4E081E290E09C8FF7
:101420008B8F1D8E1E8E1F8E86E090E0A0E0B0E0B8
:1014300088A399A3AAA3BBA31CA21DA21EA21FA29C
:1014400084E591E0998F888F80E288A71AA619A673
:1014500085E494E09CA78BA71DA6AC0162EA71E02D
:10146000CE010E94E2098EEA91E09983888388EB9D
:1014700091E0998F888F1A8619861C861B861E8696
:101480001D86188A1F861A8A198A1C8A1B8A8CE56F
:1014900091E09F838E8386EA92E09F8B8E8B88E01B
:1014A0008D8BDF91CF910895DB018D919C911197E8
:1014B000909316048093150412962D913C910697F3
:1014C000DC01ED91FC91EB5EFB4F3183208381E2E7
:1014D00090E09483838387E194E0948B838B1582DF
:1014E000158A0895CF93DF93C5E1D4E081E290E0BF
:1014F000988F8F8B198E1A8E1B8E86E090E0A0E05D
:10150000B0E08C8F9D8FAE8FBF8F18A219A21AA248
:101510001BA284E591E09D8B8C8B80E28CA31EA2A4
:101520001DA287E194E098A78FA319A6AC016EEBEA
:1015300071E0CE010E94540A8AEC91E0998388837D
:1015400084ED91E09D8B8C8B1E821D8218861F82FC
:101550001A8619861C861B861E861D86188A1F867B
:101560008CE591E09B838A8386EA92E09B8B8A8B51
:1015700080E1898BDF91CF9108952F923F924F9216
:101580005F926F927F928F929F92AF92BF92CF9213
:10159000DF92EF92FF920F931F93CF93DF93CDB71C
:1015A000DEB7E5970FB6F894DEBF0FBECDBF4C0196
:1015B0003B015DAB4CAB1701280140E1B901CE0105
:1015C0008E960E949C0840E16CA97DA9CE01889668
:1015D0000E949C084AE0B301CE0182960E949C08BA
:1015E00065E172E0CE0101960E94F107BE016E5DD9
:1015F0007F4FCE0101960E949C0768E172E00E9435
:101600008607BE01685D7F4F0E949C076BE172E018
:101610000E948607BE01625D7F4F0E949C076EE1BB
:1016200072E00E948607F4011182108213821282F6
:1016300015821482BC01C4010E94DA07CE01019612
:101640000E944E08CE0182960E944E08CE018896D6
:101650000E944E08CE018E960E944E088501CC0C49
:10166000DD1CCA0CDB1C0C151D0509F440C0F8017B
:10167000819191918F011BA21AA21DA21CA21FA2EF
:101680001EA240E1BE016F5F7F4F90E00E942411D7
:10169000BE016F5F7F4FCE0182960E94D0071A82F3
:1016A00019821C821B821E821D82BE016E5D7F4FCD
:1016B000CE0101960E94DA076DE2CE0101960E94EA
:1016C0006107811104C0CE0101960E9474074D810B
:1016D0005E8169817A81C4010E943507CE0101963D
:1016E0000E944E08CE0182960E944E08BCCF1BA2DB
:1016F0001AA21DA21CA21FA21EA220E1AE014F5FD2
:101700005F4FC201B1010E94F710BE016F5F7F4FB2
:10171000CE0182960E94D0071A8219821C821B82F7
:101720001E821D82B401CE0101960E94DA0761E299
:1017300072E0CE0101960E948607BE016E5D7F4F6A
:101740000E949C078C016DE70E946107811103C014
:10175000C8010E947407B801C4010E94DA07CE01D3
:1017600001960E944E08CE0182960E944E08C40146
:10177000E5960FB6F894DEBF0FBECDBFDF91CF91D7
:101780001F910F91FF90EF90DF90CF90BF90AF909F
:101790009F908F907F906F905F904F903F902F9091
:1017A0000895AF92BF92CF92DF92EF92FF920F9384
:1017B0001F931092A9021092A80288EE93E0A0E075
:1017C000B0E08093AA029093AB02A093AC02B093D6
:1017D000AD028CED91E09093A7028093A60285EC78
:1017E00090E09093B3028093B20284EC90E09093E7
:1017F000B5028093B40280EC90E09093B70280939E
:10180000B60281EC90E09093B9028093B80282EC2A
:1018100090E09093BB028093BA0286EC90E09093A4
:10182000BD028093BC021092BF021092C0021092BF
:10183000C1021092C20266EA72E085E194E00E9461
:10184000720A66EA72E08FE394E00E94090A10923D
:10185000A5021092A40286EA92E09093A3028093DC
:10186000A20262EB70E08DE890E00E943E1190933E
:10187000A5028093A402109200041092FF0388EF47
:1018800091E09093FE038093FD038EE0809301042A
:101890008FEF809302048FE08093030480E18093B4
:1018A000040481E18093050482E18093060483E1CE
:1018B00080930704109208041092090410920A04FD
:1018C00010920B0410920C0461E080E10E94FE056E
:1018D0001092900310929403109293031092950328
:1018E0008EEE91E090938F0380938E03EAEAF3E00B
:1018F00086EE93E0108214821382158236968E173C
:101900009F07C1F784E091E09093F1038093F00387
:1019100080E091E09093F3038093F20384E080935E
:10192000F4038093F50388E091E09093EF038093B4
:10193000EE038AE090E09093F7038093F60384EF40
:1019400091E09093F9038093F8031092FC031092B6
:10195000FB031092EA031092EB031092EC03109237
:10196000ED031092FA03109272031092710388EE45
:1019700093E0A0E0B0E08093730390937403A0938E
:101980007503B093760384E092E0909370038093A4
:101990006F031092860310928503109288031092B1
:1019A000870310928A031092890310928C0310927D
:1019B0008B0360918D036E7F6D7F60938D036695C1
:1019C000617081E0682783E00E94070261E083E0A4
:1019D0000E943502E1EBF0E0E491E0937F03EDE952
:1019E000F0E0E491F0E0EE0FFF1FE057FF4F85912C
:1019F0009491909381038093800360E082E00E9441
:101A0000350280918D0381FD04C061E082E00E9477
:101A1000070282E080937B03E0EBF0E0E491E09347
:101A20007C03ECE9F0E0E491F0E0EE0FFF1FEA57F1
:101A3000FF4F8591949190937E0380937D0392E173
:101A4000A92E92E0B92ED12CC12C19ECE12E11E176
:101A5000F12E00E010E028E030E048E050E060E1E6
:101A600070E089E693E00E94BD0A32E1A32E32E0E5
:101A7000B32ED12CC12C10ECE12E12E0F12E00E09F
:101A800010E028E030E048E050E06CE370E083E6EE
:101A900093E00E94BD0A52E1A52E52E0B52ED12C52
:101AA000C12C17E5E12E1FE1F12E00E010E02AE045
:101AB00030E048E050E067E170E08DE593E00E949F
:101AC000BD0A72E1A72E72E0B72ED12CC12C1FE304
:101AD000E12E12E0F12E00E010E023E030E048E0DB
:101AE00050E06BE170E087E593E00E94BD0AF2E10F
:101AF000AF2EF2E0BF2ED12CC12C18ECE12E1BE052
:101B0000F12E00E010E025E030E049E250E068E02E
:101B100070E081E593E00E94BD0AA0902201B090A0
:101B20002301C0902401D090250113ECE12E12E096
:101B3000F12E00E010E027E030E049E250E06AE1F9
:101B400070E08BE493E00E94BD0A1092460310926D
:101B50004503109248031092470310924A031092D3
:101B6000490367E573E085E493E01F910F91FF90CF
:101B7000EF90DF90CF90BF90AF900C94DA07CF93A7
:101B8000DF93CDB7DEB7A4970FB6F894DEBF0FBED4
:101B9000CDBF789484B5826084BD84B5816084BDF6
:101BA00085B5826085BD85B5816085BD80916E00FB
:101BB000816080936E00109281008091810082602C
:101BC0008093810080918100816080938100809169
:101BD00080008160809380008091B1008460809358
:101BE000B1008091B00081608093B00080917A0054
:101BF000846080937A0080917A00826080937A007A
:101C000080917A00816080937A0080917A00806868
:101C100080937A001092C10060E082E00E94350259
:101C200061E083E00E943502E091B602F091B702D4
:101C300082E08083E091B202F091B3021082E091E1
:101C4000B402F091B5028FEC80831092BE02E09155
:101C5000BA02F091BB0286E08083E091B802F09175
:101C6000B902808180618083E091B802F091B9026D
:101C7000808188608083E091B802F091B902808110
:101C800080688083E091B802F091B90280818F7DF5
:101C9000808310928A031092890310928803109215
:101CA0008703109286031092850385E690E0909357
:101CB0008C0380938B0390917B03963108F047C08F
:101CC00021E230E0309386032093850323E630E061
:101CD000309388032093870322E430E030938A0313
:101CE000209389032091680084E0983048F031E027
:101CF0009E3008F430E081E001C0880F3A95EAF7A1
:101D0000822B809368002DE630E0983050F02BE66F
:101D100030E09E3030F02CE630E0963110F030E0CC
:101D200020E03093830320938203292F30E0983002
:101D300008F0E1C081E001C0880F9A95EAF780932E
:101D4000840380918B0390918C030197F1F780912C
:101D5000890390918A03892B49F1E0914303F09123
:101D6000440323E0EF36F20709F1309739F0A389F5
:101D7000B4899C918589809589238C9380918D036A
:101D80008E7F80938D0310929202109291028FE6C3
:101D900093E09093440380934303E0918203F09196
:101DA0008303808190918403892B808349E150E0F3
:101DB00064E272E086EA92E00E94D1000E94BE06D0
:101DC00062E084E10E94FE05EE24EA94F12C01E039
:101DD00080919A02811108C064E172E084E992E086
:101DE0000E94F10700939A0264E172E0CE014F96DF
:101DF0000E94F10764E172E0CE0149960E94F1076A
:101E0000109293028FE693E00E942F051816190690
:101E10000CF0F8C08FE693E00E944705182F682F5A
:101E200084E992E00E9461071F3371F464E972E073
:101E3000CE014F960E94DA0764E172E084E992E0F5
:101E40000E94D00700939302CE014F960E94C606CF
:101E50006FE3CE014F960E94F4065C016EE372E0E0
:101E6000CE0107960E94F107BE01695F7F4FCE0148
:101E70004F960E94D906AC014E5F5F4F9501BE019F
:101E8000615E7F4FCE0101960E9402086DE785E4F6
:101E900093E00E94F4065C0165E172E0CE01439696
:101EA0000E94F107BE016D5E7F4F85E493E00E94C2
:101EB000D90695012F5F3F4FAC0165E473E0CE0179
:101EC0000D960E94020829893A898D819E812817E2
:101ED000390771F58D859E8569817A810097C1F0FA
:101EE0006115710509F089C0232B09F489C0FC0133
:101EF000808190E01AC09E3040F42850310981E082
:101F000001C0880F2A95EAF71ACF2E503109F7CF72
:101F10006115710509F474C0232B09F471C0FB012C
:101F2000808190E091958195910911E0892B09F0CC
:101F300010E0CE010D960E944E08CE0143960E94FD
:101F40004E08CE0101960E944E08CE0107960E94CF
:101F50004E08112309F456CF6DE785E493E00E9403
:101F6000F4065C0165E172E0CE0107960E94F1077C
:101F7000BE01695F7F4F85E493E00E94D906950119
:101F80002F5F3F4FAC0165E473E0CE0101960E94E4
:101F9000020861E472E0CE010D960E94F107BE01D5
:101FA0006F5F7F4FCE010D960E949C0764E472E044
:101FB0000E948607BC01CE0149960E94DA07CE0135
:101FC0000D960E944E08CE0101960E944E08CE0149
:101FD00007960E944E088D8D9E8D8F709927892BB4
:101FE00009F410CF0E94E710B7010E947B13682FFD
:101FF000CE0149960E946107EECF0E947A1495CFD8
:1020000011E097CF80919302882309F446C04D8D4B
:102010005E8D698D7A8D8FE693E00E94D100CE01AE
:1020200049960E94C6060E9471022B013C018CEB6E
:10203000882E82E0982EA12CB12C0E947102641986
:10204000750986099709683E734081059105A8F3D3
:10205000F1E08F1A9108A108B10828EE420E23E0A2
:10206000521E611C711C81149104A104B10429F752
:10207000CE0149960E944E08CE014F960E944E080E
:1020800080E090E0892B09F4A3CE0E943B018823D5
:1020900009F49ECE0E9400009ACE409149035091CF
:1020A0004A0360914503709146038FE693E00E94D6
:1020B000D10085E493E0B5CF85E493E00E944E081B
:1020C0008BE493E00E944E0881E593E00E944E0865
:1020D00087E593E00E944E088DE593E00E944E084C
:1020E00083E693E00E944E0889E693E00E944E0842
:1020F00084E092E09093700380936F038091430398
:10210000909144038F56934071F4E0918203F091D3
:10211000830390818091840380958923808310922A
:102120004403109243038FE394E00E94290485E165
:1021300094E00C9471048F929F92AF92BF92CF92D1
:10214000DF92EF92FF92CF93DF93EC016881798168
:102150008A819B81611571058105910521F464E2F5
:1021600079ED8BE597E02DE133EF41E050E00E94FF
:10217000E11249015A019B01AC01A7EAB1E40E94B6
:1021800000136B017C01ACEEB4EFA50194010E9439
:102190000E13DC01CB018C0D9D1DAE1DBF1DB7FFC5
:1021A00003C00197A109B04888839983AA83BB83A0
:1021B0009F77DF91CF91FF90EF90DF90CF90BF900E
:1021C000AF909F908F9008950E949B10089588E192
:1021D00091E00E949B100895B0E0A0E08093180168
:1021E00090931901A0931A01B0931B010895BB2786
:1021F000FA01A62F6217710581059105330B30FB9B
:1022000066F0AA27660F771F881F991FAA1FA217BB
:1022100010F0A21B63953850A9F7A05DAA3308F00F
:10222000A95DA19336F7B111B1931082CA010C9444
:10223000D1124532510520F4423010F00C94241193
:10224000FB011082CB010895BB27FB015527AA276C
:10225000880F991FAA1FA41710F0A41B8395505133
:10226000B9F7A05DAA3308F0A95DA193009779F7AB
:10227000B111B1931192CB010C94D1120F931F9312
:10228000CF93DF93009759F46115710541F4F0E0A5
:10229000E0E0CF01DF91CF911F910F9108958B0165
:1022A000EC016EE070E081E090E00E948911FC0199
:1022B000892B69F380E883830115110571F0138779
:1022C000028781E8838380916D0490916E04892B4D
:1022D00021F4F0936E04E0936D042097D1F2D1873E
:1022E000C08783818260838380916F0490917004A2
:1022F000892B79F6F0937004E0936F048091710458
:1023000090917204892B29F6F0937204E093710482
:10231000C0CF0F931F93CF93DF93869F8001879F3A
:10232000100D969F100D1124C8010E94A511EC01FB
:10233000009729F0A80170E060E00E94CA12CE0167
:10234000DF91CF911F910F9108950F931F93CF931A
:10235000DF938230910510F482E090E0E091750403
:10236000F091760430E020E0B0E0A0E0309799F4FE
:102370002115310509F44AC0281B390B24303105D9
:10238000D8F58A819B816115710589F1FB019383E1
:102390008283FE0111C0408151810281138148175F
:1023A0005907E0F04817590799F4109761F0129611
:1023B0000C93129713961C933296CF01DF91CF9115
:1023C0001F910F9108950093750410937604F4CF34
:1023D0002115310551F04217530738F0A901DB01EF
:1023E0009A01BD01DF01F801C1CFEF01F9CF909350
:1023F000760480937504CDCFFE01E20FF31F819325
:1024000091932250310939832883D7CF20917304C7
:1024100030917404232B41F420911E0130911F014F
:10242000309374042093730420911C0130911D019A
:102430002115310541F42DB73EB74091200150914F
:102440002101241B350BE0917304F0917404E21711
:10245000F307A0F42E1B3F0B2817390778F0AC01C7
:102460004E5F5F4F2417350748F04E0F5F1F5093A4
:10247000740440937304819391939FCFF0E0E0E064
:102480009CCFCF93DF930097E9F0FC013297138242
:102490001282A0917504B0917604ED0130E020E045
:1024A0001097A1F420813181820F931F2091730432
:1024B000309174042817390709F061C0F09374044F
:1024C000E0937304DF91CF910895EA01CE17DF07FF
:1024D000E8F54A815B819E0141155105B1F7E9019B
:1024E000FB83EA8349915991C40FD51FEC17FD076F
:1024F00061F4808191810296840F951FE90199838F
:102500008883828193819B838A83F0E0E0E0129646
:102510008D919C9113970097B9F52D913C9111974E
:10252000CD010296820F931F2091730430917404A1
:102530002817390739F6309751F510927604109222
:102540007504B0937404A0937304BCCFD383C28387
:1025500040815181840F951FC817D90761F44E5FE0
:102560005F4F88819981480F591F518340838A8129
:102570009B81938382832115310509F0B0CFF093BD
:102580007604E09375049ECFFD01DC01C0CF138279
:102590001282D7CFDC0101C06D9341505040E0F76B
:1025A0000895DC01FC01672F71917723E1F73297E1
:1025B00004C07C916D9370836291AE17BF07C8F31E
:1025C0000895052E97FB1EF400940E94F81257FD03
:1025D00007D00E944A1307FC03D04EF40C94F81263
:1025E00050954095309521953F4F4F4F5F4F08953F
:1025F00090958095709561957F4F8F4F9F4F08956F
:102600000E946C13A59F900DB49F900DA49F800D08
:10261000911D11240895B7FF0C9400130E9400131C
:10262000821B930B08952F923F924F925F926F926D
:102630007F928F929F92AF92BF92CF92DF92EF9252
:10264000FF920F931F93CF93DF93CDB7DEB7CA1BD3
:10265000DB0B0FB6F894DEBF0FBECDBF09942A88FE
:10266000398848885F846E847D848C849B84AA84A6
:10267000B984C884DF80EE80FD800C811B81AA8133
:10268000B981CE0FD11D0FB6F894DEBF0FBECDBFFE
:10269000ED010895A1E21A2EAA1BBB1BFD010DC07E
:1026A000AA1FBB1FEE1FFF1FA217B307E407F50702
:1026B00020F0A21BB30BE40BF50B661F771F881FDE
:1026C000991F1A9469F760957095809590959B0174
:1026D000AC01BD01CF010895A29FB001B39FC0011D
:1026E000A39F700D811D1124911DB29F700D811D3E
:1026F0001124911D089597FB072E16F4009407D01E
:1027000077FD09D00E948F1307FC05D03EF4909509
:1027100081959F4F0895709561957F4F0895AA1BED
:10272000BB1B51E107C0AA1FBB1FA617B70710F0BC
:10273000A61BB70B881F991F5A95A9F780959095EE
:10274000BC01CD010895EE0FFF1F0590F491E02D1F
:102750000994B0E0A0E0EFEAF3E10C9415138C01CA
:10276000009751F4CB010E94A5118C01C801CDB78F
:10277000DEB7E0E10C943113FC01E60FF71F9C017A
:1027800022503109E217F30708F49DC0D901CD9119
:10279000DC911197C617D70798F0C530D10530F3F3
:1027A000CE0104978617970708F3C61BD70B22970D
:1027B000C193D1936D937C93CF010E944112D6CFE8
:1027C0005B01AC1ABD0A4C018C0E9D1EA0917504D4
:1027D000B0917604512C412CF12CE12C109731F55D
:1027E00080917304909174048815990509F05CC078
:1027F0004616570608F058C080911C0190911D01A3
:10280000009741F48DB79EB740912001509121016E
:10281000841B950BE817F90708F055C0F093740472
:10282000E0937304F90171836083A0CF8D919C9133
:10283000119712966C90129713967C901397A81587
:10284000B90559F56C0142E0C40ED11CCA14DB0471
:1028500020F1AC014A195B09DA011296159780F054
:102860006282738251834083D9016D937C93E1141A
:10287000F10471F0D7011396FC93EE93129776CF83
:1028800022968C0F9D1FF90191838083F301EFCF76
:10289000F0937604E093750469CF4816590608F45E
:1028A0002C017D01D3019ACFCB010E94A5117C019F
:1028B000009749F0AE01B8010E946614C8010E9459
:1028C0004112870153CF10E000E050CFFB01DC0143
:1028D00002C001900D9241505040D8F70895FC017C
:1028E0008191861721F08823D9F799270895319788
:1028F000CF010895FB01DC018D9101908019011039
:10290000D9F3990B0895FB01DC0101900D92002091
:10291000E1F70895FB0151915523A9F0BF01DC01B6
:102920004D9145174111E1F759F4CD010190002077
:1029300049F04D9140154111C9F3FB014111EFCF11
:1029400081E090E00197089510E0C2E6D0E004C075
:10295000FE010E94A3132196C336D107C9F7F8944C
:02296000FFCFA7
:1029620008090A0B07060504373839BC343536BD69
:10297200313233809430A9B60100000000007704A0
:1029820080004E010100180000000000000000005D
:10299200E8FFE8FF00000000000014000000000053
:1029A20000000000ECFFECFF00000000000004004B
:1029B2000000000088049A08000000004004560845
:1029C200F703F403F103EE031003E303A8038F03F9
:1029D200760396023703130302000000000053043B
:1029E2008E08FEFFFEFF0000410490080600000072
:1029F20000000B048208FAFFFAFF0000F9038408C2
:102A0200AE012C013601B8011800000000002904B3
:102A12006C08E8FFE8FF000036047608CA014001AE
:102A22004A01D40114000000000071045808ECFFB0
:102A3200ECFF00007E046208000000007101D1007A
:102A4200FE00BE012F010D01210100000000B604AD
:102A5200B2048A0400000000B806D1001003890401
:102A620000000000D304D1001003D2042F05470553
:102A7200BA040D0A007B7B003C3C003E3E005E5ED9
:102A820000232300425473657269616C2073746180
:102A920072746564206174203537363030002B2B18
:082AA200002D2D00213B000076
:107800000C94343C0C94513C0C94513C0C94513CE1
:107810000C94513C0C94513C0C94513C0C94513CB4
:107820000C94513C0C94513C0C94513C0C94513CA4
:107830000C94513C0C94513C0C94513C0C94513C94
:107840000C94513C0C94513C0C94513C0C94513C84
:107850000C94513C0C94513C0C94513C0C94513C74
:107860000C94513C0C94513C11241FBECFEFD8E036
:10787000DEBFCDBF11E0A0E0B1E0ECE9FFE702C060
:1078800005900D92A230B107D9F712E0A2E0B1E065
:1078900001C01D92AD30B107E1F70E942D3D0C945F
:1078A000CC3F0C94003C982F959595959595959582
:1078B000905D8F708A307CF0282F295A8091C0000B
:1078C00085FFFCCF9093C6008091C00085FFFCCF60
:1078D0002093C6000895282F205DF0CF982F809127
:1078E000C00085FFFCCF9093C6000895EF92FF92F1
:1078F0000F931F93EE24FF2487018091C00087FD22
:1079000017C00894E11CF11C011D111D81E4E8164B
:1079100082E4F8068FE0080780E0180770F3E09132
:107920000401F091050109958091C00087FFE9CF1E
:107930008091C6001F910F91FF90EF9008950E94D3
:10794000763C982F8091C00085FFFCCF9093C600B5
:1079500091362CF490330CF09053892F089597555D
:10796000892F08951F930E949F3C182F0E949F3CCF
:107970001295107F810F1F9108951F93182F882350
:1079800021F00E94763C1150E1F71F9108951F935A
:10799000182F0E94763C803249F0809103018F5F5E
:1079A000809303018530C1F01F9108958091C0003C
:1079B00085FFFCCF84E18093C6008091C00085FFE5
:1079C000FCCF1093C6008091C00085FFFCCF80E102
:1079D0008093C6001F910895E0910401F091050184
:1079E00009951F9108950E94763C803241F0809164
:1079F00003018F5F80930301853081F008958091AA
:107A0000C00085FFFCCF84E18093C6008091C00058
:107A100085FFFCCF80E18093C6000895E0910401CA
:107A2000F09105010995089540E951E08823A1F0FE
:107A30002D9A28EE33E0FA013197F1F721503040CA
:107A4000D1F72D9828EE33E0FA013197F1F7215064
:107A50003040D1F7815061F708953F924F925F9285
:107A60006F927F928F929F92AF92BF92CF92DF924E
:107A7000EF92FF920F931F93CF93DF93000080E16B
:107A80008093C4001092C50088E18093C10086E015
:107A90008093C2005098589A259A81E00E94143D24
:107AA00024E1F22E9EE1E92E85E9D82E0FE0C02ECA
:107AB00010E1B12EAA24A394B1E49B2EA6E58A2E50
:107AC000F2E57F2EE0E26E2E79E4572E63E5462E36
:107AD00050E5352E0E94763C8033B1F18133B9F107
:107AE000803409F46FC0813409F476C0823409F41B
:107AF00085C0853409F488C0803531F1823521F1A3
:107B0000813511F1853509F485C0863509F48DC0BC
:107B1000843609F496C0843709F403C1853709F423
:107B200072C1863709F466C0809103018F5F80932C
:107B30000301853079F6E0910401F0910501099582
:107B40000E94763C803351F60E94F33CC3CF0E94E2
:107B5000763C803249F78091C00085FFFCCFF092DF
:107B6000C6008091C00085FFFCCF9092C600809136
:107B7000C00085FFFCCF8092C6008091C00085FFC9
:107B8000FCCF7092C6008091C00085FFFCCF609250
:107B9000C6008091C00085FFFCCF5092C600809146
:107BA000C00085FFFCCF4092C6008091C00085FFD9
:107BB000FCCF3092C6008091C00085FFFCCFB09210
:107BC000C60088CF0E94763C863808F4BDCF0E945C
:107BD000763C0E94F33C7ECF0E94763C803809F4CC
:107BE0009CC0813809F40BC1823809F43CC1883942
:107BF00009F48FC080E00E94C73C6CCF84E10E94F2
:107C0000BD3C0E94F33C66CF85E00E94BD3C0E94D3
:107C1000F33C60CF0E94763C809306010E94763C44
:107C2000809307010E94F33C55CF0E94763C80333D
:107C300009F41DC183E00E94BD3C80E00E94C73C66
:107C400049CF0E94763C809309020E94763C809343
:107C5000080280910C028E7F80930C020E94763C79
:107C6000853409F415C18091080290910902892B8D
:107C700089F000E010E00E94763CF801E85FFE4FDA
:107C800080830F5F1F4F80910802909109020817AF
:107C9000190788F30E94763C803209F045CF809125
:107CA0000C0280FF01C16091060170910701660F0F
:107CB000771F7093070160930601A0910802B091AD
:107CC00009021097C9F0E8E0F1E09B01AD014E0F09
:107CD0005F1FF999FECF32BD21BD819180BDFA9A17
:107CE000F99A2F5F3F4FE417F50799F76A0F7B1F4B
:107CF00070930701609306018091C00085FFFCCF5F
:107D0000F092C6008091C00085FFFCCFB092C60003
:107D1000E1CE83E00E94C73CDDCE82E00E94C73CFA
:107D2000D9CE0E94763C809309020E94763C8093D3
:107D300008028091060190910701880F991F909386
:107D40000701809306010E94763C853409F4A6C0A1
:107D500080910C028E7F80930C020E94763C8032D0
:107D600009F0B8CE8091C00085FFFCCFF092C6002C
:107D7000609108027091090261157105B9F140E046
:107D800050E080910C02A82FA170B82FB27011C0E2
:107D9000BB2309F45CC0E0910601F0910701319624
:107DA000F0930701E09306014F5F5F4F46175707B7
:107DB000E8F4AA2369F3F999FECF209106013091E6
:107DC000070132BD21BDF89A90B58091C00085FFB2
:107DD000FCCF9093C6002F5F3F4F30930701209355
:107DE00006014F5F5F4F4617570718F38091C00099
:107DF00085FDE5CE8091C00085FFF8CFE0CE81E023
:107E00000E94C73C67CE0E94763C803209F08CCE3F
:107E10008091C00085FFFCCFF092C6008091C00029
:107E200085FFFCCFE092C6008091C00085FFFCCFAB
:107E3000D092C6008091C00085FFFCCFC092C600E2
:107E40008091C00085FFFCCFB092C60043CEE09188
:107E50000601F091070194918091C00085FFFCCF4D
:107E60009093C6009CCF80E10E94C73C33CE0E9415
:107E7000763C0E94763C182F0E94763C112309F430
:107E800083C0113009F484C08FE00E94C73C22CE29
:107E900080910C02816080930C02E5CE80910C02EF
:107EA000816080930C0259CF809107018823880F4D
:107EB000880B8A2180930B02809106019091070123
:107EC000880F991F90930701809306018091080203
:107ED00080FF09C080910802909109020196909359
:107EE000090280930802F894F999FECF1127E091D6
:107EF0000601F0910701C8E0D1E08091080290915D
:107F00000902103091F40091570001700130D9F34B
:107F100003E000935700E89500915700017001308D
:107F2000D9F301E100935700E89509901990009169
:107F3000570001700130D9F301E000935700E89534
:107F40001395103498F011270091570001700130FB
:107F5000D9F305E000935700E895009157000170B0
:107F60000130D9F301E100935700E895329602976A
:107F700009F0C7CF103011F00296E5CF112480919F
:107F8000C00085FFB9CEBCCE8EE10E94C73CA2CD19
:0C7F900085E90E94C73C9ECDF894FFCF0D
:027F9C00800063
:040000030000780081
:00000001FF
