:100000000C9463000C948B000C948B000C946A0984
:100010000C946A090C946A090C948B000C948B0064
:100020000C948B000C948B000C948B000C948B0024
:100030000C948B000C948B000C948B000C948B0014
:100040000C9420090C948B000C94EE080C94C808B6
:100050000C948B000C948B000C948B000C948B00F4
:100060000C948B000C948B000000000024002700EF
:100070002A0000000008000201000003040700003D
:1000800000000000000000000000230026002900FE
:1000900000000000250028002B00040404040404D0
:1000A0000404020202020202030303030303010227
:1000B00004081020408001020408102001020408F6
:1000C0001020D10B5B1011241FBECFEFD8E0DEBF94
:1000D000CDBF12E0A0E0B1E0E0E6F9E202C0059099
:1000E0000D92A634B107D9F724E0A6E4B2E001C02E
:1000F0001D92A537B207E1F710E0C2E6D0E004C0D8
:100100002197FE010E94A213C136D107C9F70E94B0
:10011000BF0D0C94A3140C9400001F93CF93DF9396
:10012000182FC091A002D091A1028A3041F4E88139
:10013000F9810190F081E02D6DE0CE010995E88113
:10014000F9810190F081E02D612FCE01099521E028
:1001500030E0019711F430E020E0C901DF91CF9148
:100160001F910895CF93DF93C091A002D091A10277
:10017000E881F9810084F185E02DCE010995892B74
:10018000B9F3E881F9810284F385E02DCE01DF9196
:10019000CF910994DC01ED91FC910190F081E02D6B
:1001A0000994AF92BF92CF92DF92EF92FF920F939A
:1001B0001F93CF93DF936C017B018B01040F151FFD
:1001C000EB015E01AE18BF08C017D10759F0699165
:1001D000D601ED91FC910190F081E02DC6010995C9
:1001E000892B79F7C501DF91CF911F910F91FF9076
:1001F000EF90DF90CF90BF90AF900895FC01538DAA
:10020000448D252F30E0842F90E0821B930B5417F0
:1002100010F0CF96089501970895FC01918D828D7D
:10022000981761F0A28DAE0FBF2FB11D5D968C9116
:10023000928D9F5F9F73928F90E008958FEF9FEF55
:100240000895FC01918D828D981731F0828DE80F11
:10025000F11D858D90E008958FEF9FEF0895FC01CB
:10026000918D228D892F90E0805C9F4F821B910998
:100270008F739927089584EA92E00E942F0121E06C
:10028000892B09F420E0822F089580E090E0892BEB
:1002900029F00E943B0181110C9400000895FC019B
:1002A000A48DA80FB92FB11DA35ABF4F2C91848DD7
:1002B00090E001968F739927848FA689B7892C9334
:1002C000A089B1898C91837080648C93938D848D87
:1002D000981306C00288F389E02D80818F7D80838A
:1002E0000895EF92FF920F931F93CF93DF93EC014A
:1002F00081E0888F9B8D8C8D98131AC0E889F989CD
:10030000808185FF15C09FB7F894EE89FF896083CF
:10031000E889F98980818370806480839FBF81E050
:1003200090E0DF91CF911F910F91FF90EF90089592
:10033000F62E0B8D10E00F5F1F4F0F731127E02E6D
:100340008C8D8E110CC00FB607FCFACFE889F989A5
:10035000808185FFF5CFCE010E944F01F1CFEB8D5B
:10036000EC0FFD2FF11DE35AFF4FF0829FB7F89479
:100370000B8FEA89FB8980818062CFCFCF93DF9397
:10038000EC01888D8823B9F0AA89BB89E889F989AD
:100390008C9185FD03C0808186FD0DC00FB607FCE2
:1003A000F7CF8C9185FFF2CF808185FFEDCFCE0115
:1003B0000E944F01E9CFDF91CF910895833081F002
:1003C00028F4813099F08230A9F008958730A9F09F
:1003D0008830C9F08430B1F4809180008F7D03C0F3
:1003E000809180008F7780938000089584B58F7707
:1003F00084BD089584B58F7DFBCF8091B0008F7749
:100400008093B00008958091B0008F7DF9CF1F9345
:10041000CF93DF93282F30E0F901EE58FF4F8491FE
:10042000F901E255FF4FD491F901E656FF4FC4910F
:10043000CC23A9F0162F81110E94DE01EC2FF0E0F1
:10044000EE0FFF1FE057FF4FA591B4918FB7F894BF
:10045000EC91111108C0D095DE23DC938FBFDF91A2
:10046000CF911F910895DE2BF8CFCF93DF9390E0CB
:10047000FC01E255FF4F249186569F4FFC01849169
:100480008823C9F090E0880F991FFC01E859FF4FBD
:10049000A591B491FC01E057FF4FC591D491611132
:1004A0000DC09FB7F8948C91209582238C938881FE
:1004B000282328839FBFDF91CF910895623051F4A4
:1004C0009FB7F8943C91822F809583238C93E88189
:1004D0002E2BEFCF8FB7F894EC912E2B2C938FBF50
:1004E000EACF3FB7F89480918B0290918C02A09153
:1004F0008D02B0918E0226B5A89B05C02F3F19F042
:100500000196A11DB11D3FBFBA2FA92F982F882793
:10051000BC01CD01620F711D811D911D42E0660F6E
:10052000771F881F991F4A95D1F70895CB01089529
:100530004F925F926F927F92BF92CF92DF92EF9233
:10054000FF920F931F93CF93DF93EC0129013A01A0
:100550008B01C12CD12C7601C414D504E604F70418
:100560000CF03FC0F801B1908F018F8580FF0BC068
:10057000E881F9810084F185E02D20E144E070E01C
:1005800060E0CE010995EB85FC858D859E85E81799
:10059000F90760F4B0828B859C8501969C878B87D8
:1005A0002FEFC21AD20AE20AF20AD6CF6B2D70E000
:1005B000E881F981028CF38DE02DCE010995019639
:1005C00079F7C701B601DF91CF911F910F91FF908D
:1005D000EF90DF90CF90BF907F906F905F904F90A3
:1005E000089573016201EDCFCF93DF93EC01E881B1
:1005F000F9810288F389E02D09958F3F980731F042
:100600002D813E812F5F3F4F3E832D83DF91CF9120
:1006100008958FEF9FEF089560E070E0CB0108959B
:1006200090E080E00895FF920F931F93CF93DF93A4
:100630008C01EB016F3F7607B9F0F62EEAE06E13FE
:1006400006C06DE0F801808991890E94CA006F2D73
:10065000F801808991890E94CA00CE01DF91CF9173
:100660001F910F91FF900895D0E0C0E0F6CF7F92E8
:100670008F929F92AF92BF92CF92DF92EF92FF92B2
:100680000F931F93CF93DF938C0149015A01EB0124
:10069000C12CD12C7601C814D904EA04FB04B4F4AB
:1006A00079908AE0781206C06DE0F801808991891E
:1006B0000E94CA00672DF801808991890E94CA00B2
:1006C000FFEFCF1ADF0AEF0AFF0AE5CFC501B40139
:1006D000DF91CF911F910F91FF90EF90DF90CF901E
:1006E000BF90AF909F908F907F900895CF93DF93AE
:1006F000EC0188899989DC01ED91FC910084F185F8
:10070000E02D0995892BA9F388899989DC01ED9160
:10071000FC910284F385E02DDF91CF910994CF9372
:10072000DF93EC0188899989DC01ED91FC910084CB
:10073000F185E02D0995892BA9F388899989DC0138
:10074000ED91FC910484F585E02DDF91CF91099422
:100750008F929F92AF92BF92CF92DF92EF92FF92D1
:100760000F931F93CF93DF938C0149015A01EB0143
:10077000C12CD12C7601D80150968D919C91DC0131
:10078000ED91FC910284F385E02D09958F3F61F096
:10079000C814D904EA04FB043CF48993BFEFCB1AD4
:1007A000DB0AEB0AFB0AE7CFC701B601DF91CF9165
:1007B0001F910F91FF90EF90DF90CF90BF90AF907F
:1007C0009F908F900895DC0150968D919C91DC0153
:1007D000ED91FC910084F185E02D099490E080E09A
:1007E000089590E080E0089590E080E008950895F5
:1007F0000895DC01ED91FC9136970190F081E02D98
:10080000E80FF91F82E991E0918380838CE991E000
:1008100097838683089522E931E0FC0131832083A8
:100820002CE931E0378326830895FB012081318153
:10083000FC0131832083FB01428153812650310921
:10084000F90120813181820F931FFC015183408384
:1008500008952EEA31E0FC013183208328EB31E05A
:10086000318F208F62EA71E00C941504DC01ED9168
:10087000FC91369720813181820F931F0C942904BB
:100880000895DC01ED91FC9136970190F081E02D07
:10089000E80FF91F8EE791E09183808388E891E06B
:1008A0009383828308952EE731E0FC013183208316
:1008B00028E831E0338322830895FB0120813181D0
:1008C000FC0131832083FB01428153812650310991
:1008D000F90120813181820F931FFC0151834083F4
:1008E00008952AEC31E0FC013183208324ED31E0CE
:1008F000358B248B6EEB71E00C945D04DC01ED9183
:10090000FC91369720813181820F931F0C947104E2
:1009100008950895CF93DF9370E0FB01EE58FF4FE9
:100920008491FB01E255FF4FD49166567F4FFB0146
:10093000C491CC23A1F081110E94DE01EC2FF0E0E4
:10094000EE0FFF1FEA57FF4FA591B491EC91ED23F5
:1009500081E090E009F480E0DF91CF91089580E09C
:1009600090E0FACF862F642F0C940702862F642F15
:100970000C94350220914103309142032817390726
:1009800071F490918F0280919002981741F0E0915C
:100990008F02F0E0EA5BFD4F808190E008958FEFD9
:1009A0009FEF08950895EF92FF920F931F93CF93B7
:1009B000DF93DC015C96ED90FC905D97E114F1040F
:1009C00079F481E090E013969C938E93129790E0D7
:1009D00080E0DF91CF911F910F91FF90EF900895EC
:1009E0005196ED91FC91529750968C915097982F7B
:1009F00090950FB75E962C915E97122F127021FD85
:100A00006095F8942081112319F1282B2083E701A8
:100A10002197F1F728E0462F50E0308160FF1AC09F
:100A2000382B3083E7012197F1F7BA017595679567
:100A3000215089F7112381F08081892380830FBFA2
:100A40005C968D919C910197F1F781E090E0C1CF88
:100A50002923DCCF3923E5CF9081892BEFCF20915B
:100A60004103309142032817390771F480919002B5
:100A700020918F0290E0805C9F4F821B910960E47F
:100A800070E00E947A13089590E080E0089520912C
:100A900041033091420328173907B9F490918F022E
:100AA00080919002981789F0E0918F02F0E0EA5B64
:100AB000FD4F808120918F0230E02F5F3F4F2F73D9
:100AC000332720938F0290E008958FEF9FEF0895D2
:100AD000CF93DF93EC0160E08E810E94070261E01A
:100AE0008E810E94070260E08E810E9407028BE8DF
:100AF00091E00197F1F7DF91CF910895CF92DF92C6
:100B0000EF92FF920F931F93CF93DF936C017C01C1
:100B100087E0E80EF11CD0E0C0E0062F10E0B8013D
:100B20000C2E02C0759567950A94E2F76170F70183
:100B300081917F010E9407022196C430D10579F787
:100B4000C601DF91CF911F910F91FF90EF90DF9041
:100B5000CF900C946805CF92DF92EF92FF920F93A3
:100B60001F93CF93DF93EC01F62E642F8C810E94AC
:100B700007028D818F3F19F060E00E9407020F2D60
:100B800010E08F8584FF25C06E0187E0C80ED11C60
:100B9000F12CE12CB8010E2C02C0759567950A94D2
:100BA000E2F76170F60181916F010E940702FFEF89
:100BB000EF1AFF0A88E0E816F10461F7CE01DF9131
:100BC000CF911F910F91FF90EF90DF90CF900C94F9
:100BD0006805B80184E0759567958A95E1F7CE01BF
:100BE0000E947E056F2DCE01DF91CF911F910F9155
:100BF000FF90EF90DF90CF900C947E05CF93DF9322
:100C0000623029F490910A04986090930A046093EA
:100C10000E0410920F0490E490931004809311043A
:100C2000805C8093120461E08091FF030E94350292
:100C3000809100048F3F19F061E00E94350261E06D
:100C4000809101040E943502CBEFD3E09E012B5F1F
:100C5000334080910A0484FD0BC084E090E021962B
:100C60002817390744F461E08E810E943502EECFE7
:100C700088E090E0F4CF8BE39DE00197F1F760E02E
:100C80008091FF030E94070260E0809101040E94AE
:100C90000702809100048F3F19F060E00E94070274
:100CA00060910A0464FD45C063E08BEF93E00E940D
:100CB0007E05CBE4D6E4CE010197F1F763E08BEF3C
:100CC00093E00E947E052197F1F763E08BEF93E0BC
:100CD0000E947E0583E592E00197F1F762E08BEFD9
:100CE00093E00E947E0560910A04606240E08BEF11
:100CF00093E00E94AB0584E080930B0440E06CE03D
:100D00008BEF93E00E94AB0540E061E08BEF93E056
:100D10000E94AB058BE39FE10197F1F782E080939E
:100D20000C0440E066E08BEF93E0DF91CF910C94F0
:100D3000AB05606240E08BEF93E00E94AB058BE473
:100D400096E40197F1F760910A04606240E08BEF4E
:100D500093E00E94AB0583E592E00197F1F7609183
:100D60000A04606240E08BEF93E00E94AB05BBCFCA
:100D700041E00E94AB0581E090E0089542E050E040
:100D800062E172E084EA92E00C94D100CF93DF93A9
:100D9000FC01448155816081718184EA92E00E9466
:100DA000D100EC010E94BE068C0F9D1FDF91CF91F8
:100DB0000895CF93DF93DC0114962D913C91159704
:100DC000232B79F0FB01CD91DC9160817181CE0103
:100DD0000E948914009729F08C1B9D0BDF91CF9105
:100DE00008958FEF9FEFFACFCF93DF93FC0124811B
:100DF0003581232B79F0C081D181062E000C770B31
:100E0000CE010E946E14009729F08C1B9D0BDF9180
:100E1000CF9108958FEF9FEFFACF0F931F93CF934A
:100E2000DF93EC0188819981009759F02A813B81F9
:100E30002617370730F081E0DF91CF911F910F9196
:100E400008958B016F5F7F4F0E94A813009759F0A0
:100E5000998388831B830A832C813D81232B59F737
:100E6000FC011082E8CF80E0E7CFEF92FF920F9372
:100E70001F93CF93DF936115710541F480E0DF91FB
:100E8000CF911F910F91FF90EF900895411551055B
:100E9000B1F07B01EC010C811D81040F151FB8011D
:100EA0000E940D07882351F3288139818C819D810F
:100EB000B701820F931F0E9482141D830C8381E06F
:100EC000DECFCF93DF9300D0CDB7DEB769831A8230
:100ED00041E050E0BE016F5F7F4F0E9435070F90E9
:100EE0000F90DF91CF910895CF93DF93EC0188812C
:100EF0009981009711F00E944012198218821D8278
:100F00001C821B821A82DF91CF910895CF93DF93C9
:100F1000EC01FB0101900020E9F73197AF01461B7E
:100F2000570B0E943507811103C0CE010E94740740
:100F3000CE01DF91CF910895CF93DF93EC01FB01B8
:100F400044815581608171810E943507811103C000
:100F5000CE010E947407CE01DF91CF910895EF92E8
:100F6000FF920F931F93CF93DF93EC017B018A01D4
:100F7000BA010E940D0781110BC0CE010E947407B7
:100F8000CE01DF91CF911F910F91FF90EF900895C7
:100F90001D830C83B701888199810E948214F0CF50
:100FA000FB0101900020E9F73197AF01461B570B79
:100FB0000C94AF07CF93DF93EC01FB0186179707E3
:100FC00049F0608171816115710541F0448155815D
:100FD0000E94AF07CE01DF91CF9108950E94740760
:100FE000F9CFFC01118210821382128215821482C1
:100FF000FB0101900020E9F73197AF01461B570B29
:101000000C94AF07AF92BF92CF92DF92EF92FF9214
:101010000F931F93CF93DF936C015B017A018901DA
:101020002417350720F48F2D7901042F182F64E140
:1010300072E0C6010E94F107D5011496CD91DC91B2
:10104000EC16FD06E0F40C171D0708F4E801D501C5
:10105000ED91FC911197EC0FFD1F108110826D91A5
:101060007C916E0D7F1DC60161157105A1F00E9476
:10107000D007F50180819181C80FD91F1883C6015F
:10108000DF91CF911F910F91FF90EF90DF90CF9064
:10109000BF90AF9008950E947407EBCFFC01808150
:1010A0009181009711F00C94401208950C94401215
:1010B000CF93DF93EC010E947104CE01DF91CF91B9
:1010C0000C944012DC01ED91FC9136972081318126
:1010D000820F931F0C945808CF93DF93EC010E946A
:1010E0002904CE01DF91CF910C944012DC01ED91E7
:1010F000FC91369720813181820F931F0C946C08EC
:101100000C9440120C944012DC01ED91FC91369746
:1011100020813181820F931F0C9482080C9440121D
:10112000DC01ED91FC91369720813181820F931F74
:101130000C948E080C9440120F931F93CF93DF935F
:10114000CDB7DEB761970FB6F894DEBF0FBECDBF47
:101150008C01CB01F8011182108213821282158258
:10116000148250E0BE016F5F7F4F0E941811BE01D4
:101170006F5F7F4FC8010E94D00761960FB6F89449
:10118000DEBF0FBECDBFDF91CF911F910F910895AC
:101190001F920F920FB60F9211242F933F934F93EC
:1011A0005F936F937F938F939F93AF93BF93EF93CF
:1011B000FF9384EA92E00E944F01FF91EF91BF916B
:1011C000AF919F918F917F916F915F914F913F91DF
:1011D0002F910F900FBE0F901F9018951F920F9296
:1011E0000FB60F9211242F938F939F93EF93FF933A
:1011F000E091B402F091B5028081E091BA02F091E1
:10120000BB0282FD1BC090818091BD028F5F8F73F6
:101210002091BE02821741F0E091BD02F0E0EC5552
:10122000FD4F958F8093BD02FF91EF919F918F911C
:101230002F910F900FBE0F901F9018958081F4CFC3
:101240001F920F920FB60F9211242F933F938F93FB
:101250009F93AF93BF938091870290918802A09152
:101260008902B0918A023091860223E0230F2D3744
:1012700058F50196A11DB11D209386028093870227
:1012800090938802A0938902B0938A0280918B0286
:1012900090918C02A0918D02B0918E020196A11DB9
:1012A000B11D80938B0290938C02A0938D02B0931A
:1012B0008E02BF91AF919F918F913F912F910F908F
:1012C0000FBE0F901F90189526E8230F0296A11DC0
:1012D000B11DD2CF1F920F920FB60F9211242F93F0
:1012E0003F934F935F936F937F938F939F93AF93AE
:1012F000BF93EF93FF93E0914103F0914203309746
:1013000049F0A685B7858585968D91FF14C09C917F
:101310008923A1F4FF91EF91BF91AF919F918F919C
:101320007F916F915F914F913F912F910F900FBEE1
:101330000F901F9018959C91892361F7A389B48918
:101340009C918589809589238C93868997890197BB
:10135000F1F7608D718DA685B785558538E020E061
:10136000CB010197F1F7822F90E095958795282F73
:101370004C91452309F02068315091F7868D81FD0D
:1013800020958091900290E001968F73992730917B
:101390008F02381799F0A0919002B0E0AA5BBD4F80
:1013A0002C9380939002828D938D0197F1F7A389FE
:1013B000B4898C919589892B8C93ACCF868D816073
:1013C000868FF1CFCF93DF93EB0188819981ADE3D5
:1013D000B4E011969C938E932A813B810697EC0191
:1013E000E881F981E35CFB4F3183208312961D92E3
:1013F0001D921D921C92159781E290E09483838345
:1014000083E494E0948B838B1582158ADF91CF91CE
:101410000895CF93DF93CDE3D4E081E290E09C8FF9
:101420008B8F1D8E1E8E1F8E86E090E0A0E0B0E0B8
:1014300088A399A3AAA3BBA31CA21DA21EA21FA29C
:1014400084E591E0998F888F80E288A71AA619A673
:1014500083E494E09CA78BA71DA6AC0162EA71E02F
:10146000CE010E94E2098EEA91E09983888388EB9D
:1014700091E0998F888F1A8619861C861B861E8696
:101480001D86188A1F861A8A198A1C8A1B8A8CE56F
:1014900091E09F838E8384EA92E09F8B8E8B88E01D
:1014A0008D8BDF91CF910895DB018D919C911197E8
:1014B000909314048093130412962D913C910697F7
:1014C000DC01ED91FC91ED5EFB4F3183208381E2E5
:1014D00090E09483838385E194E0948B838B1582E1
:1014E000158A0895CF93DF93C3E1D4E081E290E0C1
:1014F000988F8F8B198E1A8E1B8E86E090E0A0E05D
:10150000B0E08C8F9D8FAE8FBF8F18A219A21AA248
:101510001BA284E591E09D8B8C8B80E28CA31EA2A4
:101520001DA285E194E098A78FA319A6AC016EEBEC
:1015300071E0CE010E94540A8AEC91E0998388837D
:1015400084ED91E09D8B8C8B1E821D8218861F82FC
:101550001A8619861C861B861E861D86188A1F867B
:101560008CE591E09B838A8384EA92E09B8B8A8B53
:1015700080E1898BDF91CF9108952F923F924F9216
:101580005F926F927F928F929F92AF92BF92CF9213
:10159000DF92EF92FF920F931F93CF93DF93CDB71C
:1015A000DEB7E5970FB6F894DEBF0FBECDBF4C0196
:1015B0003B015DAB4CAB1701280140E1B901CE0105
:1015C0008E960E949C0840E16CA97DA9CE01889668
:1015D0000E949C084AE0B301CE0182960E949C08BA
:1015E00065E172E0CE0101960E94F107BE016E5DD9
:1015F0007F4FCE0101960E949C0768E172E00E9435
:101600008607BE01685D7F4F0E949C076BE172E018
:101610000E948607BE01625D7F4F0E949C076EE1BB
:1016200072E00E948607F4011182108213821282F6
:1016300015821482BC01C4010E94DA07CE01019612
:101640000E944E08CE0182960E944E08CE018896D6
:101650000E944E08CE018E960E944E088501CC0C49
:10166000DD1CCA0CDB1C0C151D0509F440C0F8017B
:10167000819191918F011BA21AA21DA21CA21FA2EF
:101680001EA240E1BE016F5F7F4F90E00E942311D8
:10169000BE016F5F7F4FCE0182960E94D0071A82F3
:1016A00019821C821B821E821D82BE016E5D7F4FCD
:1016B000CE0101960E94DA076DE2CE0101960E94EA
:1016C0006107811104C0CE0101960E9474074D810B
:1016D0005E8169817A81C4010E943507CE0101963D
:1016E0000E944E08CE0182960E944E08BCCF1BA2DB
:1016F0001AA21DA21CA21FA21EA220E1AE014F5FD2
:101700005F4FC201B1010E94F610BE016F5F7F4FB3
:10171000CE0182960E94D0071A8219821C821B82F7
:101720001E821D82B401CE0101960E94DA0761E299
:1017300072E0CE0101960E948607BE016E5D7F4F6A
:101740000E949C078C016DE70E946107811103C014
:10175000C8010E947407B801C4010E94DA07CE01D3
:1017600001960E944E08CE0182960E944E08C40146
:10177000E5960FB6F894DEBF0FBECDBFDF91CF91D7
:101780001F910F91FF90EF90DF90CF90BF90AF909F
:101790009F908F907F906F905F904F903F902F9091
:1017A0000895AF92BF92CF92DF92EF92FF920F9384
:1017B0001F931092A7021092A60288EE93E0A0E079
:1017C000B0E08093A8029093A902A093AA02B093DC
:1017D000AB028CED91E09093A5028093A40285EC7E
:1017E00090E09093B1028093B00284EC90E09093EB
:1017F000B3028093B20280EC90E09093B5028093A4
:10180000B40281EC90E09093B7028093B60282EC30
:1018100090E09093B9028093B80286EC90E09093A8
:10182000BB028093BA021092BD021092BE021092C7
:10183000BF021092C00264EA72E083E194E00E9469
:10184000720A64EA72E08DE394E00E94090A109241
:10185000A3021092A20284EA92E09093A1028093E4
:10186000A00262EB70E08DE890E00E943D11909341
:10187000A3028093A2021092FE031092FD0388EF50
:1018800091E09093FC038093FB038EE08093FF0331
:101890008FEF809300048FE08093010480E18093B8
:1018A000020481E18093030482E18093040483E1D4
:1018B0008093050410920604109207041092080405
:1018C0001092090410920A0461E080E10E94FE0572
:1018D00010928E0310929203109291031092930330
:1018E0008EEE91E090938D0380938C03E8EAF3E011
:1018F00084EE93E0108214821382158236968E173E
:101900009F07C1F784E091E09093EF038093EE038B
:1019100080E091E09093F1038093F00384E0809362
:10192000F2038093F30388E091E09093ED038093BA
:10193000EC038AE090E09093F5038093F40384EF46
:1019400091E09093F7038093F6031092FA031092BC
:10195000F9031092E8031092E9031092EA0310923F
:10196000EB031092F8031092700310926F0388EE4D
:1019700093E0A0E0B0E08093710390937203A09392
:101980007303B093740384E092E090936E038093AA
:101990006D031092840310928303109286031092B9
:1019A0008503109288031092870310928A03109285
:1019B000890360918B036E7F6D7F60938B036695C7
:1019C000617081E0682783E00E94070261E083E0A4
:1019D0000E943502E1EBF0E0E491E0937D03EDE954
:1019E000F0E0E491F0E0EE0FFF1FE057FF4F85912C
:1019F000949190937F0380937E0360E082E00E9445
:101A0000350280918B0381FD04C061E082E00E9479
:101A1000070282E080937903E0EBF0E0E491E09349
:101A20007A03ECE9F0E0E491F0E0EE0FFF1FEA57F3
:101A3000FF4F8591949190937C0380937B0392E177
:101A4000A92E92E0B92ED12CC12C19ECE12E11E176
:101A5000F12E00E010E028E030E048E050E060E1E6
:101A600070E087E693E00E94BD0A32E1A32E32E0E7
:101A7000B32ED12CC12C10ECE12E12E0F12E00E09F
:101A800010E028E030E048E050E06CE370E081E6F0
:101A900093E00E94BD0A52E1A52E52E0B52ED12C52
:101AA000C12C17E5E12E1FE1F12E00E010E02AE045
:101AB00030E048E050E067E170E08BE593E00E94A1
:101AC000BD0A72E1A72E72E0B72ED12CC12C1FE304
:101AD000E12E12E0F12E00E010E023E030E048E0DB
:101AE00050E06BE170E085E593E00E94BD0AF2E111
:101AF000AF2EF2E0BF2ED12CC12C18ECE12E1BE052
:101B0000F12E00E010E025E030E049E250E068E02E
:101B100070E08FE493E00E94BD0AA0902201B09093
:101B20002301C0902401D090250113ECE12E12E096
:101B3000F12E00E010E027E030E049E250E06AE1F9
:101B400070E089E493E00E94BD0A10924403109271
:101B500043031092460310924503109248031092DB
:101B6000470367E673E083E493E01F910F91FF90D2
:101B7000EF90DF90CF90BF90AF900C94DA07CF93A7
:101B8000DF93CDB7DEB7A4970FB6F894DEBF0FBED4
:101B9000CDBF789484B5826084BD84B5816084BDF6
:101BA00085B5826085BD85B5816085BD80916E00FB
:101BB000816080936E00109281008091810082602C
:101BC0008093810080918100816080938100809169
:101BD00080008160809380008091B1008460809358
:101BE000B1008091B00081608093B00080917A0054
:101BF000846080937A0080917A00826080937A007A
:101C000080917A00816080937A0080917A00806868
:101C100080937A001092C10060E082E00E94350259
:101C200061E083E00E943502E091B402F091B502D8
:101C300082E08083E091B002F091B1021082E091E5
:101C4000B202F091B3028FEC80831092BC02E0915B
:101C5000B802F091B90286E08083E091B602F0917B
:101C6000B702808180618083E091B602F091B70273
:101C7000808188608083E091B602F091B702808114
:101C800080688083E091B602F091B70280818F7DF9
:101C9000808310928803109287031092860310921B
:101CA000850310928403109283038DE991E0909351
:101CB0008A038093890390917903963108F047C095
:101CC0002DEB30E030938403209383032BE931E044
:101CD00030938603209385032CE231E03093880310
:101CE000209387032091680084E0983048F031E029
:101CF0009E3008F430E081E001C0880F3A95EAF7A1
:101D0000822B809368002DE630E0983050F02BE66F
:101D100030E09E3030F02CE630E0963110F030E0CC
:101D200020E03093810320938003292F30E0983006
:101D300008F0E1C081E001C0880F9A95EAF780932E
:101D400082038091890390918A030197F1F7809132
:101D5000870390918803892B49F1E0914103F09129
:101D6000420323E0ED36F20709F1309739F0A389F9
:101D7000B4899C918589809589238C9380918B036C
:101D80008E7F80938B031092900210928F028DE6CB
:101D900093E09093420380934103E0918003F0919C
:101DA0008103808190918203892B808348E150E0F8
:101DB00064E272E084EA92E00E94D1000E94BE06D2
:101DC00062E084E10E94FE05EE24EA94F12C01E039
:101DD00080919802811108C064E172E082E992E08A
:101DE0000E94F1070093980264E172E0CE014F96E1
:101DF0000E94F10764E172E0CE0149960E94F1076A
:101E0000109291028DE693E00E942F051816190694
:101E10000CF0F8C08DE693E00E944705182F682F5C
:101E200082E992E00E9461071F3371F462E972E077
:101E3000CE014F960E94DA0764E172E082E992E0F7
:101E40000E94D00700939102CE014F960E94C606D1
:101E50006FE3CE014F960E94F4065C016DE372E0E1
:101E6000CE0107960E94F107BE01695F7F4FCE0148
:101E70004F960E94D906AC014E5F5F4F9501BE019F
:101E8000615E7F4FCE0101960E9402086DE783E4F8
:101E900093E00E94F4065C0165E172E0CE01439696
:101EA0000E94F107BE016D5E7F4F83E493E00E94C4
:101EB000D90695012F5F3F4FAC0163E473E0CE017B
:101EC0000D960E94020829893A898D819E812817E2
:101ED000390771F58D859E8569817A810097C1F0FA
:101EE0006115710509F089C0232B09F489C0FC0133
:101EF000808190E01AC09E3040F42850310981E082
:101F000001C0880F2A95EAF71ACF2E503109F7CF72
:101F10006115710509F474C0232B09F471C0FB012C
:101F2000808190E091958195910911E0892B09F0CC
:101F300010E0CE010D960E944E08CE0143960E94FD
:101F40004E08CE0101960E944E08CE0107960E94CF
:101F50004E08112309F456CF6DE783E493E00E9405
:101F6000F4065C0165E172E0CE0107960E94F1077C
:101F7000BE01695F7F4F83E493E00E94D90695011B
:101F80002F5F3F4FAC0163E473E0CE0101960E94E6
:101F9000020860E472E0CE010D960E94F107BE01D6
:101FA0006F5F7F4FCE010D960E949C0763E472E045
:101FB0000E948607BC01CE0149960E94DA07CE0135
:101FC0000D960E944E08CE0101960E944E08CE0149
:101FD00007960E944E088D8D9E8D8F709927892BB4
:101FE00009F410CF0E94E610B7010E947A13682FFF
:101FF000CE0149960E946107EECF0E94791495CFD9
:1020000011E097CF80919102882309F445C04D8D4E
:102010005E8D698D7A8D8DE693E00E94D100CE01B0
:1020200049960E94C6060E9471022B013C0184E67B
:10203000882E912CA12CB12C0E9471026419750973
:1020400086099709683E734081059105A8F3F1E080
:102050008F1A9108A108B10828EE420E23E0521E03
:10206000611C711C81149104A104B10429F7CE01F3
:1020700049960E944E08CE014F960E944E0880E07D
:1020800090E0892B09F4A4CE0E943B01882309F437
:102090009FCE0E9400009BCE409147035091480381
:1020A00060914303709144038DE693E00E94D10058
:1020B00083E493E0B6CF83E493E00E944E0889E482
:1020C00093E00E944E088FE493E00E944E0885E55D
:1020D00093E00E944E088BE593E00E944E0881E653
:1020E00093E00E944E0887E693E00E944E0884E049
:1020F00092E090936E0380936D03809141039091E1
:1021000042038D56934071F4E0918003F091810376
:10211000908180918203809589238083109242036D
:10212000109241038DE394E00E94290483E194E03E
:102130000C9471048F929F92AF92BF92CF92DF92D4
:10214000EF92FF92CF93DF93EC01688179818A81CE
:102150009B81611571058105910521F464E279ED9A
:102160008BE597E02DE133EF41E050E00E94E01273
:1021700049015A019B01AC01A7EAB1E40E94FF1298
:102180006B017C01ACEEB4EFA50194010E940D132C
:10219000DC01CB018C0D9D1DAE1DBF1DB7FF03C023
:1021A0000197A109B04888839983AA83BB839F774D
:1021B000DF91CF91FF90EF90DF90CF90BF90AF90E5
:1021C0009F908F9008950E949A10089588E191E061
:1021D0000E949A100895B0E0A0E0809318019093B7
:1021E0001901A0931A01B0931B010895BB27FA01AE
:1021F000A62F6217710581059105330B30FB66F040
:10220000AA27660F771F881F991FAA1FA21710F011
:10221000A21B63953850A9F7A05DAA3308F0A95D09
:10222000A19336F7B111B1931082CA010C94D01268
:102230004532510520F4423010F00C942311FB017B
:102240001082CB010895BB27FB015527AA27880FD1
:10225000991FAA1FA41710F0A41B83955051B9F71A
:10226000A05DAA3308F0A95DA193009779F7B11199
:10227000B1931192CB010C94D0120F931F93CF9373
:10228000DF93009759F46115710541F4F0E0E0E047
:10229000CF01DF91CF911F910F9108958B01EC0138
:1022A0006EE070E081E090E00E948811FC01892BD3
:1022B00069F380E883830115110571F013870287A4
:1022C00081E8838380916B0490916C04892B21F4C5
:1022D000F0936C04E0936B042097D1F2D187C08710
:1022E00083818260838380916D0490916E04892B39
:1022F00079F6F0936E04E0936D0480916F049091F1
:102300007004892B29F6F0937004E0936F04C0CF1A
:102310000F931F93CF93DF93869F8001879F100DAC
:10232000969F100D1124C8010E94A411EC01009782
:1023300029F0A80170E060E00E94C912CE01DF918F
:10234000CF911F910F9108950F931F93CF93DF9318
:102350008230910510F482E090E0E0917304F091F6
:10236000740430E020E0B0E0A0E0309799F421154B
:10237000310509F44AC0281B390B24303105D8F542
:102380008A819B816115710589F1FB0193838283A9
:10239000FE0111C040815181028113814817590704
:1023A000E0F04817590799F4109761F012960C93D2
:1023B000129713961C933296CF01DF91CF911F9104
:1023C0000F9108950093730410937404F4CF2115B2
:1023D000310551F04217530738F0A901DB019A018A
:1023E000BD01DF01F801C1CFEF01F9CF9093740473
:1023F00080937304CDCFFE01E20FF31F819391937D
:102400002250310939832883D7CF2091710430912C
:102410007204232B41F420911E0130911F0130934F
:1024200072042093710420911C0130911D0121152B
:10243000310541F42DB73EB7409120015091210163
:10244000241B350BE0917104F0917204E217F3073D
:10245000A0F42E1B3F0B2817390778F0AC014E5F14
:102460005F4F2417350748F04E0F5F1F50937204DB
:1024700040937104819391939FCFF0E0E0E09CCF73
:10248000CF93DF930097E9F0FC0132971382128219
:10249000A0917304B0917404ED0130E020E0109736
:1024A000A1F420813181820F931F2091710430911A
:1024B00072042817390709F061C0F0937204E093A1
:1024C0007104DF91CF910895EA01CE17DF07E8F597
:1024D0004A815B819E0141155105B1F7E901FB83FA
:1024E000EA8349915991C40FD51FEC17FD0761F498
:1024F000808191810296840F951FE90199838883D9
:10250000828193819B838A83F0E0E0E012968D9133
:102510009C9113970097B9F52D913C911197CD019E
:102520000296820F931F2091710430917204281734
:10253000390739F6309751F51092740410927304EC
:10254000B0937204A0937104BCCFD383C283408143
:102550005181840F951FC817D90761F44E5F5F4FF3
:1025600088819981480F591F518340838A819B81BB
:10257000938382832115310509F0B0CFF093740461
:10258000E09373049ECFFD01DC01C0CF1382128261
:10259000D7CFDC0101C06D9341505040E0F7089562
:1025A000DC01FC01672F71917723E1F7329704C0BA
:1025B0007C916D9370836291AE17BF07C8F3089545
:1025C000052E97FB1EF400940E94F71257FD07D0CA
:1025D0000E94491307FC03D04EF40C94F712509557
:1025E0004095309521953F4F4F4F5F4F08959095FF
:1025F0008095709561957F4F8F4F9F4F08950E94F2
:102600006B13A59F900DB49F900DA49F800D911DFD
:1026100011240895B7FF0C94FF120E94FF12821B31
:10262000930B08952F923F924F925F926F927F92F9
:102630008F929F92AF92BF92CF92DF92EF92FF92D2
:102640000F931F93CF93DF93CDB7DEB7CA1BDB0B7E
:102650000FB6F894DEBF0FBECDBF09942A88398823
:1026600048885F846E847D848C849B84AA84B9842A
:10267000C884DF80EE80FD800C811B81AA81B98136
:10268000CE0FD11D0FB6F894DEBF0FBECDBFED014A
:102690000895A1E21A2EAA1BBB1BFD010DC0AA1FA3
:1026A000BB1FEE1FFF1FA217B307E407F50720F0BB
:1026B000A21BB30BE40BF50B661F771F881F991F36
:1026C0001A9469F760957095809590959B01AC017F
:1026D000BD01CF010895A29FB001B39FC001A39F88
:1026E000700D811D1124911DB29F700D811D11244B
:1026F000911D089597FB072E16F4009407D077FDDF
:1027000009D00E948E1307FC05D03EF49095819568
:102710009F4F0895709561957F4F0895AA1BBB1B2D
:1027200051E107C0AA1FBB1FA617B70710F0A61BD1
:10273000B70B881F991F5A95A9F780959095BC01F2
:10274000CD010895EE0FFF1F0590F491E02D09943F
:10275000B0E0A0E0EEEAF3E10C9414138C010097D2
:1027600051F4CB010E94A4118C01C801CDB7DEB792
:10277000E0E10C943013FC01E60FF71F9C0122509E
:102780003109E217F30708F49DC0D901CD91DC911E
:102790001197C617D70798F0C530D10530F3CE0191
:1027A00004978617970708F3C61BD70B2297C19388
:1027B000D1936D937C93CF010E944012D6CF5B01E1
:1027C000AC1ABD0A4C018C0E9D1EA0917304B091F1
:1027D0007404512C412CF12CE12C109731F580918F
:1027E0007104909172048815990509F05CC0461631
:1027F000570608F058C080911C0190911D01009768
:1028000041F48DB79EB74091200150912101841B66
:10281000950BE817F90708F055C0F0937204E093A0
:102820007104F90171836083A0CF8D919C91119700
:1028300012966C90129713967C901397A815B90571
:1028400059F56C0142E0C40ED11CCA14DB0420F11E
:10285000AC014A195B09DA011296159780F0628281
:10286000738251834083D9016D937C93E114F10409
:1028700071F0D7011396FC93EE93129776CF2296C0
:102880008C0F9D1FF90191838083F301EFCFF093AB
:102890007404E093730469CF4816590608F42C01B8
:1028A0007D01D3019ACFCB010E94A4117C01009736
:1028B00049F0AE01B8010E946514C8010E9440129F
:1028C000870153CF10E000E050CFFB01DC0102C0D4
:1028D00001900D9241505040D8F70895FC0181912C
:1028E000861721F08823D9F7992708953197CF01CA
:1028F0000895FB01DC018D91019080190110D9F33D
:10290000990B0895FB01DC0101900D920020E1F785
:102910000895FB0151915523A9F0BF01DC014D91B0
:1029200045174111E1F759F4CD010190002049F01C
:102930004D9140154111C9F3FB014111EFCF81E0E9
:1029400090E00197089510E0C2E6D0E004C0FE01D7
:102950000E94A2132196C336D107C9F7F894FFCF7E
:1029600008090A0B07060504373839BC343536BD6B
:10297000313233809430A9B60100000000007504A4
:1029800080004E010100180000000000000000005F
:10299000E8FFE8FF00000000000014000000000055
:1029A00000000000ECFFECFF00000000000004004D
:1029B0000000000088049A08000000004004560847
:1029C000F703F403F103EE031003E303A8038F03FB
:1029D000760396023703130302000000000053043D
:1029E0008E08FEFFFEFF0000410490080600000074
:1029F00000000B048208FAFFFAFF0000F9038408C4
:102A0000AE012C013601B8011800000000002904B5
:102A10006C08E8FFE8FF000036047608CA014001B0
:102A20004A01D40114000000000071045808ECFFB2
:102A3000ECFF00007E046208000000007101D1007C
:102A4000FE00BE012F010D01210100000000B604AF
:102A5000B2048A0400000000B806D1001003890403
:102A600000000000D304D1001003D2042F05470555
:102A7000BA040D0A007B7B003C3C003E3E005E5EDB
:102A800000232300425473657269616C2073746182
:102A9000727465642061742039363030002B2B004D
:062AA0002D2D00213B007A
:107E0000112484B714BE81FFF0D085E080938100F7
:107E100082E08093C00088E18093C10086E0809377
:107E2000C20080E18093C4008EE0C9D0259A86E02C
:107E300020E33CEF91E0309385002093840096BBD3
:107E4000B09BFECF1D9AA8958150A9F7CC24DD24C4
:107E500088248394B5E0AB2EA1E19A2EF3E0BF2EE7
:107E6000A2D0813461F49FD0082FAFD0023811F036
:107E7000013811F484E001C083E08DD089C08234E0
:107E800011F484E103C0853419F485E0A6D080C0E4
:107E9000853579F488D0E82EFF2485D0082F10E0AE
:107EA000102F00270E291F29000F111F8ED06801E7
:107EB0006FC0863521F484E090D080E0DECF843638
:107EC00009F040C070D06FD0082F6DD080E0C81688
:107ED00080E7D80618F4F601B7BEE895C0E0D1E017
:107EE00062D089930C17E1F7F0E0CF16F0E7DF06D8
:107EF00018F0F601B7BEE89568D007B600FCFDCFD4
:107F0000A601A0E0B1E02C9130E011968C91119780
:107F100090E0982F8827822B932B1296FA010C0160
:107F200087BEE89511244E5F5F4FF1E0A038BF0790
:107F300051F7F601A7BEE89507B600FCFDCF97BE46
:107F4000E89526C08437B1F42ED02DD0F82E2BD052
:107F50003CD0F601EF2C8F010F5F1F4F84911BD097
:107F6000EA94F801C1F70894C11CD11CFA94CF0C13
:107F7000D11C0EC0853739F428D08EE10CD085E9AC
:107F80000AD08FE07ACF813511F488E018D01DD067
:107F900080E101D065CF982F8091C00085FFFCCF94
:107FA0009093C60008958091C00087FFFCCF809118
:107FB000C00084FD01C0A8958091C6000895E0E648
:107FC000F0E098E1908380830895EDDF803219F02E
:107FD00088E0F5DFFFCF84E1DECF1F93182FE3DFCA
:107FE0001150E9F7F2DF1F91089580E0E8DFEE27F6
:047FF000FF270994CA
:027FFE00040479
:0400000300007E007B
:00000001FF
